{
  "contractName": "LandToken",
  "abi": [
    {
      "inputs": [],
      "stateMutability": "nonpayable",
      "type": "constructor"
    },
    {
      "anonymous": false,
      "inputs": [
        {
          "indexed": true,
          "internalType": "address",
          "name": "owner",
          "type": "address"
        },
        {
          "indexed": true,
          "internalType": "address",
          "name": "approved",
          "type": "address"
        },
        {
          "indexed": true,
          "internalType": "uint256",
          "name": "tokenId",
          "type": "uint256"
        }
      ],
      "name": "Approval",
      "type": "event"
    },
    {
      "anonymous": false,
      "inputs": [
        {
          "indexed": true,
          "internalType": "address",
          "name": "owner",
          "type": "address"
        },
        {
          "indexed": true,
          "internalType": "address",
          "name": "operator",
          "type": "address"
        },
        {
          "indexed": false,
          "internalType": "bool",
          "name": "approved",
          "type": "bool"
        }
      ],
      "name": "ApprovalForAll",
      "type": "event"
    },
    {
      "anonymous": false,
      "inputs": [
        {
          "indexed": true,
          "internalType": "address",
          "name": "previousOwner",
          "type": "address"
        },
        {
          "indexed": true,
          "internalType": "address",
          "name": "newOwner",
          "type": "address"
        }
      ],
      "name": "OwnershipTransferred",
      "type": "event"
    },
    {
      "anonymous": false,
      "inputs": [
        {
          "indexed": true,
          "internalType": "address",
          "name": "from",
          "type": "address"
        },
        {
          "indexed": true,
          "internalType": "address",
          "name": "to",
          "type": "address"
        },
        {
          "indexed": true,
          "internalType": "uint256",
          "name": "tokenId",
          "type": "uint256"
        }
      ],
      "name": "Transfer",
      "type": "event"
    },
    {
      "inputs": [
        {
          "internalType": "address",
          "name": "to",
          "type": "address"
        },
        {
          "internalType": "uint256",
          "name": "tokenId",
          "type": "uint256"
        }
      ],
      "name": "approve",
      "outputs": [],
      "stateMutability": "nonpayable",
      "type": "function"
    },
    {
      "inputs": [
        {
          "internalType": "address",
          "name": "owner",
          "type": "address"
        }
      ],
      "name": "balanceOf",
      "outputs": [
        {
          "internalType": "uint256",
          "name": "",
          "type": "uint256"
        }
      ],
      "stateMutability": "view",
      "type": "function",
      "constant": true
    },
    {
      "inputs": [
        {
          "internalType": "uint256",
          "name": "tokenId",
          "type": "uint256"
        }
      ],
      "name": "burn",
      "outputs": [],
      "stateMutability": "nonpayable",
      "type": "function"
    },
    {
      "inputs": [
        {
          "internalType": "uint256",
          "name": "tokenId",
          "type": "uint256"
        }
      ],
      "name": "getApproved",
      "outputs": [
        {
          "internalType": "address",
          "name": "",
          "type": "address"
        }
      ],
      "stateMutability": "view",
      "type": "function",
      "constant": true
    },
    {
      "inputs": [
        {
          "internalType": "address",
          "name": "_address",
          "type": "address"
        },
        {
          "internalType": "uint256",
          "name": "_tokenId",
          "type": "uint256"
        }
      ],
      "name": "hashTokenAddress",
      "outputs": [
        {
          "internalType": "bytes32",
          "name": "",
          "type": "bytes32"
        }
      ],
      "stateMutability": "pure",
      "type": "function",
      "constant": true
    },
    {
      "inputs": [
        {
          "internalType": "address",
          "name": "checkAddress",
          "type": "address"
        },
        {
          "internalType": "address[]",
          "name": "arrayAddress",
          "type": "address[]"
        }
      ],
      "name": "indexOfAddress",
      "outputs": [
        {
          "internalType": "bool",
          "name": "",
          "type": "bool"
        }
      ],
      "stateMutability": "pure",
      "type": "function",
      "constant": true
    },
    {
      "inputs": [
        {
          "internalType": "uint256",
          "name": "checkTokenId",
          "type": "uint256"
        },
        {
          "internalType": "uint256[]",
          "name": "arrayTokenId",
          "type": "uint256[]"
        }
      ],
      "name": "indexOfTokenId",
      "outputs": [
        {
          "internalType": "bool",
          "name": "",
          "type": "bool"
        }
      ],
      "stateMutability": "pure",
      "type": "function",
      "constant": true
    },
    {
      "inputs": [
        {
          "internalType": "address",
          "name": "owner",
          "type": "address"
        },
        {
          "internalType": "address",
          "name": "operator",
          "type": "address"
        }
      ],
      "name": "isApprovedForAll",
      "outputs": [
        {
          "internalType": "bool",
          "name": "",
          "type": "bool"
        }
      ],
      "stateMutability": "view",
      "type": "function",
      "constant": true
    },
    {
      "inputs": [],
      "name": "name",
      "outputs": [
        {
          "internalType": "string",
          "name": "",
          "type": "string"
        }
      ],
      "stateMutability": "view",
      "type": "function",
      "constant": true
    },
    {
      "inputs": [],
      "name": "owner",
      "outputs": [
        {
          "internalType": "address",
          "name": "",
          "type": "address"
        }
      ],
      "stateMutability": "view",
      "type": "function",
      "constant": true
    },
    {
      "inputs": [
        {
          "internalType": "uint256",
          "name": "tokenId",
          "type": "uint256"
        }
      ],
      "name": "ownerOf",
      "outputs": [
        {
          "internalType": "address",
          "name": "",
          "type": "address"
        }
      ],
      "stateMutability": "view",
      "type": "function",
      "constant": true
    },
    {
      "inputs": [],
      "name": "renounceOwnership",
      "outputs": [],
      "stateMutability": "nonpayable",
      "type": "function"
    },
    {
      "inputs": [
        {
          "internalType": "address",
          "name": "from",
          "type": "address"
        },
        {
          "internalType": "address",
          "name": "to",
          "type": "address"
        },
        {
          "internalType": "uint256",
          "name": "tokenId",
          "type": "uint256"
        }
      ],
      "name": "safeTransferFrom",
      "outputs": [],
      "stateMutability": "nonpayable",
      "type": "function"
    },
    {
      "inputs": [
        {
          "internalType": "address",
          "name": "from",
          "type": "address"
        },
        {
          "internalType": "address",
          "name": "to",
          "type": "address"
        },
        {
          "internalType": "uint256",
          "name": "tokenId",
          "type": "uint256"
        },
        {
          "internalType": "bytes",
          "name": "data",
          "type": "bytes"
        }
      ],
      "name": "safeTransferFrom",
      "outputs": [],
      "stateMutability": "nonpayable",
      "type": "function"
    },
    {
      "inputs": [
        {
          "internalType": "address",
          "name": "operator",
          "type": "address"
        },
        {
          "internalType": "bool",
          "name": "approved",
          "type": "bool"
        }
      ],
      "name": "setApprovalForAll",
      "outputs": [],
      "stateMutability": "nonpayable",
      "type": "function"
    },
    {
      "inputs": [],
      "name": "symbol",
      "outputs": [
        {
          "internalType": "string",
          "name": "",
          "type": "string"
        }
      ],
      "stateMutability": "view",
      "type": "function",
      "constant": true
    },
    {
      "inputs": [
        {
          "internalType": "uint256",
          "name": "index",
          "type": "uint256"
        }
      ],
      "name": "tokenByIndex",
      "outputs": [
        {
          "internalType": "uint256",
          "name": "",
          "type": "uint256"
        }
      ],
      "stateMutability": "view",
      "type": "function",
      "constant": true
    },
    {
      "inputs": [
        {
          "internalType": "address",
          "name": "owner",
          "type": "address"
        },
        {
          "internalType": "uint256",
          "name": "index",
          "type": "uint256"
        }
      ],
      "name": "tokenOfOwnerByIndex",
      "outputs": [
        {
          "internalType": "uint256",
          "name": "",
          "type": "uint256"
        }
      ],
      "stateMutability": "view",
      "type": "function",
      "constant": true
    },
    {
      "inputs": [],
      "name": "totalSupply",
      "outputs": [
        {
          "internalType": "uint256",
          "name": "",
          "type": "uint256"
        }
      ],
      "stateMutability": "view",
      "type": "function",
      "constant": true
    },
    {
      "inputs": [
        {
          "internalType": "address",
          "name": "newOwner",
          "type": "address"
        }
      ],
      "name": "transferOwnership",
      "outputs": [],
      "stateMutability": "nonpayable",
      "type": "function"
    },
    {
      "inputs": [
        {
          "internalType": "bytes4",
          "name": "interfaceId",
          "type": "bytes4"
        }
      ],
      "name": "supportsInterface",
      "outputs": [
        {
          "internalType": "bool",
          "name": "",
          "type": "bool"
        }
      ],
      "stateMutability": "view",
      "type": "function",
      "constant": true
    },
    {
      "inputs": [
        {
          "internalType": "address",
          "name": "to",
          "type": "address"
        },
        {
          "internalType": "uint256",
          "name": "tokenId",
          "type": "uint256"
        },
        {
          "internalType": "string",
          "name": "uri",
          "type": "string"
        }
      ],
      "name": "safeMint",
      "outputs": [],
      "stateMutability": "nonpayable",
      "type": "function"
    },
    {
      "inputs": [
        {
          "internalType": "address",
          "name": "sharedOwner",
          "type": "address"
        },
        {
          "internalType": "uint256",
          "name": "tokenId",
          "type": "uint256"
        }
      ],
      "name": "sharedTokenOwner",
      "outputs": [
        {
          "components": [
            {
              "internalType": "uint256",
              "name": "tokenId",
              "type": "uint256"
            },
            {
              "internalType": "bool",
              "name": "isSharing",
              "type": "bool"
            },
            {
              "internalType": "address",
              "name": "originalOwner",
              "type": "address"
            }
          ],
          "internalType": "struct LandToken.TokenSharedOwnerStruct",
          "name": "",
          "type": "tuple"
        }
      ],
      "stateMutability": "view",
      "type": "function",
      "constant": true
    },
    {
      "inputs": [
        {
          "internalType": "address",
          "name": "owner",
          "type": "address"
        },
        {
          "internalType": "uint256",
          "name": "tokenId",
          "type": "uint256"
        }
      ],
      "name": "sharedOwnerList",
      "outputs": [
        {
          "internalType": "address[]",
          "name": "",
          "type": "address[]"
        }
      ],
      "stateMutability": "view",
      "type": "function",
      "constant": true
    },
    {
      "inputs": [
        {
          "internalType": "uint256",
          "name": "tokenId",
          "type": "uint256"
        }
      ],
      "name": "tokenURI",
      "outputs": [
        {
          "internalType": "string",
          "name": "",
          "type": "string"
        }
      ],
      "stateMutability": "view",
      "type": "function",
      "constant": true
    },
    {
      "inputs": [
        {
          "internalType": "address",
          "name": "owner",
          "type": "address"
        },
        {
          "internalType": "address",
          "name": "sharedOwner",
          "type": "address"
        },
        {
          "internalType": "uint256",
          "name": "tokenId",
          "type": "uint256"
        }
      ],
      "name": "setSharedOwners",
      "outputs": [],
      "stateMutability": "nonpayable",
      "type": "function"
    },
    {
      "inputs": [
        {
          "internalType": "address",
          "name": "owner",
          "type": "address"
        },
        {
          "internalType": "address",
          "name": "sharedOwner",
          "type": "address"
        },
        {
          "internalType": "uint256",
          "name": "tokenId",
          "type": "uint256"
        }
      ],
      "name": "deleteSharedOwners",
      "outputs": [],
      "stateMutability": "nonpayable",
      "type": "function"
    },
    {
      "inputs": [
        {
          "internalType": "address",
          "name": "from",
          "type": "address"
        },
        {
          "internalType": "address",
          "name": "to",
          "type": "address"
        },
        {
          "internalType": "uint256",
          "name": "tokenId",
          "type": "uint256"
        }
      ],
      "name": "transferFrom",
      "outputs": [],
      "stateMutability": "nonpayable",
      "type": "function"
    },
    {
      "inputs": [
        {
          "internalType": "address",
          "name": "user",
          "type": "address"
        }
      ],
      "name": "setNewOwner",
      "outputs": [],
      "stateMutability": "nonpayable",
      "type": "function"
    },
    {
      "inputs": [
        {
          "internalType": "uint256",
          "name": "tokenId",
          "type": "uint256"
        },
        {
          "internalType": "string",
          "name": "document",
          "type": "string"
        }
      ],
      "name": "transferAgreementDocument",
      "outputs": [],
      "stateMutability": "nonpayable",
      "type": "function"
    },
    {
      "inputs": [
        {
          "internalType": "uint256",
          "name": "tokenId",
          "type": "uint256"
        }
      ],
      "name": "retrieveTransferDocument",
      "outputs": [
        {
          "internalType": "string",
          "name": "",
          "type": "string"
        }
      ],
      "stateMutability": "view",
      "type": "function",
      "constant": true
    }
  ],
  "bytecode": "0x60806040523480156200001157600080fd5b506040518060400160405280600981526020017f4c616e64546f6b656e00000000000000000000000000000000000000000000008152506040518060400160405280600381526020017f4c5454000000000000000000000000000000000000000000000000000000000081525081600090816200008f919062000412565b508060019081620000a1919062000412565b505050620000c4620000b8620000ca60201b60201c565b620000d260201b60201c565b620004f9565b600033905090565b6000600b60009054906101000a900473ffffffffffffffffffffffffffffffffffffffff16905081600b60006101000a81548173ffffffffffffffffffffffffffffffffffffffff021916908373ffffffffffffffffffffffffffffffffffffffff1602179055508173ffffffffffffffffffffffffffffffffffffffff168173ffffffffffffffffffffffffffffffffffffffff167f8be0079c531659141344cd1fd0a4f28419497f9722a3daafe3b4186f6b6457e060405160405180910390a35050565b600081519050919050565b7f4e487b7100000000000000000000000000000000000000000000000000000000600052604160045260246000fd5b7f4e487b7100000000000000000000000000000000000000000000000000000000600052602260045260246000fd5b600060028204905060018216806200021a57607f821691505b60208210810362000230576200022f620001d2565b5b50919050565b60008190508160005260206000209050919050565b60006020601f8301049050919050565b600082821b905092915050565b6000600883026200029a7fffffffffffffffffffffffffffffffffffffffffffffffffffffffffffffffff826200025b565b620002a686836200025b565b95508019841693508086168417925050509392505050565b6000819050919050565b6000819050919050565b6000620002f3620002ed620002e784620002be565b620002c8565b620002be565b9050919050565b6000819050919050565b6200030f83620002d2565b620003276200031e82620002fa565b84845462000268565b825550505050565b600090565b6200033e6200032f565b6200034b81848462000304565b505050565b5b8181101562000373576200036760008262000334565b60018101905062000351565b5050565b601f821115620003c2576200038c8162000236565b62000397846200024b565b81016020851015620003a7578190505b620003bf620003b6856200024b565b83018262000350565b50505b505050565b600082821c905092915050565b6000620003e760001984600802620003c7565b1980831691505092915050565b6000620004028383620003d4565b9150826002028217905092915050565b6200041d8262000198565b67ffffffffffffffff811115620004395762000438620001a3565b5b62000445825462000201565b6200045282828562000377565b600060209050601f8311600181146200048a576000841562000475578287015190505b620004818582620003f4565b865550620004f1565b601f1984166200049a8662000236565b60005b82811015620004c4578489015182556001820191506020850194506020810190506200049d565b86831015620004e45784890151620004e0601f891682620003d4565b8355505b6001600288020188555050505b505050505050565b61534680620005096000396000f3fe608060405234801561001057600080fd5b50600436106101e55760003560e01c806370a082311161010f578063c87b56dd116100a2578063e985e9c511610071578063e985e9c5146105d8578063eff7a23314610608578063f2fde38b14610624578063f5a1f5b414610640576101e5565b8063c87b56dd1461052c578063cd279c7c1461055c578063dfcd308214610578578063e26744c7146105a8576101e5565b8063a12ca11d116100de578063a12ca11d14610494578063a22cb465146104c4578063b88d4fde146104e0578063bda6b691146104fc576101e5565b806370a082311461041e578063715018a61461044e5780638da5cb5b1461045857806395d89b4114610476576101e5565b80632f745c591161018757806349494bec1161015657806349494bec146103725780634f6ccce71461038e578063574aa8e3146103be5780636352211e146103ee576101e5565b80632f745c59146102da57806341db4eaf1461030a57806342842e0e1461033a57806342966c6814610356576101e5565b8063095ea7b3116101c3578063095ea7b31461026857806309da17bc1461028457806318160ddd146102a057806323b872dd146102be576101e5565b806301ffc9a7146101ea57806306fdde031461021a578063081812fc14610238575b600080fd5b61020460048036038101906101ff919061396e565b61065c565b60405161021191906139b6565b60405180910390f35b61022261066e565b60405161022f9190613a61565b60405180910390f35b610252600480360381019061024d9190613ab9565b610700565b60405161025f9190613b27565b60405180910390f35b610282600480360381019061027d9190613b6e565b610746565b005b61029e60048036038101906102999190613bae565b61085d565b005b6102a8610a02565b6040516102b59190613c10565b60405180910390f35b6102d860048036038101906102d39190613bae565b610a0f565b005b6102f460048036038101906102ef9190613b6e565b610d35565b6040516103019190613c10565b60405180910390f35b610324600480360381019061031f9190613b6e565b610dda565b6040516103319190613ce9565b60405180910390f35b610354600480360381019061034f9190613bae565b610e8e565b005b610370600480360381019061036b9190613ab9565b610eae565b005b61038c60048036038101906103879190613e40565b610f0a565b005b6103a860048036038101906103a39190613ab9565b611086565b6040516103b59190613c10565b60405180910390f35b6103d860048036038101906103d39190613ab9565b6110f7565b6040516103e59190613a61565b60405180910390f35b61040860048036038101906104039190613ab9565b61125a565b6040516104159190613b27565b60405180910390f35b61043860048036038101906104339190613e9c565b6112e0565b6040516104459190613c10565b60405180910390f35b610456611397565b005b6104606113ab565b60405161046d9190613b27565b60405180910390f35b61047e6113d5565b60405161048b9190613a61565b60405180910390f35b6104ae60048036038101906104a99190613b6e565b611467565b6040516104bb9190613ee2565b60405180910390f35b6104de60048036038101906104d99190613f29565b61149a565b005b6104fa60048036038101906104f5919061400a565b6114b0565b005b61051660048036038101906105119190614155565b611512565b60405161052391906139b6565b60405180910390f35b61054660048036038101906105419190613ab9565b611599565b6040516105539190613a61565b60405180910390f35b610576600480360381019061057191906141b1565b6115ab565b005b610592600480360381019061058d91906142e3565b611651565b60405161059f91906139b6565b60405180910390f35b6105c260048036038101906105bd9190613b6e565b6116ac565b6040516105cf919061439f565b60405180910390f35b6105f260048036038101906105ed91906143ba565b611764565b6040516105ff91906139b6565b60405180910390f35b610622600480360381019061061d9190613bae565b6117f8565b005b61063e60048036038101906106399190613e9c565b611b39565b005b61065a60048036038101906106559190613e9c565b611bbc565b005b600061066782611c00565b9050919050565b60606000805461067d90614429565b80601f01602080910402602001604051908101604052809291908181526020018280546106a990614429565b80156106f65780601f106106cb576101008083540402835291602001916106f6565b820191906000526020600020905b8154815290600101906020018083116106d957829003601f168201915b5050505050905090565b600061070b82611c7a565b6004600083815260200190815260200160002060009054906101000a900473ffffffffffffffffffffffffffffffffffffffff169050919050565b60006107518261125a565b90508073ffffffffffffffffffffffffffffffffffffffff168373ffffffffffffffffffffffffffffffffffffffff16036107c1576040517f08c379a00000000000000000000000000000000000000000000000000000000081526004016107b8906144cc565b60405180910390fd5b8073ffffffffffffffffffffffffffffffffffffffff166107e0611cc5565b73ffffffffffffffffffffffffffffffffffffffff16148061080f575061080e81610809611cc5565b611764565b5b61084e576040517f08c379a00000000000000000000000000000000000000000000000000000000081526004016108459061455e565b60405180910390fd5b6108588383611ccd565b505050565b61086e610868611cc5565b82611d86565b6108ad576040517f08c379a00000000000000000000000000000000000000000000000000000000081526004016108a4906145f0565b60405180910390fd5b60006108b98483611467565b905060006108c78484611467565b9050600c6000838152602001908152602001600020600201849080600181540180825580915050600190039060005260206000200160009091909190916101000a81548173ffffffffffffffffffffffffffffffffffffffff021916908373ffffffffffffffffffffffffffffffffffffffff16021790555060405180606001604052808481526020016001151581526020018673ffffffffffffffffffffffffffffffffffffffff16815250600d60008381526020019081526020016000206000820151816000015560208201518160010160006101000a81548160ff02191690831515021790555060408201518160010160016101000a81548173ffffffffffffffffffffffffffffffffffffffff021916908373ffffffffffffffffffffffffffffffffffffffff1602179055509050505050505050565b6000600980549050905090565b610a20610a1a611cc5565b82611d86565b610a5f576040517f08c379a0000000000000000000000000000000000000000000000000000000008152600401610a56906145f0565b60405180910390fd5b610a6a838383611e1b565b6000610a768483611467565b90506000600c6000838152602001908152602001600020600201805480602002602001604051908101604052809291908181526020018280548015610b1057602002820191906000526020600020905b8160009054906101000a900473ffffffffffffffffffffffffffffffffffffffff1673ffffffffffffffffffffffffffffffffffffffff1681526020019060010190808311610ac6575b5050505050905060005b8151811015610c20576000610b49838381518110610b3b57610b3a614610565b5b602002602001015186611467565b905060405180606001604052806402540be4008152602001600015158152602001600073ffffffffffffffffffffffffffffffffffffffff16815250600d60008381526020019081526020016000206000820151816000015560208201518160010160006101000a81548160ff02191690831515021790555060408201518160010160016101000a81548173ffffffffffffffffffffffffffffffffffffffff021916908373ffffffffffffffffffffffffffffffffffffffff160217905550905050508080610c189061466e565b915050610b1a565b50606060405180606001604052806402540be400815260200160001515815260200182815250600c60008581526020019081526020016000206000820151816000015560208201518160010160006101000a81548160ff0219169083151502179055506040820151816002019080519060200190610c9f9291906137e2565b509050506000610caf8686611467565b9050604051806060016040528086815260200160001515815260200183815250600c60008381526020019081526020016000206000820151816000015560208201518160010160006101000a81548160ff0219169083151502179055506040820151816002019080519060200190610d289291906137e2565b5090505050505050505050565b6000610d40836112e0565b8210610d81576040517f08c379a0000000000000000000000000000000000000000000000000000000008152600401610d7890614728565b60405180910390fd5b600760008473ffffffffffffffffffffffffffffffffffffffff1673ffffffffffffffffffffffffffffffffffffffff168152602001908152602001600020600083815260200190815260200160002054905092915050565b60606000610de88484611467565b9050600c6000828152602001908152602001600020600201805480602002602001604051908101604052809291908181526020018280548015610e8057602002820191906000526020600020905b8160009054906101000a900473ffffffffffffffffffffffffffffffffffffffff1673ffffffffffffffffffffffffffffffffffffffff1681526020019060010190808311610e36575b505050505091505092915050565b610ea9838383604051806020016040528060008152506114b0565b505050565b610ebf610eb9611cc5565b82611d86565b610efe576040517f08c379a0000000000000000000000000000000000000000000000000000000008152600401610ef5906145f0565b60405180910390fd5b610f0781612114565b50565b610f1b610f15611cc5565b83611d86565b610f5a576040517f08c379a0000000000000000000000000000000000000000000000000000000008152600401610f51906145f0565b60405180910390fd5b610f638261125a565b601060006101000a81548173ffffffffffffffffffffffffffffffffffffffff021916908373ffffffffffffffffffffffffffffffffffffffff16021790555080600e60008481526020019081526020016000206000600f60009054906101000a900473ffffffffffffffffffffffffffffffffffffffff1673ffffffffffffffffffffffffffffffffffffffff1673ffffffffffffffffffffffffffffffffffffffff1681526020019081526020016000206000601060009054906101000a900473ffffffffffffffffffffffffffffffffffffffff1673ffffffffffffffffffffffffffffffffffffffff1673ffffffffffffffffffffffffffffffffffffffff168152602001908152602001600020908161108191906148f4565b505050565b6000611090610a02565b82106110d1576040517f08c379a00000000000000000000000000000000000000000000000000000000081526004016110c890614a38565b60405180910390fd5b600982815481106110e5576110e4614610565b5b90600052602060002001549050919050565b6060600e60008381526020019081526020016000206000600f60009054906101000a900473ffffffffffffffffffffffffffffffffffffffff1673ffffffffffffffffffffffffffffffffffffffff1673ffffffffffffffffffffffffffffffffffffffff1681526020019081526020016000206000601060009054906101000a900473ffffffffffffffffffffffffffffffffffffffff1673ffffffffffffffffffffffffffffffffffffffff1673ffffffffffffffffffffffffffffffffffffffff16815260200190815260200160002080546111d590614429565b80601f016020809104026020016040519081016040528092919081815260200182805461120190614429565b801561124e5780601f106112235761010080835404028352916020019161124e565b820191906000526020600020905b81548152906001019060200180831161123157829003601f168201915b50505050509050919050565b6000806112668361236a565b9050600073ffffffffffffffffffffffffffffffffffffffff168173ffffffffffffffffffffffffffffffffffffffff16036112d7576040517f08c379a00000000000000000000000000000000000000000000000000000000081526004016112ce90614aa4565b60405180910390fd5b80915050919050565b60008073ffffffffffffffffffffffffffffffffffffffff168273ffffffffffffffffffffffffffffffffffffffff1603611350576040517f08c379a000000000000000000000000000000000000000000000000000000000815260040161134790614b36565b60405180910390fd5b600360008373ffffffffffffffffffffffffffffffffffffffff1673ffffffffffffffffffffffffffffffffffffffff168152602001908152602001600020549050919050565b61139f6123a7565b6113a96000612425565b565b6000600b60009054906101000a900473ffffffffffffffffffffffffffffffffffffffff16905090565b6060600180546113e490614429565b80601f016020809104026020016040519081016040528092919081815260200182805461141090614429565b801561145d5780601f106114325761010080835404028352916020019161145d565b820191906000526020600020905b81548152906001019060200180831161144057829003601f168201915b5050505050905090565b6000828260405160200161147c929190614bbf565b60405160208183030381529060405280519060200120905092915050565b6114ac6114a5611cc5565b83836124eb565b5050565b6114c16114bb611cc5565b83611d86565b611500576040517f08c379a00000000000000000000000000000000000000000000000000000000081526004016114f7906145f0565b60405180910390fd5b61150c84848484612657565b50505050565b6000806000905060005b835181101561158e5783818151811061153857611537614610565b5b602002602001015173ffffffffffffffffffffffffffffffffffffffff168573ffffffffffffffffffffffffffffffffffffffff160361157b576001915061158e565b80806115869061466e565b91505061151c565b508091505092915050565b60606115a4826126b3565b9050919050565b6115b583836127c5565b6115bf82826127e3565b606060006115cd8585611467565b9050604051806060016040528085815260200160001515815260200183815250600c60008381526020019081526020016000206000820151816000015560208201518160010160006101000a81548160ff02191690831515021790555060408201518160020190805190602001906116469291906137e2565b509050505050505050565b6000806000905060005b83518110156116a15783818151811061167757611676614610565b5b6020026020010151850361168e57600191506116a1565b80806116999061466e565b91505061165b565b508091505092915050565b6116b461386c565b60006116c08484611467565b9050600d6000828152602001908152602001600020604051806060016040529081600082015481526020016001820160009054906101000a900460ff161515151581526020016001820160019054906101000a900473ffffffffffffffffffffffffffffffffffffffff1673ffffffffffffffffffffffffffffffffffffffff1673ffffffffffffffffffffffffffffffffffffffff168152505091505092915050565b6000600560008473ffffffffffffffffffffffffffffffffffffffff1673ffffffffffffffffffffffffffffffffffffffff16815260200190815260200160002060008373ffffffffffffffffffffffffffffffffffffffff1673ffffffffffffffffffffffffffffffffffffffff16815260200190815260200160002060009054906101000a900460ff16905092915050565b611809611803611cc5565b82611d86565b611848576040517f08c379a000000000000000000000000000000000000000000000000000000000815260040161183f906145f0565b60405180910390fd5b60006118548483611467565b90506000600c60008381526020019081526020016000206002018054806020026020016040519081016040528092919081815260200182805480156118ee57602002820191906000526020600020905b8160009054906101000a900473ffffffffffffffffffffffffffffffffffffffff1673ffffffffffffffffffffffffffffffffffffffff16815260200190600101908083116118a4575b5050505050905060006119018585611467565b905060405180606001604052806402540be4008152602001600015158152602001600073ffffffffffffffffffffffffffffffffffffffff16815250600d60008381526020019081526020016000206000820151816000015560208201518160010160006101000a81548160ff02191690831515021790555060408201518160010160016101000a81548173ffffffffffffffffffffffffffffffffffffffff021916908373ffffffffffffffffffffffffffffffffffffffff1602179055509050506000600183516119d49190614beb565b67ffffffffffffffff8111156119ed576119ec613d15565b5b604051908082528060200260200182016040528015611a1b5781602001602082028036833780820191505090505b50905060005b8351811015611b045760008773ffffffffffffffffffffffffffffffffffffffff16858381518110611a5657611a55614610565b5b602002602001015173ffffffffffffffffffffffffffffffffffffffff1614611af057848281518110611a8c57611a8b614610565b5b6020026020010151838281518110611aa757611aa6614610565b5b602002602001019073ffffffffffffffffffffffffffffffffffffffff16908173ffffffffffffffffffffffffffffffffffffffff16815250508080611aec9061466e565b9150505b508080611afc9061466e565b915050611a21565b5080600c60008681526020019081526020016000206002019080519060200190611b2f9291906137e2565b5050505050505050565b611b416123a7565b600073ffffffffffffffffffffffffffffffffffffffff168173ffffffffffffffffffffffffffffffffffffffff1603611bb0576040517f08c379a0000000000000000000000000000000000000000000000000000000008152600401611ba790614c91565b60405180910390fd5b611bb981612425565b50565b80600f60006101000a81548173ffffffffffffffffffffffffffffffffffffffff021916908373ffffffffffffffffffffffffffffffffffffffff16021790555050565b60007f780e9d63000000000000000000000000000000000000000000000000000000007bffffffffffffffffffffffffffffffffffffffffffffffffffffffff1916827bffffffffffffffffffffffffffffffffffffffffffffffffffffffff19161480611c735750611c7282612850565b5b9050919050565b611c8381612932565b611cc2576040517f08c379a0000000000000000000000000000000000000000000000000000000008152600401611cb990614aa4565b60405180910390fd5b50565b600033905090565b816004600083815260200190815260200160002060006101000a81548173ffffffffffffffffffffffffffffffffffffffff021916908373ffffffffffffffffffffffffffffffffffffffff160217905550808273ffffffffffffffffffffffffffffffffffffffff16611d408361125a565b73ffffffffffffffffffffffffffffffffffffffff167f8c5be1e5ebec7d5bd14f71427d1e84f3dd0314c0f7b2291e5b200ac8c7c3b92560405160405180910390a45050565b600080611d928361125a565b90508073ffffffffffffffffffffffffffffffffffffffff168473ffffffffffffffffffffffffffffffffffffffff161480611dd45750611dd38185611764565b5b80611e1257508373ffffffffffffffffffffffffffffffffffffffff16611dfa84610700565b73ffffffffffffffffffffffffffffffffffffffff16145b91505092915050565b8273ffffffffffffffffffffffffffffffffffffffff16611e3b8261125a565b73ffffffffffffffffffffffffffffffffffffffff1614611e91576040517f08c379a0000000000000000000000000000000000000000000000000000000008152600401611e8890614d23565b60405180910390fd5b600073ffffffffffffffffffffffffffffffffffffffff168273ffffffffffffffffffffffffffffffffffffffff1603611f00576040517f08c379a0000000000000000000000000000000000000000000000000000000008152600401611ef790614db5565b60405180910390fd5b611f0d8383836001612973565b8273ffffffffffffffffffffffffffffffffffffffff16611f2d8261125a565b73ffffffffffffffffffffffffffffffffffffffff1614611f83576040517f08c379a0000000000000000000000000000000000000000000000000000000008152600401611f7a90614d23565b60405180910390fd5b6004600082815260200190815260200160002060006101000a81549073ffffffffffffffffffffffffffffffffffffffff02191690556001600360008573ffffffffffffffffffffffffffffffffffffffff1673ffffffffffffffffffffffffffffffffffffffff168152602001908152602001600020600082825403925050819055506001600360008473ffffffffffffffffffffffffffffffffffffffff1673ffffffffffffffffffffffffffffffffffffffff16815260200190815260200160002060008282540192505081905550816002600083815260200190815260200160002060006101000a81548173ffffffffffffffffffffffffffffffffffffffff021916908373ffffffffffffffffffffffffffffffffffffffff160217905550808273ffffffffffffffffffffffffffffffffffffffff168473ffffffffffffffffffffffffffffffffffffffff167fddf252ad1be2c89b69c2b068fc378daa952ba7f163c4a11628f55a4df523b3ef60405160405180910390a461210f8383836001612985565b505050565b600061211f8261125a565b9050600061212d8284611467565b90506000600c60008381526020019081526020016000206002018054806020026020016040519081016040528092919081815260200182805480156121c757602002820191906000526020600020905b8160009054906101000a900473ffffffffffffffffffffffffffffffffffffffff1673ffffffffffffffffffffffffffffffffffffffff168152602001906001019080831161217d575b5050505050905060005b81518110156122d75760006122008383815181106121f2576121f1614610565b5b602002602001015187611467565b905060405180606001604052806402540be4008152602001600015158152602001600073ffffffffffffffffffffffffffffffffffffffff16815250600d60008381526020019081526020016000206000820151816000015560208201518160010160006101000a81548160ff02191690831515021790555060408201518160010160016101000a81548173ffffffffffffffffffffffffffffffffffffffff021916908373ffffffffffffffffffffffffffffffffffffffff1602179055509050505080806122cf9061466e565b9150506121d1565b50606060405180606001604052806402540be400815260200160001515815260200182815250600c60008581526020019081526020016000206000820151816000015560208201518160010160006101000a81548160ff02191690831515021790555060408201518160020190805190602001906123569291906137e2565b509050506123638561298b565b5050505050565b60006002600083815260200190815260200160002060009054906101000a900473ffffffffffffffffffffffffffffffffffffffff169050919050565b6123af611cc5565b73ffffffffffffffffffffffffffffffffffffffff166123cd6113ab565b73ffffffffffffffffffffffffffffffffffffffff1614612423576040517f08c379a000000000000000000000000000000000000000000000000000000000815260040161241a90614e21565b60405180910390fd5b565b6000600b60009054906101000a900473ffffffffffffffffffffffffffffffffffffffff16905081600b60006101000a81548173ffffffffffffffffffffffffffffffffffffffff021916908373ffffffffffffffffffffffffffffffffffffffff1602179055508173ffffffffffffffffffffffffffffffffffffffff168173ffffffffffffffffffffffffffffffffffffffff167f8be0079c531659141344cd1fd0a4f28419497f9722a3daafe3b4186f6b6457e060405160405180910390a35050565b8173ffffffffffffffffffffffffffffffffffffffff168373ffffffffffffffffffffffffffffffffffffffff1603612559576040517f08c379a000000000000000000000000000000000000000000000000000000000815260040161255090614e8d565b60405180910390fd5b80600560008573ffffffffffffffffffffffffffffffffffffffff1673ffffffffffffffffffffffffffffffffffffffff16815260200190815260200160002060008473ffffffffffffffffffffffffffffffffffffffff1673ffffffffffffffffffffffffffffffffffffffff16815260200190815260200160002060006101000a81548160ff0219169083151502179055508173ffffffffffffffffffffffffffffffffffffffff168373ffffffffffffffffffffffffffffffffffffffff167f17307eab39ab6107e8899845ad3d59bd9653f200f220920489ca2b5937696c318360405161264a91906139b6565b60405180910390a3505050565b612662848484611e1b565b61266e848484846129de565b6126ad576040517f08c379a00000000000000000000000000000000000000000000000000000000081526004016126a490614f1f565b60405180910390fd5b50505050565b60606126be82611c7a565b60006006600084815260200190815260200160002080546126de90614429565b80601f016020809104026020016040519081016040528092919081815260200182805461270a90614429565b80156127575780601f1061272c57610100808354040283529160200191612757565b820191906000526020600020905b81548152906001019060200180831161273a57829003601f168201915b505050505090506000612768612b65565b9050600081510361277d5781925050506127c0565b6000825111156127b257808260405160200161279a929190614f7b565b604051602081830303815290604052925050506127c0565b6127bb84612b7c565b925050505b919050565b6127df828260405180602001604052806000815250612be4565b5050565b6127ec82612932565b61282b576040517f08c379a000000000000000000000000000000000000000000000000000000000815260040161282290615011565b60405180910390fd5b8060066000848152602001908152602001600020908161284b91906148f4565b505050565b60007f80ac58cd000000000000000000000000000000000000000000000000000000007bffffffffffffffffffffffffffffffffffffffffffffffffffffffff1916827bffffffffffffffffffffffffffffffffffffffffffffffffffffffff1916148061291b57507f5b5e139f000000000000000000000000000000000000000000000000000000007bffffffffffffffffffffffffffffffffffffffffffffffffffffffff1916827bffffffffffffffffffffffffffffffffffffffffffffffffffffffff1916145b8061292b575061292a82612c3f565b5b9050919050565b60008073ffffffffffffffffffffffffffffffffffffffff166129548361236a565b73ffffffffffffffffffffffffffffffffffffffff1614159050919050565b61297f84848484612ca9565b50505050565b50505050565b61299481612e07565b60006006600083815260200190815260200160002080546129b490614429565b9050146129db576006600082815260200190815260200160002060006129da91906138a5565b5b50565b60006129ff8473ffffffffffffffffffffffffffffffffffffffff16612f55565b15612b58578373ffffffffffffffffffffffffffffffffffffffff1663150b7a02612a28611cc5565b8786866040518563ffffffff1660e01b8152600401612a4a9493929190615086565b6020604051808303816000875af1925050508015612a8657506040513d601f19601f82011682018060405250810190612a8391906150e7565b60015b612b08573d8060008114612ab6576040519150601f19603f3d011682016040523d82523d6000602084013e612abb565b606091505b506000815103612b00576040517f08c379a0000000000000000000000000000000000000000000000000000000008152600401612af790614f1f565b60405180910390fd5b805181602001fd5b63150b7a0260e01b7bffffffffffffffffffffffffffffffffffffffffffffffffffffffff1916817bffffffffffffffffffffffffffffffffffffffffffffffffffffffff191614915050612b5d565b600190505b949350505050565b606060405180602001604052806000815250905090565b6060612b8782611c7a565b6000612b91612b65565b90506000815111612bb15760405180602001604052806000815250612bdc565b80612bbb84612f78565b604051602001612bcc929190614f7b565b6040516020818303038152906040525b915050919050565b612bee8383613046565b612bfb60008484846129de565b612c3a576040517f08c379a0000000000000000000000000000000000000000000000000000000008152600401612c3190614f1f565b60405180910390fd5b505050565b60007f01ffc9a7000000000000000000000000000000000000000000000000000000007bffffffffffffffffffffffffffffffffffffffffffffffffffffffff1916827bffffffffffffffffffffffffffffffffffffffffffffffffffffffff1916149050919050565b612cb584848484613263565b6001811115612cf9576040517f08c379a0000000000000000000000000000000000000000000000000000000008152600401612cf090615186565b60405180910390fd5b6000829050600073ffffffffffffffffffffffffffffffffffffffff168573ffffffffffffffffffffffffffffffffffffffff1603612d4057612d3b81613389565b612d7f565b8373ffffffffffffffffffffffffffffffffffffffff168573ffffffffffffffffffffffffffffffffffffffff1614612d7e57612d7d85826133d2565b5b5b600073ffffffffffffffffffffffffffffffffffffffff168473ffffffffffffffffffffffffffffffffffffffff1603612dc157612dbc8161353f565b612e00565b8473ffffffffffffffffffffffffffffffffffffffff168473ffffffffffffffffffffffffffffffffffffffff1614612dff57612dfe8482613610565b5b5b5050505050565b6000612e128261125a565b9050612e22816000846001612973565b612e2b8261125a565b90506004600083815260200190815260200160002060006101000a81549073ffffffffffffffffffffffffffffffffffffffff02191690556001600360008373ffffffffffffffffffffffffffffffffffffffff1673ffffffffffffffffffffffffffffffffffffffff168152602001908152602001600020600082825403925050819055506002600083815260200190815260200160002060006101000a81549073ffffffffffffffffffffffffffffffffffffffff021916905581600073ffffffffffffffffffffffffffffffffffffffff168273ffffffffffffffffffffffffffffffffffffffff167fddf252ad1be2c89b69c2b068fc378daa952ba7f163c4a11628f55a4df523b3ef60405160405180910390a4612f51816000846001612985565b5050565b6000808273ffffffffffffffffffffffffffffffffffffffff163b119050919050565b606060006001612f878461368f565b01905060008167ffffffffffffffff811115612fa657612fa5613d15565b5b6040519080825280601f01601f191660200182016040528015612fd85781602001600182028036833780820191505090505b509050600082602001820190505b60011561303b578080600190039150507f3031323334353637383961626364656600000000000000000000000000000000600a86061a8153600a858161302f5761302e6151a6565b5b04945060008503612fe6575b819350505050919050565b600073ffffffffffffffffffffffffffffffffffffffff168273ffffffffffffffffffffffffffffffffffffffff16036130b5576040517f08c379a00000000000000000000000000000000000000000000000000000000081526004016130ac90615221565b60405180910390fd5b6130be81612932565b156130fe576040517f08c379a00000000000000000000000000000000000000000000000000000000081526004016130f59061528d565b60405180910390fd5b61310c600083836001612973565b61311581612932565b15613155576040517f08c379a000000000000000000000000000000000000000000000000000000000815260040161314c9061528d565b60405180910390fd5b6001600360008473ffffffffffffffffffffffffffffffffffffffff1673ffffffffffffffffffffffffffffffffffffffff16815260200190815260200160002060008282540192505081905550816002600083815260200190815260200160002060006101000a81548173ffffffffffffffffffffffffffffffffffffffff021916908373ffffffffffffffffffffffffffffffffffffffff160217905550808273ffffffffffffffffffffffffffffffffffffffff16600073ffffffffffffffffffffffffffffffffffffffff167fddf252ad1be2c89b69c2b068fc378daa952ba7f163c4a11628f55a4df523b3ef60405160405180910390a461325f600083836001612985565b5050565b600181111561338357600073ffffffffffffffffffffffffffffffffffffffff168473ffffffffffffffffffffffffffffffffffffffff16146132f75780600360008673ffffffffffffffffffffffffffffffffffffffff1673ffffffffffffffffffffffffffffffffffffffff16815260200190815260200160002060008282546132ef9190614beb565b925050819055505b600073ffffffffffffffffffffffffffffffffffffffff168373ffffffffffffffffffffffffffffffffffffffff16146133825780600360008573ffffffffffffffffffffffffffffffffffffffff1673ffffffffffffffffffffffffffffffffffffffff168152602001908152602001600020600082825461337a91906152ad565b925050819055505b5b50505050565b600980549050600a600083815260200190815260200160002081905550600981908060018154018082558091505060019003906000526020600020016000909190919091505550565b600060016133df846112e0565b6133e99190614beb565b90506000600860008481526020019081526020016000205490508181146134ce576000600760008673ffffffffffffffffffffffffffffffffffffffff1673ffffffffffffffffffffffffffffffffffffffff168152602001908152602001600020600084815260200190815260200160002054905080600760008773ffffffffffffffffffffffffffffffffffffffff1673ffffffffffffffffffffffffffffffffffffffff168152602001908152602001600020600084815260200190815260200160002081905550816008600083815260200190815260200160002081905550505b6008600084815260200190815260200160002060009055600760008573ffffffffffffffffffffffffffffffffffffffff1673ffffffffffffffffffffffffffffffffffffffff16815260200190815260200160002060008381526020019081526020016000206000905550505050565b600060016009805490506135539190614beb565b90506000600a600084815260200190815260200160002054905060006009838154811061358357613582614610565b5b9060005260206000200154905080600983815481106135a5576135a4614610565b5b906000526020600020018190555081600a600083815260200190815260200160002081905550600a60008581526020019081526020016000206000905560098054806135f4576135f36152e1565b5b6001900381819060005260206000200160009055905550505050565b600061361b836112e0565b905081600760008573ffffffffffffffffffffffffffffffffffffffff1673ffffffffffffffffffffffffffffffffffffffff168152602001908152602001600020600083815260200190815260200160002081905550806008600084815260200190815260200160002081905550505050565b600080600090507a184f03e93ff9f4daa797ed6e38ed64bf6a1f01000000000000000083106136ed577a184f03e93ff9f4daa797ed6e38ed64bf6a1f01000000000000000083816136e3576136e26151a6565b5b0492506040810190505b6d04ee2d6d415b85acef8100000000831061372a576d04ee2d6d415b85acef810000000083816137205761371f6151a6565b5b0492506020810190505b662386f26fc10000831061375957662386f26fc10000838161374f5761374e6151a6565b5b0492506010810190505b6305f5e1008310613782576305f5e1008381613778576137776151a6565b5b0492506008810190505b61271083106137a757612710838161379d5761379c6151a6565b5b0492506004810190505b606483106137ca57606483816137c0576137bf6151a6565b5b0492506002810190505b600a83106137d9576001810190505b80915050919050565b82805482825590600052602060002090810192821561385b579160200282015b8281111561385a5782518260006101000a81548173ffffffffffffffffffffffffffffffffffffffff021916908373ffffffffffffffffffffffffffffffffffffffff16021790555091602001919060010190613802565b5b50905061386891906138e5565b5090565b604051806060016040528060008152602001600015158152602001600073ffffffffffffffffffffffffffffffffffffffff1681525090565b5080546138b190614429565b6000825580601f106138c357506138e2565b601f0160209004906000526020600020908101906138e191906138e5565b5b50565b5b808211156138fe5760008160009055506001016138e6565b5090565b6000604051905090565b600080fd5b600080fd5b60007fffffffff0000000000000000000000000000000000000000000000000000000082169050919050565b61394b81613916565b811461395657600080fd5b50565b60008135905061396881613942565b92915050565b6000602082840312156139845761398361390c565b5b600061399284828501613959565b91505092915050565b60008115159050919050565b6139b08161399b565b82525050565b60006020820190506139cb60008301846139a7565b92915050565b600081519050919050565b600082825260208201905092915050565b60005b83811015613a0b5780820151818401526020810190506139f0565b60008484015250505050565b6000601f19601f8301169050919050565b6000613a33826139d1565b613a3d81856139dc565b9350613a4d8185602086016139ed565b613a5681613a17565b840191505092915050565b60006020820190508181036000830152613a7b8184613a28565b905092915050565b6000819050919050565b613a9681613a83565b8114613aa157600080fd5b50565b600081359050613ab381613a8d565b92915050565b600060208284031215613acf57613ace61390c565b5b6000613add84828501613aa4565b91505092915050565b600073ffffffffffffffffffffffffffffffffffffffff82169050919050565b6000613b1182613ae6565b9050919050565b613b2181613b06565b82525050565b6000602082019050613b3c6000830184613b18565b92915050565b613b4b81613b06565b8114613b5657600080fd5b50565b600081359050613b6881613b42565b92915050565b60008060408385031215613b8557613b8461390c565b5b6000613b9385828601613b59565b9250506020613ba485828601613aa4565b9150509250929050565b600080600060608486031215613bc757613bc661390c565b5b6000613bd586828701613b59565b9350506020613be686828701613b59565b9250506040613bf786828701613aa4565b9150509250925092565b613c0a81613a83565b82525050565b6000602082019050613c256000830184613c01565b92915050565b600081519050919050565b600082825260208201905092915050565b6000819050602082019050919050565b613c6081613b06565b82525050565b6000613c728383613c57565b60208301905092915050565b6000602082019050919050565b6000613c9682613c2b565b613ca08185613c36565b9350613cab83613c47565b8060005b83811015613cdc578151613cc38882613c66565b9750613cce83613c7e565b925050600181019050613caf565b5085935050505092915050565b60006020820190508181036000830152613d038184613c8b565b905092915050565b600080fd5b600080fd5b7f4e487b7100000000000000000000000000000000000000000000000000000000600052604160045260246000fd5b613d4d82613a17565b810181811067ffffffffffffffff82111715613d6c57613d6b613d15565b5b80604052505050565b6000613d7f613902565b9050613d8b8282613d44565b919050565b600067ffffffffffffffff821115613dab57613daa613d15565b5b613db482613a17565b9050602081019050919050565b82818337600083830152505050565b6000613de3613dde84613d90565b613d75565b905082815260208101848484011115613dff57613dfe613d10565b5b613e0a848285613dc1565b509392505050565b600082601f830112613e2757613e26613d0b565b5b8135613e37848260208601613dd0565b91505092915050565b60008060408385031215613e5757613e5661390c565b5b6000613e6585828601613aa4565b925050602083013567ffffffffffffffff811115613e8657613e85613911565b5b613e9285828601613e12565b9150509250929050565b600060208284031215613eb257613eb161390c565b5b6000613ec084828501613b59565b91505092915050565b6000819050919050565b613edc81613ec9565b82525050565b6000602082019050613ef76000830184613ed3565b92915050565b613f068161399b565b8114613f1157600080fd5b50565b600081359050613f2381613efd565b92915050565b60008060408385031215613f4057613f3f61390c565b5b6000613f4e85828601613b59565b9250506020613f5f85828601613f14565b9150509250929050565b600067ffffffffffffffff821115613f8457613f83613d15565b5b613f8d82613a17565b9050602081019050919050565b6000613fad613fa884613f69565b613d75565b905082815260208101848484011115613fc957613fc8613d10565b5b613fd4848285613dc1565b509392505050565b600082601f830112613ff157613ff0613d0b565b5b8135614001848260208601613f9a565b91505092915050565b600080600080608085870312156140245761402361390c565b5b600061403287828801613b59565b945050602061404387828801613b59565b935050604061405487828801613aa4565b925050606085013567ffffffffffffffff81111561407557614074613911565b5b61408187828801613fdc565b91505092959194509250565b600067ffffffffffffffff8211156140a8576140a7613d15565b5b602082029050602081019050919050565b600080fd5b60006140d16140cc8461408d565b613d75565b905080838252602082019050602084028301858111156140f4576140f36140b9565b5b835b8181101561411d57806141098882613b59565b8452602084019350506020810190506140f6565b5050509392505050565b600082601f83011261413c5761413b613d0b565b5b813561414c8482602086016140be565b91505092915050565b6000806040838503121561416c5761416b61390c565b5b600061417a85828601613b59565b925050602083013567ffffffffffffffff81111561419b5761419a613911565b5b6141a785828601614127565b9150509250929050565b6000806000606084860312156141ca576141c961390c565b5b60006141d886828701613b59565b93505060206141e986828701613aa4565b925050604084013567ffffffffffffffff81111561420a57614209613911565b5b61421686828701613e12565b9150509250925092565b600067ffffffffffffffff82111561423b5761423a613d15565b5b602082029050602081019050919050565b600061425f61425a84614220565b613d75565b90508083825260208201905060208402830185811115614282576142816140b9565b5b835b818110156142ab57806142978882613aa4565b845260208401935050602081019050614284565b5050509392505050565b600082601f8301126142ca576142c9613d0b565b5b81356142da84826020860161424c565b91505092915050565b600080604083850312156142fa576142f961390c565b5b600061430885828601613aa4565b925050602083013567ffffffffffffffff81111561432957614328613911565b5b614335858286016142b5565b9150509250929050565b61434881613a83565b82525050565b6143578161399b565b82525050565b606082016000820151614373600085018261433f565b506020820151614386602085018261434e565b5060408201516143996040850182613c57565b50505050565b60006060820190506143b4600083018461435d565b92915050565b600080604083850312156143d1576143d061390c565b5b60006143df85828601613b59565b92505060206143f085828601613b59565b9150509250929050565b7f4e487b7100000000000000000000000000000000000000000000000000000000600052602260045260246000fd5b6000600282049050600182168061444157607f821691505b602082108103614454576144536143fa565b5b50919050565b7f4552433732313a20617070726f76616c20746f2063757272656e74206f776e6560008201527f7200000000000000000000000000000000000000000000000000000000000000602082015250565b60006144b66021836139dc565b91506144c18261445a565b604082019050919050565b600060208201905081810360008301526144e5816144a9565b9050919050565b7f4552433732313a20617070726f76652063616c6c6572206973206e6f7420746f60008201527f6b656e206f776e6572206f7220617070726f76656420666f7220616c6c000000602082015250565b6000614548603d836139dc565b9150614553826144ec565b604082019050919050565b600060208201905081810360008301526145778161453b565b9050919050565b7f4552433732313a2063616c6c6572206973206e6f7420746f6b656e206f776e6560008201527f72206f7220617070726f76656400000000000000000000000000000000000000602082015250565b60006145da602d836139dc565b91506145e58261457e565b604082019050919050565b60006020820190508181036000830152614609816145cd565b9050919050565b7f4e487b7100000000000000000000000000000000000000000000000000000000600052603260045260246000fd5b7f4e487b7100000000000000000000000000000000000000000000000000000000600052601160045260246000fd5b600061467982613a83565b91507fffffffffffffffffffffffffffffffffffffffffffffffffffffffffffffffff82036146ab576146aa61463f565b5b600182019050919050565b7f455243373231456e756d657261626c653a206f776e657220696e646578206f7560008201527f74206f6620626f756e6473000000000000000000000000000000000000000000602082015250565b6000614712602b836139dc565b915061471d826146b6565b604082019050919050565b6000602082019050818103600083015261474181614705565b9050919050565b60008190508160005260206000209050919050565b60006020601f8301049050919050565b600082821b905092915050565b6000600883026147aa7fffffffffffffffffffffffffffffffffffffffffffffffffffffffffffffffff8261476d565b6147b4868361476d565b95508019841693508086168417925050509392505050565b6000819050919050565b60006147f16147ec6147e784613a83565b6147cc565b613a83565b9050919050565b6000819050919050565b61480b836147d6565b61481f614817826147f8565b84845461477a565b825550505050565b600090565b614834614827565b61483f818484614802565b505050565b5b818110156148635761485860008261482c565b600181019050614845565b5050565b601f8211156148a85761487981614748565b6148828461475d565b81016020851015614891578190505b6148a561489d8561475d565b830182614844565b50505b505050565b600082821c905092915050565b60006148cb600019846008026148ad565b1980831691505092915050565b60006148e483836148ba565b9150826002028217905092915050565b6148fd826139d1565b67ffffffffffffffff81111561491657614915613d15565b5b6149208254614429565b61492b828285614867565b600060209050601f83116001811461495e576000841561494c578287015190505b61495685826148d8565b8655506149be565b601f19841661496c86614748565b60005b828110156149945784890151825560018201915060208501945060208101905061496f565b868310156149b157848901516149ad601f8916826148ba565b8355505b6001600288020188555050505b505050505050565b7f455243373231456e756d657261626c653a20676c6f62616c20696e646578206f60008201527f7574206f6620626f756e64730000000000000000000000000000000000000000602082015250565b6000614a22602c836139dc565b9150614a2d826149c6565b604082019050919050565b60006020820190508181036000830152614a5181614a15565b9050919050565b7f4552433732313a20696e76616c696420746f6b656e2049440000000000000000600082015250565b6000614a8e6018836139dc565b9150614a9982614a58565b602082019050919050565b60006020820190508181036000830152614abd81614a81565b9050919050565b7f4552433732313a2061646472657373207a65726f206973206e6f74206120766160008201527f6c6964206f776e65720000000000000000000000000000000000000000000000602082015250565b6000614b206029836139dc565b9150614b2b82614ac4565b604082019050919050565b60006020820190508181036000830152614b4f81614b13565b9050919050565b60008160601b9050919050565b6000614b6e82614b56565b9050919050565b6000614b8082614b63565b9050919050565b614b98614b9382613b06565b614b75565b82525050565b6000819050919050565b614bb9614bb482613a83565b614b9e565b82525050565b6000614bcb8285614b87565b601482019150614bdb8284614ba8565b6020820191508190509392505050565b6000614bf682613a83565b9150614c0183613a83565b9250828203905081811115614c1957614c1861463f565b5b92915050565b7f4f776e61626c653a206e6577206f776e657220697320746865207a65726f206160008201527f6464726573730000000000000000000000000000000000000000000000000000602082015250565b6000614c7b6026836139dc565b9150614c8682614c1f565b604082019050919050565b60006020820190508181036000830152614caa81614c6e565b9050919050565b7f4552433732313a207472616e736665722066726f6d20696e636f72726563742060008201527f6f776e6572000000000000000000000000000000000000000000000000000000602082015250565b6000614d0d6025836139dc565b9150614d1882614cb1565b604082019050919050565b60006020820190508181036000830152614d3c81614d00565b9050919050565b7f4552433732313a207472616e7366657220746f20746865207a65726f2061646460008201527f7265737300000000000000000000000000000000000000000000000000000000602082015250565b6000614d9f6024836139dc565b9150614daa82614d43565b604082019050919050565b60006020820190508181036000830152614dce81614d92565b9050919050565b7f4f776e61626c653a2063616c6c6572206973206e6f7420746865206f776e6572600082015250565b6000614e0b6020836139dc565b9150614e1682614dd5565b602082019050919050565b60006020820190508181036000830152614e3a81614dfe565b9050919050565b7f4552433732313a20617070726f766520746f2063616c6c657200000000000000600082015250565b6000614e776019836139dc565b9150614e8282614e41565b602082019050919050565b60006020820190508181036000830152614ea681614e6a565b9050919050565b7f4552433732313a207472616e7366657220746f206e6f6e20455243373231526560008201527f63656976657220696d706c656d656e7465720000000000000000000000000000602082015250565b6000614f096032836139dc565b9150614f1482614ead565b604082019050919050565b60006020820190508181036000830152614f3881614efc565b9050919050565b600081905092915050565b6000614f55826139d1565b614f5f8185614f3f565b9350614f6f8185602086016139ed565b80840191505092915050565b6000614f878285614f4a565b9150614f938284614f4a565b91508190509392505050565b7f45524337323155524953746f726167653a2055524920736574206f66206e6f6e60008201527f6578697374656e7420746f6b656e000000000000000000000000000000000000602082015250565b6000614ffb602e836139dc565b915061500682614f9f565b604082019050919050565b6000602082019050818103600083015261502a81614fee565b9050919050565b600081519050919050565b600082825260208201905092915050565b600061505882615031565b615062818561503c565b93506150728185602086016139ed565b61507b81613a17565b840191505092915050565b600060808201905061509b6000830187613b18565b6150a86020830186613b18565b6150b56040830185613c01565b81810360608301526150c7818461504d565b905095945050505050565b6000815190506150e181613942565b92915050565b6000602082840312156150fd576150fc61390c565b5b600061510b848285016150d2565b91505092915050565b7f455243373231456e756d657261626c653a20636f6e736563757469766520747260008201527f616e7366657273206e6f7420737570706f727465640000000000000000000000602082015250565b60006151706035836139dc565b915061517b82615114565b604082019050919050565b6000602082019050818103600083015261519f81615163565b9050919050565b7f4e487b7100000000000000000000000000000000000000000000000000000000600052601260045260246000fd5b7f4552433732313a206d696e7420746f20746865207a65726f2061646472657373600082015250565b600061520b6020836139dc565b9150615216826151d5565b602082019050919050565b6000602082019050818103600083015261523a816151fe565b9050919050565b7f4552433732313a20746f6b656e20616c7265616479206d696e74656400000000600082015250565b6000615277601c836139dc565b915061528282615241565b602082019050919050565b600060208201905081810360008301526152a68161526a565b9050919050565b60006152b882613a83565b91506152c383613a83565b92508282019050808211156152db576152da61463f565b5b92915050565b7f4e487b7100000000000000000000000000000000000000000000000000000000600052603160045260246000fdfea2646970667358221220e95336b06d3488b7febbe51dac074d0460cf933da5eaf3749888a33a3fa9b17164736f6c63430008110033",
  "immutableReferences": {},
  "source": "// SPDX-License-Identifier: MIT\r\npragma solidity >=0.4.22 <0.9.0;\r\n\r\nimport \"@openzeppelin/contracts/token/ERC721/ERC721.sol\";\r\nimport \"@openzeppelin/contracts/token/ERC721/extensions/ERC721URIStorage.sol\";\r\nimport \"@openzeppelin/contracts/token/ERC721/extensions/ERC721Burnable.sol\";\r\nimport \"@openzeppelin/contracts/access/Ownable.sol\";\r\nimport \"@openzeppelin/contracts/token/ERC721/extensions/ERC721Enumerable.sol\";\r\nimport \"../Utils.sol\";\r\n\r\ncontract LandToken is ERC721, ERC721URIStorage, ERC721Enumerable, ERC721Burnable, Ownable, Utils {\r\n\r\n    struct TokenOwnerStruct {\r\n        uint256 tokenId;\r\n        bool isShared;\r\n        address[] sharedOwners;\r\n    }\r\n    mapping(bytes32 => TokenOwnerStruct) TokenOwner;\r\n\r\n    struct TokenSharedOwnerStruct {\r\n        uint256 tokenId;\r\n        bool isSharing;\r\n        address originalOwner;\r\n    }\r\n    mapping(bytes32 => TokenSharedOwnerStruct) TokenSharedOwner;\r\n\r\n    mapping(uint256 => mapping(address => mapping(address => string))) documentMapping;\r\n\r\n    address private newOwner;\r\n    address private oldOwner;\r\n\r\n    constructor() ERC721(\"LandToken\", \"LTT\") {}\r\n\r\n    function _beforeTokenTransfer(address from, address to, uint256 tokenId, uint256 batchSize) internal override(ERC721, ERC721Enumerable) {\r\n        super._beforeTokenTransfer(from, to, tokenId, batchSize);\r\n    }\r\n\r\n    function supportsInterface(bytes4 interfaceId) public view override(ERC721, ERC721Enumerable) returns (bool) {\r\n        return super.supportsInterface(interfaceId);\r\n    }\r\n\r\n    function safeMint(address to, uint256 tokenId, string memory uri) public {\r\n         _safeMint(to, tokenId);  _setTokenURI(tokenId, uri);\r\n        \r\n        address[] memory emptyArray;\r\n        bytes32 ownerToken = hashTokenAddress(to,tokenId);\r\n        TokenOwner[ownerToken] = TokenOwnerStruct(tokenId,false,emptyArray);\r\n    }\r\n\r\n\r\n    function sharedTokenOwner(address sharedOwner, uint256 tokenId) public view returns(TokenSharedOwnerStruct memory) {\r\n        bytes32 ownerToken = hashTokenAddress(sharedOwner,tokenId);\r\n        return TokenSharedOwner[ownerToken];\r\n    }\r\n\r\n    function sharedOwnerList(address owner, uint256 tokenId) public view returns(address[] memory) {\r\n        bytes32 ownerToken = hashTokenAddress(owner,tokenId);\r\n        return TokenOwner[ownerToken].sharedOwners;\r\n    }\r\n\r\n    // The following functions are overrides required by Solidity.\r\n\r\n    function _burn(uint256 tokenId) internal override(ERC721, ERC721URIStorage) {\r\n        address owner = ownerOf(tokenId);\r\n        bytes32 ownerToken = hashTokenAddress(owner,tokenId);\r\n        address[] memory sharedOwners = TokenOwner[ownerToken].sharedOwners;\r\n\r\n        for(uint i=0; i<sharedOwners.length; i++) {\r\n            bytes32 sharedToken = hashTokenAddress(sharedOwners[i],tokenId);\r\n            TokenSharedOwner[sharedToken] = TokenSharedOwnerStruct(10000000000,false,address(0));\r\n        }\r\n\r\n        address[] memory emptyArray;\r\n        TokenOwner[ownerToken] = TokenOwnerStruct(10000000000,false,emptyArray);\r\n\r\n        super._burn(tokenId);\r\n    }\r\n\r\n    function tokenURI(uint256 tokenId) public view override(ERC721, ERC721URIStorage) returns (string memory) {\r\n        return super.tokenURI(tokenId);\r\n    }\r\n\r\n    function setSharedOwners(address owner, address sharedOwner, uint256 tokenId) public {\r\n        require(_isApprovedOrOwner(_msgSender(), tokenId), \"ERC721: caller is not token owner or approved\");\r\n        \r\n        bytes32 ownerToken = hashTokenAddress(owner,tokenId);\r\n\r\n        bytes32 sharedToken = hashTokenAddress(sharedOwner,tokenId);\r\n        TokenOwner[ownerToken].sharedOwners.push(sharedOwner);\r\n        TokenSharedOwner[sharedToken] = TokenSharedOwnerStruct(tokenId,true,owner);\r\n        \r\n    }\r\n\r\n    function deleteSharedOwners(address owner, address sharedOwner, uint256 tokenId) public {\r\n        require(_isApprovedOrOwner(_msgSender(), tokenId), \"ERC721: caller is not token owner or approved\");\r\n\r\n        bytes32 ownerToken = hashTokenAddress(owner,tokenId);\r\n        address[] memory sharedOwners = TokenOwner[ownerToken].sharedOwners;\r\n\r\n        bytes32 sharedToken = hashTokenAddress(sharedOwner, tokenId);\r\n        TokenSharedOwner[sharedToken] = TokenSharedOwnerStruct(10000000000,false,address(0));\r\n\r\n        address[] memory outputArray = new address[](sharedOwners.length-1);\r\n\r\n        for(uint i = 0; i < sharedOwners.length; i++) {\r\n            uint j = 0;\r\n            if (sharedOwners[i] != sharedOwner) {\r\n                outputArray[j] = sharedOwners[i];\r\n                j++;\r\n            }\r\n        }\r\n\r\n        TokenOwner[ownerToken].sharedOwners = outputArray;\r\n\r\n    }\r\n\r\n    function transferFrom(address from, address to, uint256 tokenId) public override(ERC721, IERC721) {\r\n        require(_isApprovedOrOwner(_msgSender(), tokenId), \"ERC721: caller is not token owner or approved\");\r\n        _transfer(from, to, tokenId);\r\n\r\n        bytes32 ownerToken = hashTokenAddress(from,tokenId);\r\n        address[] memory sharedOwners = TokenOwner[ownerToken].sharedOwners;\r\n\r\n        for(uint i=0; i<sharedOwners.length; i++) {\r\n            bytes32 sharedToken = hashTokenAddress(sharedOwners[i],tokenId);\r\n            TokenSharedOwner[sharedToken] = TokenSharedOwnerStruct(10000000000,false,address(0));\r\n        }\r\n\r\n        address[] memory emptyArray;\r\n        TokenOwner[ownerToken] = TokenOwnerStruct(10000000000,false,emptyArray);\r\n\r\n        bytes32 newOwnerToken = hashTokenAddress(to,tokenId);\r\n        TokenOwner[newOwnerToken] = TokenOwnerStruct(tokenId,false,emptyArray);\r\n    }\r\n\r\n    function setNewOwner(address user) public {\r\n        newOwner = user;\r\n    }\r\n\r\n    function transferAgreementDocument(uint256 tokenId, string memory document) public {\r\n        require(_isApprovedOrOwner(_msgSender(), tokenId), \"ERC721: caller is not token owner or approved\");\r\n\r\n        oldOwner = ownerOf(tokenId);\r\n        documentMapping[tokenId][newOwner][oldOwner] = document;\r\n    }\r\n\r\n    function retrieveTransferDocument(uint256 tokenId) public view returns (string memory) {\r\n        return documentMapping[tokenId][newOwner][oldOwner];\r\n    }\r\n    \r\n}\r\n",
  "sourcePath": "C:\\Users\\hp\\Desktop\\University Stuff\\FYP\\blockestate-next\\contracts\\tokens\\LandToken.sol",
  "compiler": {
    "name": "solc",
    "version": "0.8.17+commit.8df45f5f.Emscripten.clang"
  },
  "schemaVersion": "3.4.10",
  "updatedAt": "2023-04-20T14:58:01.028Z",
  "networkType": "ethereum",
  "devdoc": {
    "kind": "dev",
    "methods": {
      "approve(address,uint256)": {
        "details": "See {IERC721-approve}."
      },
      "balanceOf(address)": {
        "details": "See {IERC721-balanceOf}."
      },
      "burn(uint256)": {
        "details": "Burns `tokenId`. See {ERC721-_burn}. Requirements: - The caller must own `tokenId` or be an approved operator."
      },
      "getApproved(uint256)": {
        "details": "See {IERC721-getApproved}."
      },
      "isApprovedForAll(address,address)": {
        "details": "See {IERC721-isApprovedForAll}."
      },
      "name()": {
        "details": "See {IERC721Metadata-name}."
      },
      "owner()": {
        "details": "Returns the address of the current owner."
      },
      "ownerOf(uint256)": {
        "details": "See {IERC721-ownerOf}."
      },
      "renounceOwnership()": {
        "details": "Leaves the contract without owner. It will not be possible to call `onlyOwner` functions anymore. Can only be called by the current owner. NOTE: Renouncing ownership will leave the contract without an owner, thereby removing any functionality that is only available to the owner."
      },
      "safeTransferFrom(address,address,uint256)": {
        "details": "See {IERC721-safeTransferFrom}."
      },
      "safeTransferFrom(address,address,uint256,bytes)": {
        "details": "See {IERC721-safeTransferFrom}."
      },
      "setApprovalForAll(address,bool)": {
        "details": "See {IERC721-setApprovalForAll}."
      },
      "symbol()": {
        "details": "See {IERC721Metadata-symbol}."
      },
      "tokenByIndex(uint256)": {
        "details": "See {IERC721Enumerable-tokenByIndex}."
      },
      "tokenOfOwnerByIndex(address,uint256)": {
        "details": "See {IERC721Enumerable-tokenOfOwnerByIndex}."
      },
      "totalSupply()": {
        "details": "See {IERC721Enumerable-totalSupply}."
      },
      "transferOwnership(address)": {
        "details": "Transfers ownership of the contract to a new account (`newOwner`). Can only be called by the current owner."
      }
    },
    "version": 1
  },
  "userdoc": {
    "kind": "user",
    "methods": {},
    "version": 1
  }
}