{
  "contractName": "LandToken",
  "abi": [
    {
      "inputs": [],
      "stateMutability": "nonpayable",
      "type": "constructor"
    },
    {
      "anonymous": false,
      "inputs": [
        {
          "indexed": true,
          "internalType": "address",
          "name": "owner",
          "type": "address"
        },
        {
          "indexed": true,
          "internalType": "address",
          "name": "approved",
          "type": "address"
        },
        {
          "indexed": true,
          "internalType": "uint256",
          "name": "tokenId",
          "type": "uint256"
        }
      ],
      "name": "Approval",
      "type": "event"
    },
    {
      "anonymous": false,
      "inputs": [
        {
          "indexed": true,
          "internalType": "address",
          "name": "owner",
          "type": "address"
        },
        {
          "indexed": true,
          "internalType": "address",
          "name": "operator",
          "type": "address"
        },
        {
          "indexed": false,
          "internalType": "bool",
          "name": "approved",
          "type": "bool"
        }
      ],
      "name": "ApprovalForAll",
      "type": "event"
    },
    {
      "anonymous": false,
      "inputs": [
        {
          "indexed": true,
          "internalType": "address",
          "name": "previousOwner",
          "type": "address"
        },
        {
          "indexed": true,
          "internalType": "address",
          "name": "newOwner",
          "type": "address"
        }
      ],
      "name": "OwnershipTransferred",
      "type": "event"
    },
    {
      "anonymous": false,
      "inputs": [
        {
          "indexed": true,
          "internalType": "address",
          "name": "from",
          "type": "address"
        },
        {
          "indexed": true,
          "internalType": "address",
          "name": "to",
          "type": "address"
        },
        {
          "indexed": true,
          "internalType": "uint256",
          "name": "tokenId",
          "type": "uint256"
        }
      ],
      "name": "Transfer",
      "type": "event"
    },
    {
      "inputs": [
        {
          "internalType": "address",
          "name": "to",
          "type": "address"
        },
        {
          "internalType": "uint256",
          "name": "tokenId",
          "type": "uint256"
        }
      ],
      "name": "approve",
      "outputs": [],
      "stateMutability": "nonpayable",
      "type": "function"
    },
    {
      "inputs": [
        {
          "internalType": "address",
          "name": "owner",
          "type": "address"
        }
      ],
      "name": "balanceOf",
      "outputs": [
        {
          "internalType": "uint256",
          "name": "",
          "type": "uint256"
        }
      ],
      "stateMutability": "view",
      "type": "function",
      "constant": true
    },
    {
      "inputs": [
        {
          "internalType": "uint256",
          "name": "tokenId",
          "type": "uint256"
        }
      ],
      "name": "burn",
      "outputs": [],
      "stateMutability": "nonpayable",
      "type": "function"
    },
    {
      "inputs": [
        {
          "internalType": "uint256",
          "name": "tokenId",
          "type": "uint256"
        }
      ],
      "name": "getApproved",
      "outputs": [
        {
          "internalType": "address",
          "name": "",
          "type": "address"
        }
      ],
      "stateMutability": "view",
      "type": "function",
      "constant": true
    },
    {
      "inputs": [
        {
          "internalType": "address",
          "name": "_address",
          "type": "address"
        },
        {
          "internalType": "uint256",
          "name": "_tokenId",
          "type": "uint256"
        }
      ],
      "name": "hashTokenAddress",
      "outputs": [
        {
          "internalType": "bytes32",
          "name": "",
          "type": "bytes32"
        }
      ],
      "stateMutability": "pure",
      "type": "function",
      "constant": true
    },
    {
      "inputs": [
        {
          "internalType": "address",
          "name": "checkAddress",
          "type": "address"
        },
        {
          "internalType": "address[]",
          "name": "arrayAddress",
          "type": "address[]"
        }
      ],
      "name": "indexOfAddress",
      "outputs": [
        {
          "internalType": "bool",
          "name": "",
          "type": "bool"
        }
      ],
      "stateMutability": "pure",
      "type": "function",
      "constant": true
    },
    {
      "inputs": [
        {
          "internalType": "uint256",
          "name": "checkTokenId",
          "type": "uint256"
        },
        {
          "internalType": "uint256[]",
          "name": "arrayTokenId",
          "type": "uint256[]"
        }
      ],
      "name": "indexOfTokenId",
      "outputs": [
        {
          "internalType": "bool",
          "name": "",
          "type": "bool"
        }
      ],
      "stateMutability": "pure",
      "type": "function",
      "constant": true
    },
    {
      "inputs": [
        {
          "internalType": "address",
          "name": "owner",
          "type": "address"
        },
        {
          "internalType": "address",
          "name": "operator",
          "type": "address"
        }
      ],
      "name": "isApprovedForAll",
      "outputs": [
        {
          "internalType": "bool",
          "name": "",
          "type": "bool"
        }
      ],
      "stateMutability": "view",
      "type": "function",
      "constant": true
    },
    {
      "inputs": [],
      "name": "name",
      "outputs": [
        {
          "internalType": "string",
          "name": "",
          "type": "string"
        }
      ],
      "stateMutability": "view",
      "type": "function",
      "constant": true
    },
    {
      "inputs": [],
      "name": "owner",
      "outputs": [
        {
          "internalType": "address",
          "name": "",
          "type": "address"
        }
      ],
      "stateMutability": "view",
      "type": "function",
      "constant": true
    },
    {
      "inputs": [
        {
          "internalType": "uint256",
          "name": "tokenId",
          "type": "uint256"
        }
      ],
      "name": "ownerOf",
      "outputs": [
        {
          "internalType": "address",
          "name": "",
          "type": "address"
        }
      ],
      "stateMutability": "view",
      "type": "function",
      "constant": true
    },
    {
      "inputs": [],
      "name": "renounceOwnership",
      "outputs": [],
      "stateMutability": "nonpayable",
      "type": "function"
    },
    {
      "inputs": [
        {
          "internalType": "address",
          "name": "from",
          "type": "address"
        },
        {
          "internalType": "address",
          "name": "to",
          "type": "address"
        },
        {
          "internalType": "uint256",
          "name": "tokenId",
          "type": "uint256"
        }
      ],
      "name": "safeTransferFrom",
      "outputs": [],
      "stateMutability": "nonpayable",
      "type": "function"
    },
    {
      "inputs": [
        {
          "internalType": "address",
          "name": "from",
          "type": "address"
        },
        {
          "internalType": "address",
          "name": "to",
          "type": "address"
        },
        {
          "internalType": "uint256",
          "name": "tokenId",
          "type": "uint256"
        },
        {
          "internalType": "bytes",
          "name": "data",
          "type": "bytes"
        }
      ],
      "name": "safeTransferFrom",
      "outputs": [],
      "stateMutability": "nonpayable",
      "type": "function"
    },
    {
      "inputs": [
        {
          "internalType": "address",
          "name": "operator",
          "type": "address"
        },
        {
          "internalType": "bool",
          "name": "approved",
          "type": "bool"
        }
      ],
      "name": "setApprovalForAll",
      "outputs": [],
      "stateMutability": "nonpayable",
      "type": "function"
    },
    {
      "inputs": [
        {
          "internalType": "bytes4",
          "name": "interfaceId",
          "type": "bytes4"
        }
      ],
      "name": "supportsInterface",
      "outputs": [
        {
          "internalType": "bool",
          "name": "",
          "type": "bool"
        }
      ],
      "stateMutability": "view",
      "type": "function",
      "constant": true
    },
    {
      "inputs": [],
      "name": "symbol",
      "outputs": [
        {
          "internalType": "string",
          "name": "",
          "type": "string"
        }
      ],
      "stateMutability": "view",
      "type": "function",
      "constant": true
    },
    {
      "inputs": [
        {
          "internalType": "address",
          "name": "newOwner",
          "type": "address"
        }
      ],
      "name": "transferOwnership",
      "outputs": [],
      "stateMutability": "nonpayable",
      "type": "function"
    },
    {
      "inputs": [
        {
          "internalType": "address",
          "name": "to",
          "type": "address"
        },
        {
          "internalType": "uint256",
          "name": "tokenId",
          "type": "uint256"
        },
        {
          "internalType": "string",
          "name": "uri",
          "type": "string"
        }
      ],
      "name": "safeMint",
      "outputs": [],
      "stateMutability": "nonpayable",
      "type": "function"
    },
    {
      "inputs": [
        {
          "internalType": "address",
          "name": "to",
          "type": "address"
        },
        {
          "internalType": "uint256",
          "name": "tokenId",
          "type": "uint256"
        },
        {
          "internalType": "string",
          "name": "uri",
          "type": "string"
        },
        {
          "internalType": "address[]",
          "name": "sharedOwners",
          "type": "address[]"
        }
      ],
      "name": "safeMintShared",
      "outputs": [],
      "stateMutability": "nonpayable",
      "type": "function"
    },
    {
      "inputs": [
        {
          "internalType": "address",
          "name": "sharedOwner",
          "type": "address"
        },
        {
          "internalType": "uint256",
          "name": "tokenId",
          "type": "uint256"
        }
      ],
      "name": "sharedTokenOwner",
      "outputs": [
        {
          "components": [
            {
              "internalType": "uint256",
              "name": "tokenId",
              "type": "uint256"
            },
            {
              "internalType": "bool",
              "name": "isSharing",
              "type": "bool"
            },
            {
              "internalType": "address",
              "name": "originalOwner",
              "type": "address"
            }
          ],
          "internalType": "struct LandToken.TokenSharedOwnerStruct",
          "name": "",
          "type": "tuple"
        }
      ],
      "stateMutability": "view",
      "type": "function",
      "constant": true
    },
    {
      "inputs": [
        {
          "internalType": "address",
          "name": "owner",
          "type": "address"
        },
        {
          "internalType": "uint256",
          "name": "tokenId",
          "type": "uint256"
        }
      ],
      "name": "sharedOwnerList",
      "outputs": [
        {
          "internalType": "address[]",
          "name": "",
          "type": "address[]"
        }
      ],
      "stateMutability": "view",
      "type": "function",
      "constant": true
    },
    {
      "inputs": [
        {
          "internalType": "uint256",
          "name": "tokenId",
          "type": "uint256"
        }
      ],
      "name": "tokenURI",
      "outputs": [
        {
          "internalType": "string",
          "name": "",
          "type": "string"
        }
      ],
      "stateMutability": "view",
      "type": "function",
      "constant": true
    },
    {
      "inputs": [
        {
          "internalType": "address",
          "name": "owner",
          "type": "address"
        },
        {
          "internalType": "address[]",
          "name": "sharedOwners",
          "type": "address[]"
        },
        {
          "internalType": "uint256",
          "name": "tokenId",
          "type": "uint256"
        }
      ],
      "name": "setSharedOwners",
      "outputs": [],
      "stateMutability": "nonpayable",
      "type": "function"
    },
    {
      "inputs": [
        {
          "internalType": "address",
          "name": "from",
          "type": "address"
        },
        {
          "internalType": "address",
          "name": "to",
          "type": "address"
        },
        {
          "internalType": "uint256",
          "name": "tokenId",
          "type": "uint256"
        }
      ],
      "name": "transferFrom",
      "outputs": [],
      "stateMutability": "nonpayable",
      "type": "function"
    },
    {
      "inputs": [
        {
          "internalType": "address",
          "name": "from",
          "type": "address"
        },
        {
          "internalType": "address",
          "name": "to",
          "type": "address"
        },
        {
          "internalType": "uint256",
          "name": "tokenId",
          "type": "uint256"
        },
        {
          "internalType": "address[]",
          "name": "_sharedOwners",
          "type": "address[]"
        }
      ],
      "name": "transferFromShared",
      "outputs": [],
      "stateMutability": "nonpayable",
      "type": "function"
    }
  ],
  "bytecode": "0x60806040523480156200001157600080fd5b506040518060400160405280600981526020017f4c616e64546f6b656e00000000000000000000000000000000000000000000008152506040518060400160405280600381526020017f4c5454000000000000000000000000000000000000000000000000000000000081525081600090816200008f919062000412565b508060019081620000a1919062000412565b505050620000c4620000b8620000ca60201b60201c565b620000d260201b60201c565b620004f9565b600033905090565b6000600760009054906101000a900473ffffffffffffffffffffffffffffffffffffffff16905081600760006101000a81548173ffffffffffffffffffffffffffffffffffffffff021916908373ffffffffffffffffffffffffffffffffffffffff1602179055508173ffffffffffffffffffffffffffffffffffffffff168173ffffffffffffffffffffffffffffffffffffffff167f8be0079c531659141344cd1fd0a4f28419497f9722a3daafe3b4186f6b6457e060405160405180910390a35050565b600081519050919050565b7f4e487b7100000000000000000000000000000000000000000000000000000000600052604160045260246000fd5b7f4e487b7100000000000000000000000000000000000000000000000000000000600052602260045260246000fd5b600060028204905060018216806200021a57607f821691505b60208210810362000230576200022f620001d2565b5b50919050565b60008190508160005260206000209050919050565b60006020601f8301049050919050565b600082821b905092915050565b6000600883026200029a7fffffffffffffffffffffffffffffffffffffffffffffffffffffffffffffffff826200025b565b620002a686836200025b565b95508019841693508086168417925050509392505050565b6000819050919050565b6000819050919050565b6000620002f3620002ed620002e784620002be565b620002c8565b620002be565b9050919050565b6000819050919050565b6200030f83620002d2565b620003276200031e82620002fa565b84845462000268565b825550505050565b600090565b6200033e6200032f565b6200034b81848462000304565b505050565b5b8181101562000373576200036760008262000334565b60018101905062000351565b5050565b601f821115620003c2576200038c8162000236565b62000397846200024b565b81016020851015620003a7578190505b620003bf620003b6856200024b565b83018262000350565b50505b505050565b600082821c905092915050565b6000620003e760001984600802620003c7565b1980831691505092915050565b6000620004028383620003d4565b9150826002028217905092915050565b6200041d8262000198565b67ffffffffffffffff811115620004395762000438620001a3565b5b62000445825462000201565b6200045282828562000377565b600060209050601f8311600181146200048a576000841562000475578287015190505b620004818582620003f4565b865550620004f1565b601f1984166200049a8662000236565b60005b82811015620004c4578489015182556001820191506020850194506020810190506200049d565b86831015620004e45784890151620004e0601f891682620003d4565b8355505b6001600288020188555050505b505050505050565b614b1380620005096000396000f3fe608060405234801561001057600080fd5b506004361061018e5760003560e01c806395d89b41116100de578063c87b56dd11610097578063e26744c711610071578063e26744c7146104a3578063e2b3a689146104d3578063e985e9c5146104ef578063f2fde38b1461051f5761018e565b8063c87b56dd14610427578063cd279c7c14610457578063dfcd3082146104735761018e565b806395d89b41146103555780639a7eb9d514610373578063a12ca11d1461038f578063a22cb465146103bf578063b88d4fde146103db578063bda6b691146103f75761018e565b806341db4eaf1161014b5780636352211e116101255780636352211e146102cd57806370a08231146102fd578063715018a61461032d5780638da5cb5b146103375761018e565b806341db4eaf1461026557806342842e0e1461029557806342966c68146102b15761018e565b806301ffc9a71461019357806306fdde03146101c3578063081812fc146101e1578063095ea7b3146102115780630f1389b11461022d57806323b872dd14610249575b600080fd5b6101ad60048036038101906101a891906131eb565b61053b565b6040516101ba9190613233565b60405180910390f35b6101cb61061d565b6040516101d891906132de565b60405180910390f35b6101fb60048036038101906101f69190613336565b6106af565b60405161020891906133a4565b60405180910390f35b61022b600480360381019061022691906133eb565b6106f5565b005b61024760048036038101906102429190613573565b61080c565b005b610263600480360381019061025e91906135e2565b610a05565b005b61027f600480360381019061027a91906133eb565b610d2b565b60405161028c91906136f3565b60405180910390f35b6102af60048036038101906102aa91906135e2565b610ddf565b005b6102cb60048036038101906102c69190613336565b610dff565b005b6102e760048036038101906102e29190613336565b610e5b565b6040516102f491906133a4565b60405180910390f35b61031760048036038101906103129190613715565b610ee1565b6040516103249190613751565b60405180910390f35b610335610f98565b005b61033f610fac565b60405161034c91906133a4565b60405180910390f35b61035d610fd6565b60405161036a91906132de565b60405180910390f35b61038d6004803603810190610388919061376c565b611068565b005b6103a960048036038101906103a491906133eb565b611493565b6040516103b69190613808565b60405180910390f35b6103d960048036038101906103d4919061384f565b6114c6565b005b6103f560048036038101906103f09190613944565b6114dc565b005b610411600480360381019061040c91906139c7565b61153e565b60405161041e9190613233565b60405180910390f35b610441600480360381019061043c9190613336565b6115c5565b60405161044e91906132de565b60405180910390f35b610471600480360381019061046c9190613ac4565b6115d7565b005b61048d60048036038101906104889190613bf6565b61167d565b60405161049a9190613233565b60405180910390f35b6104bd60048036038101906104b891906133eb565b6116d8565b6040516104ca9190613cb2565b60405180910390f35b6104ed60048036038101906104e89190613ccd565b611790565b005b61050960048036038101906105049190613d6c565b611938565b6040516105169190613233565b60405180910390f35b61053960048036038101906105349190613715565b6119cc565b005b60007f80ac58cd000000000000000000000000000000000000000000000000000000007bffffffffffffffffffffffffffffffffffffffffffffffffffffffff1916827bffffffffffffffffffffffffffffffffffffffffffffffffffffffff1916148061060657507f5b5e139f000000000000000000000000000000000000000000000000000000007bffffffffffffffffffffffffffffffffffffffffffffffffffffffff1916827bffffffffffffffffffffffffffffffffffffffffffffffffffffffff1916145b80610616575061061582611a4f565b5b9050919050565b60606000805461062c90613ddb565b80601f016020809104026020016040519081016040528092919081815260200182805461065890613ddb565b80156106a55780601f1061067a576101008083540402835291602001916106a5565b820191906000526020600020905b81548152906001019060200180831161068857829003601f168201915b5050505050905090565b60006106ba82611ab9565b6004600083815260200190815260200160002060009054906101000a900473ffffffffffffffffffffffffffffffffffffffff169050919050565b600061070082610e5b565b90508073ffffffffffffffffffffffffffffffffffffffff168373ffffffffffffffffffffffffffffffffffffffff1603610770576040517f08c379a000000000000000000000000000000000000000000000000000000000815260040161076790613e7e565b60405180910390fd5b8073ffffffffffffffffffffffffffffffffffffffff1661078f611b04565b73ffffffffffffffffffffffffffffffffffffffff1614806107be57506107bd816107b8611b04565b611938565b5b6107fd576040517f08c379a00000000000000000000000000000000000000000000000000000000081526004016107f490613f10565b60405180910390fd5b6108078383611b0c565b505050565b61081d610817611b04565b82611bc5565b61085c576040517f08c379a000000000000000000000000000000000000000000000000000000000815260040161085390613fa2565b60405180910390fd5b60006108688483611493565b905060005b83518110156109fe57600061089c85838151811061088e5761088d613fc2565b5b602002602001015185611493565b9050600860008481526020019081526020016000206002018583815181106108c7576108c6613fc2565b5b60200260200101519080600181540180825580915050600190039060005260206000200160009091909190916101000a81548173ffffffffffffffffffffffffffffffffffffffff021916908373ffffffffffffffffffffffffffffffffffffffff16021790555060405180606001604052808581526020016001151581526020018773ffffffffffffffffffffffffffffffffffffffff16815250600960008381526020019081526020016000206000820151816000015560208201518160010160006101000a81548160ff02191690831515021790555060408201518160010160016101000a81548173ffffffffffffffffffffffffffffffffffffffff021916908373ffffffffffffffffffffffffffffffffffffffff1602179055509050505080806109f690614020565b91505061086d565b5050505050565b610a16610a10611b04565b82611bc5565b610a55576040517f08c379a0000000000000000000000000000000000000000000000000000000008152600401610a4c90613fa2565b60405180910390fd5b610a60838383611c5a565b6000610a6c8483611493565b9050600060086000838152602001908152602001600020600201805480602002602001604051908101604052809291908181526020018280548015610b0657602002820191906000526020600020905b8160009054906101000a900473ffffffffffffffffffffffffffffffffffffffff1673ffffffffffffffffffffffffffffffffffffffff1681526020019060010190808311610abc575b5050505050905060005b8151811015610c16576000610b3f838381518110610b3157610b30613fc2565b5b602002602001015186611493565b905060405180606001604052806402540be4008152602001600015158152602001600073ffffffffffffffffffffffffffffffffffffffff16815250600960008381526020019081526020016000206000820151816000015560208201518160010160006101000a81548160ff02191690831515021790555060408201518160010160016101000a81548173ffffffffffffffffffffffffffffffffffffffff021916908373ffffffffffffffffffffffffffffffffffffffff160217905550905050508080610c0e90614020565b915050610b10565b50606060405180606001604052806402540be400815260200160001515815260200182815250600860008581526020019081526020016000206000820151816000015560208201518160010160006101000a81548160ff0219169083151502179055506040820151816002019080519060200190610c9592919061305f565b509050506000610ca58686611493565b9050604051806060016040528086815260200160001515815260200183815250600860008381526020019081526020016000206000820151816000015560208201518160010160006101000a81548160ff0219169083151502179055506040820151816002019080519060200190610d1e92919061305f565b5090505050505050505050565b60606000610d398484611493565b905060086000828152602001908152602001600020600201805480602002602001604051908101604052809291908181526020018280548015610dd157602002820191906000526020600020905b8160009054906101000a900473ffffffffffffffffffffffffffffffffffffffff1673ffffffffffffffffffffffffffffffffffffffff1681526020019060010190808311610d87575b505050505091505092915050565b610dfa838383604051806020016040528060008152506114dc565b505050565b610e10610e0a611b04565b82611bc5565b610e4f576040517f08c379a0000000000000000000000000000000000000000000000000000000008152600401610e4690613fa2565b60405180910390fd5b610e5881611f53565b50565b600080610e67836121a9565b9050600073ffffffffffffffffffffffffffffffffffffffff168173ffffffffffffffffffffffffffffffffffffffff1603610ed8576040517f08c379a0000000000000000000000000000000000000000000000000000000008152600401610ecf906140b4565b60405180910390fd5b80915050919050565b60008073ffffffffffffffffffffffffffffffffffffffff168273ffffffffffffffffffffffffffffffffffffffff1603610f51576040517f08c379a0000000000000000000000000000000000000000000000000000000008152600401610f4890614146565b60405180910390fd5b600360008373ffffffffffffffffffffffffffffffffffffffff1673ffffffffffffffffffffffffffffffffffffffff168152602001908152602001600020549050919050565b610fa06121e6565b610faa6000612264565b565b6000600760009054906101000a900473ffffffffffffffffffffffffffffffffffffffff16905090565b606060018054610fe590613ddb565b80601f016020809104026020016040519081016040528092919081815260200182805461101190613ddb565b801561105e5780601f106110335761010080835404028352916020019161105e565b820191906000526020600020905b81548152906001019060200180831161104157829003601f168201915b5050505050905090565b611079611073611b04565b83611bc5565b6110b8576040517f08c379a00000000000000000000000000000000000000000000000000000000081526004016110af90613fa2565b60405180910390fd5b6110c3848484611c5a565b60006110cf8584611493565b905060006008600083815260200190815260200160002060020180548060200260200160405190810160405280929190818152602001828054801561116957602002820191906000526020600020905b8160009054906101000a900473ffffffffffffffffffffffffffffffffffffffff1673ffffffffffffffffffffffffffffffffffffffff168152602001906001019080831161111f575b5050505050905060005b81518110156112795760006111a283838151811061119457611193613fc2565b5b602002602001015187611493565b905060405180606001604052806402540be4008152602001600015158152602001600073ffffffffffffffffffffffffffffffffffffffff16815250600960008381526020019081526020016000206000820151816000015560208201518160010160006101000a81548160ff02191690831515021790555060408201518160010160016101000a81548173ffffffffffffffffffffffffffffffffffffffff021916908373ffffffffffffffffffffffffffffffffffffffff16021790555090505050808061127190614020565b915050611173565b50606060405180606001604052806402540be400815260200160001515815260200182815250600860008581526020019081526020016000206000820151816000015560208201518160010160006101000a81548160ff02191690831515021790555060408201518160020190805190602001906112f892919061305f565b5090505060006113088787611493565b9050604051806060016040528087815260200160011515815260200186815250600860008381526020019081526020016000206000820151816000015560208201518160010160006101000a81548160ff021916908315150217905550604082015181600201908051906020019061138192919061305f565b5090505060005b85518110156114885760006113b78783815181106113a9576113a8613fc2565b5b602002602001015189611493565b905060405180606001604052808981526020016001151581526020018a73ffffffffffffffffffffffffffffffffffffffff16815250600960008381526020019081526020016000206000820151816000015560208201518160010160006101000a81548160ff02191690831515021790555060408201518160010160016101000a81548173ffffffffffffffffffffffffffffffffffffffff021916908373ffffffffffffffffffffffffffffffffffffffff16021790555090505050808061148090614020565b915050611388565b505050505050505050565b600082826040516020016114a89291906141cf565b60405160208183030381529060405280519060200120905092915050565b6114d86114d1611b04565b838361232a565b5050565b6114ed6114e7611b04565b83611bc5565b61152c576040517f08c379a000000000000000000000000000000000000000000000000000000000815260040161152390613fa2565b60405180910390fd5b61153884848484612496565b50505050565b6000806000905060005b83518110156115ba5783818151811061156457611563613fc2565b5b602002602001015173ffffffffffffffffffffffffffffffffffffffff168573ffffffffffffffffffffffffffffffffffffffff16036115a757600191506115ba565b80806115b290614020565b915050611548565b508091505092915050565b60606115d0826124f2565b9050919050565b6115e18383612604565b6115eb8282612622565b606060006115f98585611493565b9050604051806060016040528085815260200160001515815260200183815250600860008381526020019081526020016000206000820151816000015560208201518160010160006101000a81548160ff021916908315150217905550604082015181600201908051906020019061167292919061305f565b509050505050505050565b6000806000905060005b83518110156116cd578381815181106116a3576116a2613fc2565b5b602002602001015185036116ba57600191506116cd565b80806116c590614020565b915050611687565b508091505092915050565b6116e06130e9565b60006116ec8484611493565b905060096000828152602001908152602001600020604051806060016040529081600082015481526020016001820160009054906101000a900460ff161515151581526020016001820160019054906101000a900473ffffffffffffffffffffffffffffffffffffffff1673ffffffffffffffffffffffffffffffffffffffff1673ffffffffffffffffffffffffffffffffffffffff168152505091505092915050565b61179a8484612604565b6117a48383612622565b60006117b08585611493565b9050604051806060016040528085815260200160011515815260200183815250600860008381526020019081526020016000206000820151816000015560208201518160010160006101000a81548160ff021916908315150217905550604082015181600201908051906020019061182992919061305f565b5090505060005b825181101561193057600061185f84838151811061185157611850613fc2565b5b602002602001015187611493565b905060405180606001604052808781526020016001151581526020018873ffffffffffffffffffffffffffffffffffffffff16815250600960008381526020019081526020016000206000820151816000015560208201518160010160006101000a81548160ff02191690831515021790555060408201518160010160016101000a81548173ffffffffffffffffffffffffffffffffffffffff021916908373ffffffffffffffffffffffffffffffffffffffff16021790555090505050808061192890614020565b915050611830565b505050505050565b6000600560008473ffffffffffffffffffffffffffffffffffffffff1673ffffffffffffffffffffffffffffffffffffffff16815260200190815260200160002060008373ffffffffffffffffffffffffffffffffffffffff1673ffffffffffffffffffffffffffffffffffffffff16815260200190815260200160002060009054906101000a900460ff16905092915050565b6119d46121e6565b600073ffffffffffffffffffffffffffffffffffffffff168173ffffffffffffffffffffffffffffffffffffffff1603611a43576040517f08c379a0000000000000000000000000000000000000000000000000000000008152600401611a3a9061426d565b60405180910390fd5b611a4c81612264565b50565b60007f01ffc9a7000000000000000000000000000000000000000000000000000000007bffffffffffffffffffffffffffffffffffffffffffffffffffffffff1916827bffffffffffffffffffffffffffffffffffffffffffffffffffffffff1916149050919050565b611ac28161268f565b611b01576040517f08c379a0000000000000000000000000000000000000000000000000000000008152600401611af8906140b4565b60405180910390fd5b50565b600033905090565b816004600083815260200190815260200160002060006101000a81548173ffffffffffffffffffffffffffffffffffffffff021916908373ffffffffffffffffffffffffffffffffffffffff160217905550808273ffffffffffffffffffffffffffffffffffffffff16611b7f83610e5b565b73ffffffffffffffffffffffffffffffffffffffff167f8c5be1e5ebec7d5bd14f71427d1e84f3dd0314c0f7b2291e5b200ac8c7c3b92560405160405180910390a45050565b600080611bd183610e5b565b90508073ffffffffffffffffffffffffffffffffffffffff168473ffffffffffffffffffffffffffffffffffffffff161480611c135750611c128185611938565b5b80611c5157508373ffffffffffffffffffffffffffffffffffffffff16611c39846106af565b73ffffffffffffffffffffffffffffffffffffffff16145b91505092915050565b8273ffffffffffffffffffffffffffffffffffffffff16611c7a82610e5b565b73ffffffffffffffffffffffffffffffffffffffff1614611cd0576040517f08c379a0000000000000000000000000000000000000000000000000000000008152600401611cc7906142ff565b60405180910390fd5b600073ffffffffffffffffffffffffffffffffffffffff168273ffffffffffffffffffffffffffffffffffffffff1603611d3f576040517f08c379a0000000000000000000000000000000000000000000000000000000008152600401611d3690614391565b60405180910390fd5b611d4c83838360016126d0565b8273ffffffffffffffffffffffffffffffffffffffff16611d6c82610e5b565b73ffffffffffffffffffffffffffffffffffffffff1614611dc2576040517f08c379a0000000000000000000000000000000000000000000000000000000008152600401611db9906142ff565b60405180910390fd5b6004600082815260200190815260200160002060006101000a81549073ffffffffffffffffffffffffffffffffffffffff02191690556001600360008573ffffffffffffffffffffffffffffffffffffffff1673ffffffffffffffffffffffffffffffffffffffff168152602001908152602001600020600082825403925050819055506001600360008473ffffffffffffffffffffffffffffffffffffffff1673ffffffffffffffffffffffffffffffffffffffff16815260200190815260200160002060008282540192505081905550816002600083815260200190815260200160002060006101000a81548173ffffffffffffffffffffffffffffffffffffffff021916908373ffffffffffffffffffffffffffffffffffffffff160217905550808273ffffffffffffffffffffffffffffffffffffffff168473ffffffffffffffffffffffffffffffffffffffff167fddf252ad1be2c89b69c2b068fc378daa952ba7f163c4a11628f55a4df523b3ef60405160405180910390a4611f4e83838360016127f6565b505050565b6000611f5e82610e5b565b90506000611f6c8284611493565b905060006008600083815260200190815260200160002060020180548060200260200160405190810160405280929190818152602001828054801561200657602002820191906000526020600020905b8160009054906101000a900473ffffffffffffffffffffffffffffffffffffffff1673ffffffffffffffffffffffffffffffffffffffff1681526020019060010190808311611fbc575b5050505050905060005b815181101561211657600061203f83838151811061203157612030613fc2565b5b602002602001015187611493565b905060405180606001604052806402540be4008152602001600015158152602001600073ffffffffffffffffffffffffffffffffffffffff16815250600960008381526020019081526020016000206000820151816000015560208201518160010160006101000a81548160ff02191690831515021790555060408201518160010160016101000a81548173ffffffffffffffffffffffffffffffffffffffff021916908373ffffffffffffffffffffffffffffffffffffffff16021790555090505050808061210e90614020565b915050612010565b50606060405180606001604052806402540be400815260200160001515815260200182815250600860008581526020019081526020016000206000820151816000015560208201518160010160006101000a81548160ff021916908315150217905550604082015181600201908051906020019061219592919061305f565b509050506121a2856127fc565b5050505050565b60006002600083815260200190815260200160002060009054906101000a900473ffffffffffffffffffffffffffffffffffffffff169050919050565b6121ee611b04565b73ffffffffffffffffffffffffffffffffffffffff1661220c610fac565b73ffffffffffffffffffffffffffffffffffffffff1614612262576040517f08c379a0000000000000000000000000000000000000000000000000000000008152600401612259906143fd565b60405180910390fd5b565b6000600760009054906101000a900473ffffffffffffffffffffffffffffffffffffffff16905081600760006101000a81548173ffffffffffffffffffffffffffffffffffffffff021916908373ffffffffffffffffffffffffffffffffffffffff1602179055508173ffffffffffffffffffffffffffffffffffffffff168173ffffffffffffffffffffffffffffffffffffffff167f8be0079c531659141344cd1fd0a4f28419497f9722a3daafe3b4186f6b6457e060405160405180910390a35050565b8173ffffffffffffffffffffffffffffffffffffffff168373ffffffffffffffffffffffffffffffffffffffff1603612398576040517f08c379a000000000000000000000000000000000000000000000000000000000815260040161238f90614469565b60405180910390fd5b80600560008573ffffffffffffffffffffffffffffffffffffffff1673ffffffffffffffffffffffffffffffffffffffff16815260200190815260200160002060008473ffffffffffffffffffffffffffffffffffffffff1673ffffffffffffffffffffffffffffffffffffffff16815260200190815260200160002060006101000a81548160ff0219169083151502179055508173ffffffffffffffffffffffffffffffffffffffff168373ffffffffffffffffffffffffffffffffffffffff167f17307eab39ab6107e8899845ad3d59bd9653f200f220920489ca2b5937696c31836040516124899190613233565b60405180910390a3505050565b6124a1848484611c5a565b6124ad8484848461284f565b6124ec576040517f08c379a00000000000000000000000000000000000000000000000000000000081526004016124e3906144fb565b60405180910390fd5b50505050565b60606124fd82611ab9565b600060066000848152602001908152602001600020805461251d90613ddb565b80601f016020809104026020016040519081016040528092919081815260200182805461254990613ddb565b80156125965780601f1061256b57610100808354040283529160200191612596565b820191906000526020600020905b81548152906001019060200180831161257957829003601f168201915b5050505050905060006125a76129d6565b905060008151036125bc5781925050506125ff565b6000825111156125f15780826040516020016125d9929190614557565b604051602081830303815290604052925050506125ff565b6125fa846129ed565b925050505b919050565b61261e828260405180602001604052806000815250612a55565b5050565b61262b8261268f565b61266a576040517f08c379a0000000000000000000000000000000000000000000000000000000008152600401612661906145ed565b60405180910390fd5b8060066000848152602001908152602001600020908161268a91906147b9565b505050565b60008073ffffffffffffffffffffffffffffffffffffffff166126b1836121a9565b73ffffffffffffffffffffffffffffffffffffffff1614159050919050565b60018111156127f057600073ffffffffffffffffffffffffffffffffffffffff168473ffffffffffffffffffffffffffffffffffffffff16146127645780600360008673ffffffffffffffffffffffffffffffffffffffff1673ffffffffffffffffffffffffffffffffffffffff168152602001908152602001600020600082825461275c919061488b565b925050819055505b600073ffffffffffffffffffffffffffffffffffffffff168373ffffffffffffffffffffffffffffffffffffffff16146127ef5780600360008573ffffffffffffffffffffffffffffffffffffffff1673ffffffffffffffffffffffffffffffffffffffff16815260200190815260200160002060008282546127e791906148bf565b925050819055505b5b50505050565b50505050565b61280581612ab0565b600060066000838152602001908152602001600020805461282590613ddb565b90501461284c5760066000828152602001908152602001600020600061284b9190613122565b5b50565b60006128708473ffffffffffffffffffffffffffffffffffffffff16612bfe565b156129c9578373ffffffffffffffffffffffffffffffffffffffff1663150b7a02612899611b04565b8786866040518563ffffffff1660e01b81526004016128bb9493929190614948565b6020604051808303816000875af19250505080156128f757506040513d601f19601f820116820180604052508101906128f491906149a9565b60015b612979573d8060008114612927576040519150601f19603f3d011682016040523d82523d6000602084013e61292c565b606091505b506000815103612971576040517f08c379a0000000000000000000000000000000000000000000000000000000008152600401612968906144fb565b60405180910390fd5b805181602001fd5b63150b7a0260e01b7bffffffffffffffffffffffffffffffffffffffffffffffffffffffff1916817bffffffffffffffffffffffffffffffffffffffffffffffffffffffff1916149150506129ce565b600190505b949350505050565b606060405180602001604052806000815250905090565b60606129f882611ab9565b6000612a026129d6565b90506000815111612a225760405180602001604052806000815250612a4d565b80612a2c84612c21565b604051602001612a3d929190614557565b6040516020818303038152906040525b915050919050565b612a5f8383612cef565b612a6c600084848461284f565b612aab576040517f08c379a0000000000000000000000000000000000000000000000000000000008152600401612aa2906144fb565b60405180910390fd5b505050565b6000612abb82610e5b565b9050612acb8160008460016126d0565b612ad482610e5b565b90506004600083815260200190815260200160002060006101000a81549073ffffffffffffffffffffffffffffffffffffffff02191690556001600360008373ffffffffffffffffffffffffffffffffffffffff1673ffffffffffffffffffffffffffffffffffffffff168152602001908152602001600020600082825403925050819055506002600083815260200190815260200160002060006101000a81549073ffffffffffffffffffffffffffffffffffffffff021916905581600073ffffffffffffffffffffffffffffffffffffffff168273ffffffffffffffffffffffffffffffffffffffff167fddf252ad1be2c89b69c2b068fc378daa952ba7f163c4a11628f55a4df523b3ef60405160405180910390a4612bfa8160008460016127f6565b5050565b6000808273ffffffffffffffffffffffffffffffffffffffff163b119050919050565b606060006001612c3084612f0c565b01905060008167ffffffffffffffff811115612c4f57612c4e613430565b5b6040519080825280601f01601f191660200182016040528015612c815781602001600182028036833780820191505090505b509050600082602001820190505b600115612ce4578080600190039150507f3031323334353637383961626364656600000000000000000000000000000000600a86061a8153600a8581612cd857612cd76149d6565b5b04945060008503612c8f575b819350505050919050565b600073ffffffffffffffffffffffffffffffffffffffff168273ffffffffffffffffffffffffffffffffffffffff1603612d5e576040517f08c379a0000000000000000000000000000000000000000000000000000000008152600401612d5590614a51565b60405180910390fd5b612d678161268f565b15612da7576040517f08c379a0000000000000000000000000000000000000000000000000000000008152600401612d9e90614abd565b60405180910390fd5b612db56000838360016126d0565b612dbe8161268f565b15612dfe576040517f08c379a0000000000000000000000000000000000000000000000000000000008152600401612df590614abd565b60405180910390fd5b6001600360008473ffffffffffffffffffffffffffffffffffffffff1673ffffffffffffffffffffffffffffffffffffffff16815260200190815260200160002060008282540192505081905550816002600083815260200190815260200160002060006101000a81548173ffffffffffffffffffffffffffffffffffffffff021916908373ffffffffffffffffffffffffffffffffffffffff160217905550808273ffffffffffffffffffffffffffffffffffffffff16600073ffffffffffffffffffffffffffffffffffffffff167fddf252ad1be2c89b69c2b068fc378daa952ba7f163c4a11628f55a4df523b3ef60405160405180910390a4612f086000838360016127f6565b5050565b600080600090507a184f03e93ff9f4daa797ed6e38ed64bf6a1f0100000000000000008310612f6a577a184f03e93ff9f4daa797ed6e38ed64bf6a1f0100000000000000008381612f6057612f5f6149d6565b5b0492506040810190505b6d04ee2d6d415b85acef81000000008310612fa7576d04ee2d6d415b85acef81000000008381612f9d57612f9c6149d6565b5b0492506020810190505b662386f26fc100008310612fd657662386f26fc100008381612fcc57612fcb6149d6565b5b0492506010810190505b6305f5e1008310612fff576305f5e1008381612ff557612ff46149d6565b5b0492506008810190505b612710831061302457612710838161301a576130196149d6565b5b0492506004810190505b60648310613047576064838161303d5761303c6149d6565b5b0492506002810190505b600a8310613056576001810190505b80915050919050565b8280548282559060005260206000209081019282156130d8579160200282015b828111156130d75782518260006101000a81548173ffffffffffffffffffffffffffffffffffffffff021916908373ffffffffffffffffffffffffffffffffffffffff1602179055509160200191906001019061307f565b5b5090506130e59190613162565b5090565b604051806060016040528060008152602001600015158152602001600073ffffffffffffffffffffffffffffffffffffffff1681525090565b50805461312e90613ddb565b6000825580601f10613140575061315f565b601f01602090049060005260206000209081019061315e9190613162565b5b50565b5b8082111561317b576000816000905550600101613163565b5090565b6000604051905090565b600080fd5b600080fd5b60007fffffffff0000000000000000000000000000000000000000000000000000000082169050919050565b6131c881613193565b81146131d357600080fd5b50565b6000813590506131e5816131bf565b92915050565b60006020828403121561320157613200613189565b5b600061320f848285016131d6565b91505092915050565b60008115159050919050565b61322d81613218565b82525050565b60006020820190506132486000830184613224565b92915050565b600081519050919050565b600082825260208201905092915050565b60005b8381101561328857808201518184015260208101905061326d565b60008484015250505050565b6000601f19601f8301169050919050565b60006132b08261324e565b6132ba8185613259565b93506132ca81856020860161326a565b6132d381613294565b840191505092915050565b600060208201905081810360008301526132f881846132a5565b905092915050565b6000819050919050565b61331381613300565b811461331e57600080fd5b50565b6000813590506133308161330a565b92915050565b60006020828403121561334c5761334b613189565b5b600061335a84828501613321565b91505092915050565b600073ffffffffffffffffffffffffffffffffffffffff82169050919050565b600061338e82613363565b9050919050565b61339e81613383565b82525050565b60006020820190506133b96000830184613395565b92915050565b6133c881613383565b81146133d357600080fd5b50565b6000813590506133e5816133bf565b92915050565b6000806040838503121561340257613401613189565b5b6000613410858286016133d6565b925050602061342185828601613321565b9150509250929050565b600080fd5b7f4e487b7100000000000000000000000000000000000000000000000000000000600052604160045260246000fd5b61346882613294565b810181811067ffffffffffffffff8211171561348757613486613430565b5b80604052505050565b600061349a61317f565b90506134a6828261345f565b919050565b600067ffffffffffffffff8211156134c6576134c5613430565b5b602082029050602081019050919050565b600080fd5b60006134ef6134ea846134ab565b613490565b90508083825260208201905060208402830185811115613512576135116134d7565b5b835b8181101561353b578061352788826133d6565b845260208401935050602081019050613514565b5050509392505050565b600082601f83011261355a5761355961342b565b5b813561356a8482602086016134dc565b91505092915050565b60008060006060848603121561358c5761358b613189565b5b600061359a868287016133d6565b935050602084013567ffffffffffffffff8111156135bb576135ba61318e565b5b6135c786828701613545565b92505060406135d886828701613321565b9150509250925092565b6000806000606084860312156135fb576135fa613189565b5b6000613609868287016133d6565b935050602061361a868287016133d6565b925050604061362b86828701613321565b9150509250925092565b600081519050919050565b600082825260208201905092915050565b6000819050602082019050919050565b61366a81613383565b82525050565b600061367c8383613661565b60208301905092915050565b6000602082019050919050565b60006136a082613635565b6136aa8185613640565b93506136b583613651565b8060005b838110156136e65781516136cd8882613670565b97506136d883613688565b9250506001810190506136b9565b5085935050505092915050565b6000602082019050818103600083015261370d8184613695565b905092915050565b60006020828403121561372b5761372a613189565b5b6000613739848285016133d6565b91505092915050565b61374b81613300565b82525050565b60006020820190506137666000830184613742565b92915050565b6000806000806080858703121561378657613785613189565b5b6000613794878288016133d6565b94505060206137a5878288016133d6565b93505060406137b687828801613321565b925050606085013567ffffffffffffffff8111156137d7576137d661318e565b5b6137e387828801613545565b91505092959194509250565b6000819050919050565b613802816137ef565b82525050565b600060208201905061381d60008301846137f9565b92915050565b61382c81613218565b811461383757600080fd5b50565b60008135905061384981613823565b92915050565b6000806040838503121561386657613865613189565b5b6000613874858286016133d6565b92505060206138858582860161383a565b9150509250929050565b600080fd5b600067ffffffffffffffff8211156138af576138ae613430565b5b6138b882613294565b9050602081019050919050565b82818337600083830152505050565b60006138e76138e284613894565b613490565b9050828152602081018484840111156139035761390261388f565b5b61390e8482856138c5565b509392505050565b600082601f83011261392b5761392a61342b565b5b813561393b8482602086016138d4565b91505092915050565b6000806000806080858703121561395e5761395d613189565b5b600061396c878288016133d6565b945050602061397d878288016133d6565b935050604061398e87828801613321565b925050606085013567ffffffffffffffff8111156139af576139ae61318e565b5b6139bb87828801613916565b91505092959194509250565b600080604083850312156139de576139dd613189565b5b60006139ec858286016133d6565b925050602083013567ffffffffffffffff811115613a0d57613a0c61318e565b5b613a1985828601613545565b9150509250929050565b600067ffffffffffffffff821115613a3e57613a3d613430565b5b613a4782613294565b9050602081019050919050565b6000613a67613a6284613a23565b613490565b905082815260208101848484011115613a8357613a8261388f565b5b613a8e8482856138c5565b509392505050565b600082601f830112613aab57613aaa61342b565b5b8135613abb848260208601613a54565b91505092915050565b600080600060608486031215613add57613adc613189565b5b6000613aeb868287016133d6565b9350506020613afc86828701613321565b925050604084013567ffffffffffffffff811115613b1d57613b1c61318e565b5b613b2986828701613a96565b9150509250925092565b600067ffffffffffffffff821115613b4e57613b4d613430565b5b602082029050602081019050919050565b6000613b72613b6d84613b33565b613490565b90508083825260208201905060208402830185811115613b9557613b946134d7565b5b835b81811015613bbe5780613baa8882613321565b845260208401935050602081019050613b97565b5050509392505050565b600082601f830112613bdd57613bdc61342b565b5b8135613bed848260208601613b5f565b91505092915050565b60008060408385031215613c0d57613c0c613189565b5b6000613c1b85828601613321565b925050602083013567ffffffffffffffff811115613c3c57613c3b61318e565b5b613c4885828601613bc8565b9150509250929050565b613c5b81613300565b82525050565b613c6a81613218565b82525050565b606082016000820151613c866000850182613c52565b506020820151613c996020850182613c61565b506040820151613cac6040850182613661565b50505050565b6000606082019050613cc76000830184613c70565b92915050565b60008060008060808587031215613ce757613ce6613189565b5b6000613cf5878288016133d6565b9450506020613d0687828801613321565b935050604085013567ffffffffffffffff811115613d2757613d2661318e565b5b613d3387828801613a96565b925050606085013567ffffffffffffffff811115613d5457613d5361318e565b5b613d6087828801613545565b91505092959194509250565b60008060408385031215613d8357613d82613189565b5b6000613d91858286016133d6565b9250506020613da2858286016133d6565b9150509250929050565b7f4e487b7100000000000000000000000000000000000000000000000000000000600052602260045260246000fd5b60006002820490506001821680613df357607f821691505b602082108103613e0657613e05613dac565b5b50919050565b7f4552433732313a20617070726f76616c20746f2063757272656e74206f776e6560008201527f7200000000000000000000000000000000000000000000000000000000000000602082015250565b6000613e68602183613259565b9150613e7382613e0c565b604082019050919050565b60006020820190508181036000830152613e9781613e5b565b9050919050565b7f4552433732313a20617070726f76652063616c6c6572206973206e6f7420746f60008201527f6b656e206f776e6572206f7220617070726f76656420666f7220616c6c000000602082015250565b6000613efa603d83613259565b9150613f0582613e9e565b604082019050919050565b60006020820190508181036000830152613f2981613eed565b9050919050565b7f4552433732313a2063616c6c6572206973206e6f7420746f6b656e206f776e6560008201527f72206f7220617070726f76656400000000000000000000000000000000000000602082015250565b6000613f8c602d83613259565b9150613f9782613f30565b604082019050919050565b60006020820190508181036000830152613fbb81613f7f565b9050919050565b7f4e487b7100000000000000000000000000000000000000000000000000000000600052603260045260246000fd5b7f4e487b7100000000000000000000000000000000000000000000000000000000600052601160045260246000fd5b600061402b82613300565b91507fffffffffffffffffffffffffffffffffffffffffffffffffffffffffffffffff820361405d5761405c613ff1565b5b600182019050919050565b7f4552433732313a20696e76616c696420746f6b656e2049440000000000000000600082015250565b600061409e601883613259565b91506140a982614068565b602082019050919050565b600060208201905081810360008301526140cd81614091565b9050919050565b7f4552433732313a2061646472657373207a65726f206973206e6f74206120766160008201527f6c6964206f776e65720000000000000000000000000000000000000000000000602082015250565b6000614130602983613259565b915061413b826140d4565b604082019050919050565b6000602082019050818103600083015261415f81614123565b9050919050565b60008160601b9050919050565b600061417e82614166565b9050919050565b600061419082614173565b9050919050565b6141a86141a382613383565b614185565b82525050565b6000819050919050565b6141c96141c482613300565b6141ae565b82525050565b60006141db8285614197565b6014820191506141eb82846141b8565b6020820191508190509392505050565b7f4f776e61626c653a206e6577206f776e657220697320746865207a65726f206160008201527f6464726573730000000000000000000000000000000000000000000000000000602082015250565b6000614257602683613259565b9150614262826141fb565b604082019050919050565b600060208201905081810360008301526142868161424a565b9050919050565b7f4552433732313a207472616e736665722066726f6d20696e636f72726563742060008201527f6f776e6572000000000000000000000000000000000000000000000000000000602082015250565b60006142e9602583613259565b91506142f48261428d565b604082019050919050565b60006020820190508181036000830152614318816142dc565b9050919050565b7f4552433732313a207472616e7366657220746f20746865207a65726f2061646460008201527f7265737300000000000000000000000000000000000000000000000000000000602082015250565b600061437b602483613259565b91506143868261431f565b604082019050919050565b600060208201905081810360008301526143aa8161436e565b9050919050565b7f4f776e61626c653a2063616c6c6572206973206e6f7420746865206f776e6572600082015250565b60006143e7602083613259565b91506143f2826143b1565b602082019050919050565b60006020820190508181036000830152614416816143da565b9050919050565b7f4552433732313a20617070726f766520746f2063616c6c657200000000000000600082015250565b6000614453601983613259565b915061445e8261441d565b602082019050919050565b6000602082019050818103600083015261448281614446565b9050919050565b7f4552433732313a207472616e7366657220746f206e6f6e20455243373231526560008201527f63656976657220696d706c656d656e7465720000000000000000000000000000602082015250565b60006144e5603283613259565b91506144f082614489565b604082019050919050565b60006020820190508181036000830152614514816144d8565b9050919050565b600081905092915050565b60006145318261324e565b61453b818561451b565b935061454b81856020860161326a565b80840191505092915050565b60006145638285614526565b915061456f8284614526565b91508190509392505050565b7f45524337323155524953746f726167653a2055524920736574206f66206e6f6e60008201527f6578697374656e7420746f6b656e000000000000000000000000000000000000602082015250565b60006145d7602e83613259565b91506145e28261457b565b604082019050919050565b60006020820190508181036000830152614606816145ca565b9050919050565b60008190508160005260206000209050919050565b60006020601f8301049050919050565b600082821b905092915050565b60006008830261466f7fffffffffffffffffffffffffffffffffffffffffffffffffffffffffffffffff82614632565b6146798683614632565b95508019841693508086168417925050509392505050565b6000819050919050565b60006146b66146b16146ac84613300565b614691565b613300565b9050919050565b6000819050919050565b6146d08361469b565b6146e46146dc826146bd565b84845461463f565b825550505050565b600090565b6146f96146ec565b6147048184846146c7565b505050565b5b818110156147285761471d6000826146f1565b60018101905061470a565b5050565b601f82111561476d5761473e8161460d565b61474784614622565b81016020851015614756578190505b61476a61476285614622565b830182614709565b50505b505050565b600082821c905092915050565b600061479060001984600802614772565b1980831691505092915050565b60006147a9838361477f565b9150826002028217905092915050565b6147c28261324e565b67ffffffffffffffff8111156147db576147da613430565b5b6147e58254613ddb565b6147f082828561472c565b600060209050601f8311600181146148235760008415614811578287015190505b61481b858261479d565b865550614883565b601f1984166148318661460d565b60005b8281101561485957848901518255600182019150602085019450602081019050614834565b868310156148765784890151614872601f89168261477f565b8355505b6001600288020188555050505b505050505050565b600061489682613300565b91506148a183613300565b92508282039050818111156148b9576148b8613ff1565b5b92915050565b60006148ca82613300565b91506148d583613300565b92508282019050808211156148ed576148ec613ff1565b5b92915050565b600081519050919050565b600082825260208201905092915050565b600061491a826148f3565b61492481856148fe565b935061493481856020860161326a565b61493d81613294565b840191505092915050565b600060808201905061495d6000830187613395565b61496a6020830186613395565b6149776040830185613742565b8181036060830152614989818461490f565b905095945050505050565b6000815190506149a3816131bf565b92915050565b6000602082840312156149bf576149be613189565b5b60006149cd84828501614994565b91505092915050565b7f4e487b7100000000000000000000000000000000000000000000000000000000600052601260045260246000fd5b7f4552433732313a206d696e7420746f20746865207a65726f2061646472657373600082015250565b6000614a3b602083613259565b9150614a4682614a05565b602082019050919050565b60006020820190508181036000830152614a6a81614a2e565b9050919050565b7f4552433732313a20746f6b656e20616c7265616479206d696e74656400000000600082015250565b6000614aa7601c83613259565b9150614ab282614a71565b602082019050919050565b60006020820190508181036000830152614ad681614a9a565b905091905056fea26469706673582212206953a110586fa7761d89fe26ef572b9efeb6dcee7d697a1be2623a0fa7ba4b5064736f6c63430008110033",
  "immutableReferences": {},
  "source": "// SPDX-License-Identifier: MIT\r\npragma solidity >=0.4.22 <0.9.0;\r\n\r\nimport \"@openzeppelin/contracts/token/ERC721/ERC721.sol\";\r\nimport \"@openzeppelin/contracts/token/ERC721/extensions/ERC721URIStorage.sol\";\r\nimport \"@openzeppelin/contracts/token/ERC721/extensions/ERC721Burnable.sol\";\r\nimport \"@openzeppelin/contracts/access/Ownable.sol\";\r\nimport \"../Utils.sol\";\r\n\r\ncontract LandToken is ERC721, ERC721URIStorage, ERC721Burnable, Ownable, Utils {\r\n\r\n    struct TokenOwnerStruct {\r\n        uint256 tokenId;\r\n        bool isShared;\r\n        address[] sharedOwners;\r\n    }\r\n    mapping(bytes32 => TokenOwnerStruct) TokenOwner;\r\n\r\n    struct TokenSharedOwnerStruct {\r\n        uint256 tokenId;\r\n        bool isSharing;\r\n        address originalOwner;\r\n    }\r\n    mapping(bytes32 => TokenSharedOwnerStruct) TokenSharedOwner;\r\n\r\n    constructor() ERC721(\"LandToken\", \"LTT\") {}\r\n\r\n    function safeMint(address to, uint256 tokenId, string memory uri) public {\r\n         _safeMint(to,tokenId);  _setTokenURI(tokenId,uri);\r\n        \r\n        address[] memory emptyArray;\r\n        bytes32 ownerToken = hashTokenAddress(to,tokenId);\r\n        TokenOwner[ownerToken] = TokenOwnerStruct(tokenId,false,emptyArray);\r\n    }\r\n\r\n    function safeMintShared(address to, uint256 tokenId, string memory uri, address[] memory sharedOwners) public {\r\n        _safeMint(to,tokenId);  _setTokenURI(tokenId,uri);\r\n\r\n        bytes32 ownerToken = hashTokenAddress(to,tokenId);\r\n        TokenOwner[ownerToken] = TokenOwnerStruct(tokenId,true,sharedOwners);\r\n\r\n        for(uint i=0; i<sharedOwners.length; i++) {\r\n            bytes32 sharedToken = hashTokenAddress(sharedOwners[i],tokenId);\r\n            TokenSharedOwner[sharedToken] = TokenSharedOwnerStruct(tokenId,true,to);\r\n        }\r\n    }\r\n\r\n    function sharedTokenOwner(address sharedOwner, uint256 tokenId) public view returns(TokenSharedOwnerStruct memory) {\r\n        bytes32 ownerToken = hashTokenAddress(sharedOwner,tokenId);\r\n        return TokenSharedOwner[ownerToken];\r\n    }\r\n\r\n    function sharedOwnerList(address owner, uint256 tokenId) public view returns(address[] memory) {\r\n        bytes32 ownerToken = hashTokenAddress(owner,tokenId);\r\n        return TokenOwner[ownerToken].sharedOwners;\r\n    }\r\n\r\n    // The following functions are overrides required by Solidity.\r\n\r\n    function _burn(uint256 tokenId) internal override(ERC721, ERC721URIStorage) {\r\n        address owner = ownerOf(tokenId);\r\n        bytes32 ownerToken = hashTokenAddress(owner,tokenId);\r\n        address[] memory sharedOwners = TokenOwner[ownerToken].sharedOwners;\r\n\r\n        for(uint i=0; i<sharedOwners.length; i++) {\r\n            bytes32 sharedToken = hashTokenAddress(sharedOwners[i],tokenId);\r\n            TokenSharedOwner[sharedToken] = TokenSharedOwnerStruct(10000000000,false,address(0));\r\n        }\r\n\r\n        address[] memory emptyArray;\r\n        TokenOwner[ownerToken] = TokenOwnerStruct(10000000000,false,emptyArray);\r\n\r\n        super._burn(tokenId);\r\n    }\r\n\r\n    function tokenURI(uint256 tokenId) public view override(ERC721, ERC721URIStorage) returns (string memory) {\r\n        return super.tokenURI(tokenId);\r\n    }\r\n\r\n    function setSharedOwners(address owner, address[] memory sharedOwners, uint256 tokenId) public {\r\n        require(_isApprovedOrOwner(_msgSender(), tokenId), \"ERC721: caller is not token owner or approved\");\r\n        \r\n        bytes32 ownerToken = hashTokenAddress(owner,tokenId);\r\n\r\n        for(uint i=0; i<sharedOwners.length; i++) {\r\n            bytes32 sharedToken = hashTokenAddress(sharedOwners[i],tokenId);\r\n            TokenOwner[ownerToken].sharedOwners.push(sharedOwners[i]);\r\n            TokenSharedOwner[sharedToken] = TokenSharedOwnerStruct(tokenId,true,owner);\r\n        }\r\n    }\r\n\r\n    function transferFrom(address from, address to, uint256 tokenId) public override {\r\n        require(_isApprovedOrOwner(_msgSender(), tokenId), \"ERC721: caller is not token owner or approved\");\r\n        _transfer(from, to, tokenId);\r\n\r\n        bytes32 ownerToken = hashTokenAddress(from,tokenId);\r\n        address[] memory sharedOwners = TokenOwner[ownerToken].sharedOwners;\r\n\r\n        for(uint i=0; i<sharedOwners.length; i++) {\r\n            bytes32 sharedToken = hashTokenAddress(sharedOwners[i],tokenId);\r\n            TokenSharedOwner[sharedToken] = TokenSharedOwnerStruct(10000000000,false,address(0));\r\n        }\r\n\r\n        address[] memory emptyArray;\r\n        TokenOwner[ownerToken] = TokenOwnerStruct(10000000000,false,emptyArray);\r\n\r\n        bytes32 newOwnerToken = hashTokenAddress(to,tokenId);\r\n        TokenOwner[newOwnerToken] = TokenOwnerStruct(tokenId,false,emptyArray);\r\n    }\r\n\r\n    function transferFromShared(address from, address to, uint256 tokenId, address[] memory _sharedOwners) public {\r\n        require(_isApprovedOrOwner(_msgSender(), tokenId), \"ERC721: caller is not token owner or approved\");\r\n        _transfer(from, to, tokenId);\r\n\r\n        bytes32 ownerToken = hashTokenAddress(from,tokenId);\r\n        address[] memory sharedOwners = TokenOwner[ownerToken].sharedOwners;\r\n\r\n        for(uint i=0; i<sharedOwners.length; i++) {\r\n            bytes32 sharedToken = hashTokenAddress(sharedOwners[i],tokenId);\r\n            TokenSharedOwner[sharedToken] = TokenSharedOwnerStruct(10000000000,false,address(0));\r\n        }\r\n\r\n        address[] memory emptyArray;\r\n        TokenOwner[ownerToken] = TokenOwnerStruct(10000000000,false,emptyArray);\r\n\r\n        bytes32 newOwnerToken = hashTokenAddress(to,tokenId);\r\n        TokenOwner[newOwnerToken] = TokenOwnerStruct(tokenId,true,_sharedOwners);\r\n\r\n        for(uint i=0; i<_sharedOwners.length; i++) {\r\n            bytes32 newSharedToken = hashTokenAddress(_sharedOwners[i],tokenId);\r\n            TokenSharedOwner[newSharedToken] = TokenSharedOwnerStruct(tokenId,true,to);\r\n        }\r\n    }\r\n    \r\n}\r\n",
  "sourcePath": "C:\\Users\\hp\\Desktop\\University Stuff\\FYP\\blockestate-next\\contracts\\tokens\\LandToken.sol",
  "compiler": {
    "name": "solc",
    "version": "0.8.17+commit.8df45f5f.Emscripten.clang"
  },
  "schemaVersion": "3.4.10",
  "updatedAt": "2023-02-02T16:46:54.404Z",
  "networkType": "ethereum",
  "devdoc": {
    "kind": "dev",
    "methods": {
      "approve(address,uint256)": {
        "details": "See {IERC721-approve}."
      },
      "balanceOf(address)": {
        "details": "See {IERC721-balanceOf}."
      },
      "burn(uint256)": {
        "details": "Burns `tokenId`. See {ERC721-_burn}. Requirements: - The caller must own `tokenId` or be an approved operator."
      },
      "getApproved(uint256)": {
        "details": "See {IERC721-getApproved}."
      },
      "isApprovedForAll(address,address)": {
        "details": "See {IERC721-isApprovedForAll}."
      },
      "name()": {
        "details": "See {IERC721Metadata-name}."
      },
      "owner()": {
        "details": "Returns the address of the current owner."
      },
      "ownerOf(uint256)": {
        "details": "See {IERC721-ownerOf}."
      },
      "renounceOwnership()": {
        "details": "Leaves the contract without owner. It will not be possible to call `onlyOwner` functions anymore. Can only be called by the current owner. NOTE: Renouncing ownership will leave the contract without an owner, thereby removing any functionality that is only available to the owner."
      },
      "safeTransferFrom(address,address,uint256)": {
        "details": "See {IERC721-safeTransferFrom}."
      },
      "safeTransferFrom(address,address,uint256,bytes)": {
        "details": "See {IERC721-safeTransferFrom}."
      },
      "setApprovalForAll(address,bool)": {
        "details": "See {IERC721-setApprovalForAll}."
      },
      "supportsInterface(bytes4)": {
        "details": "See {IERC165-supportsInterface}."
      },
      "symbol()": {
        "details": "See {IERC721Metadata-symbol}."
      },
      "transferFrom(address,address,uint256)": {
        "details": "See {IERC721-transferFrom}."
      },
      "transferOwnership(address)": {
        "details": "Transfers ownership of the contract to a new account (`newOwner`). Can only be called by the current owner."
      }
    },
    "version": 1
  },
  "userdoc": {
    "kind": "user",
    "methods": {},
    "version": 1
  }
}