{
  "contractName": "LandToken",
  "abi": [
    {
      "inputs": [],
      "stateMutability": "nonpayable",
      "type": "constructor"
    },
    {
      "anonymous": false,
      "inputs": [
        {
          "indexed": true,
          "internalType": "address",
          "name": "owner",
          "type": "address"
        },
        {
          "indexed": true,
          "internalType": "address",
          "name": "approved",
          "type": "address"
        },
        {
          "indexed": true,
          "internalType": "uint256",
          "name": "tokenId",
          "type": "uint256"
        }
      ],
      "name": "Approval",
      "type": "event"
    },
    {
      "anonymous": false,
      "inputs": [
        {
          "indexed": true,
          "internalType": "address",
          "name": "owner",
          "type": "address"
        },
        {
          "indexed": true,
          "internalType": "address",
          "name": "operator",
          "type": "address"
        },
        {
          "indexed": false,
          "internalType": "bool",
          "name": "approved",
          "type": "bool"
        }
      ],
      "name": "ApprovalForAll",
      "type": "event"
    },
    {
      "anonymous": false,
      "inputs": [
        {
          "indexed": true,
          "internalType": "address",
          "name": "previousOwner",
          "type": "address"
        },
        {
          "indexed": true,
          "internalType": "address",
          "name": "newOwner",
          "type": "address"
        }
      ],
      "name": "OwnershipTransferred",
      "type": "event"
    },
    {
      "anonymous": false,
      "inputs": [
        {
          "indexed": true,
          "internalType": "address",
          "name": "from",
          "type": "address"
        },
        {
          "indexed": true,
          "internalType": "address",
          "name": "to",
          "type": "address"
        },
        {
          "indexed": true,
          "internalType": "uint256",
          "name": "tokenId",
          "type": "uint256"
        }
      ],
      "name": "Transfer",
      "type": "event"
    },
    {
      "inputs": [
        {
          "internalType": "address",
          "name": "to",
          "type": "address"
        },
        {
          "internalType": "uint256",
          "name": "tokenId",
          "type": "uint256"
        }
      ],
      "name": "approve",
      "outputs": [],
      "stateMutability": "nonpayable",
      "type": "function"
    },
    {
      "inputs": [
        {
          "internalType": "address",
          "name": "owner",
          "type": "address"
        }
      ],
      "name": "balanceOf",
      "outputs": [
        {
          "internalType": "uint256",
          "name": "",
          "type": "uint256"
        }
      ],
      "stateMutability": "view",
      "type": "function",
      "constant": true
    },
    {
      "inputs": [
        {
          "internalType": "uint256",
          "name": "tokenId",
          "type": "uint256"
        }
      ],
      "name": "burn",
      "outputs": [],
      "stateMutability": "nonpayable",
      "type": "function"
    },
    {
      "inputs": [
        {
          "internalType": "uint256",
          "name": "tokenId",
          "type": "uint256"
        }
      ],
      "name": "getApproved",
      "outputs": [
        {
          "internalType": "address",
          "name": "",
          "type": "address"
        }
      ],
      "stateMutability": "view",
      "type": "function",
      "constant": true
    },
    {
      "inputs": [
        {
          "internalType": "address",
          "name": "_address",
          "type": "address"
        },
        {
          "internalType": "uint256",
          "name": "_tokenId",
          "type": "uint256"
        }
      ],
      "name": "hashTokenAddress",
      "outputs": [
        {
          "internalType": "bytes32",
          "name": "",
          "type": "bytes32"
        }
      ],
      "stateMutability": "pure",
      "type": "function",
      "constant": true
    },
    {
      "inputs": [
        {
          "internalType": "address",
          "name": "checkAddress",
          "type": "address"
        },
        {
          "internalType": "address[]",
          "name": "arrayAddress",
          "type": "address[]"
        }
      ],
      "name": "indexOfAddress",
      "outputs": [
        {
          "internalType": "bool",
          "name": "",
          "type": "bool"
        }
      ],
      "stateMutability": "pure",
      "type": "function",
      "constant": true
    },
    {
      "inputs": [
        {
          "internalType": "uint256",
          "name": "checkTokenId",
          "type": "uint256"
        },
        {
          "internalType": "uint256[]",
          "name": "arrayTokenId",
          "type": "uint256[]"
        }
      ],
      "name": "indexOfTokenId",
      "outputs": [
        {
          "internalType": "bool",
          "name": "",
          "type": "bool"
        }
      ],
      "stateMutability": "pure",
      "type": "function",
      "constant": true
    },
    {
      "inputs": [
        {
          "internalType": "address",
          "name": "owner",
          "type": "address"
        },
        {
          "internalType": "address",
          "name": "operator",
          "type": "address"
        }
      ],
      "name": "isApprovedForAll",
      "outputs": [
        {
          "internalType": "bool",
          "name": "",
          "type": "bool"
        }
      ],
      "stateMutability": "view",
      "type": "function",
      "constant": true
    },
    {
      "inputs": [],
      "name": "name",
      "outputs": [
        {
          "internalType": "string",
          "name": "",
          "type": "string"
        }
      ],
      "stateMutability": "view",
      "type": "function",
      "constant": true
    },
    {
      "inputs": [],
      "name": "owner",
      "outputs": [
        {
          "internalType": "address",
          "name": "",
          "type": "address"
        }
      ],
      "stateMutability": "view",
      "type": "function",
      "constant": true
    },
    {
      "inputs": [
        {
          "internalType": "uint256",
          "name": "tokenId",
          "type": "uint256"
        }
      ],
      "name": "ownerOf",
      "outputs": [
        {
          "internalType": "address",
          "name": "",
          "type": "address"
        }
      ],
      "stateMutability": "view",
      "type": "function",
      "constant": true
    },
    {
      "inputs": [],
      "name": "renounceOwnership",
      "outputs": [],
      "stateMutability": "nonpayable",
      "type": "function"
    },
    {
      "inputs": [
        {
          "internalType": "address",
          "name": "from",
          "type": "address"
        },
        {
          "internalType": "address",
          "name": "to",
          "type": "address"
        },
        {
          "internalType": "uint256",
          "name": "tokenId",
          "type": "uint256"
        }
      ],
      "name": "safeTransferFrom",
      "outputs": [],
      "stateMutability": "nonpayable",
      "type": "function"
    },
    {
      "inputs": [
        {
          "internalType": "address",
          "name": "from",
          "type": "address"
        },
        {
          "internalType": "address",
          "name": "to",
          "type": "address"
        },
        {
          "internalType": "uint256",
          "name": "tokenId",
          "type": "uint256"
        },
        {
          "internalType": "bytes",
          "name": "data",
          "type": "bytes"
        }
      ],
      "name": "safeTransferFrom",
      "outputs": [],
      "stateMutability": "nonpayable",
      "type": "function"
    },
    {
      "inputs": [
        {
          "internalType": "address",
          "name": "operator",
          "type": "address"
        },
        {
          "internalType": "bool",
          "name": "approved",
          "type": "bool"
        }
      ],
      "name": "setApprovalForAll",
      "outputs": [],
      "stateMutability": "nonpayable",
      "type": "function"
    },
    {
      "inputs": [],
      "name": "symbol",
      "outputs": [
        {
          "internalType": "string",
          "name": "",
          "type": "string"
        }
      ],
      "stateMutability": "view",
      "type": "function",
      "constant": true
    },
    {
      "inputs": [
        {
          "internalType": "uint256",
          "name": "index",
          "type": "uint256"
        }
      ],
      "name": "tokenByIndex",
      "outputs": [
        {
          "internalType": "uint256",
          "name": "",
          "type": "uint256"
        }
      ],
      "stateMutability": "view",
      "type": "function",
      "constant": true
    },
    {
      "inputs": [
        {
          "internalType": "address",
          "name": "owner",
          "type": "address"
        },
        {
          "internalType": "uint256",
          "name": "index",
          "type": "uint256"
        }
      ],
      "name": "tokenOfOwnerByIndex",
      "outputs": [
        {
          "internalType": "uint256",
          "name": "",
          "type": "uint256"
        }
      ],
      "stateMutability": "view",
      "type": "function",
      "constant": true
    },
    {
      "inputs": [],
      "name": "totalSupply",
      "outputs": [
        {
          "internalType": "uint256",
          "name": "",
          "type": "uint256"
        }
      ],
      "stateMutability": "view",
      "type": "function",
      "constant": true
    },
    {
      "inputs": [
        {
          "internalType": "address",
          "name": "newOwner",
          "type": "address"
        }
      ],
      "name": "transferOwnership",
      "outputs": [],
      "stateMutability": "nonpayable",
      "type": "function"
    },
    {
      "inputs": [
        {
          "internalType": "bytes4",
          "name": "interfaceId",
          "type": "bytes4"
        }
      ],
      "name": "supportsInterface",
      "outputs": [
        {
          "internalType": "bool",
          "name": "",
          "type": "bool"
        }
      ],
      "stateMutability": "view",
      "type": "function",
      "constant": true
    },
    {
      "inputs": [
        {
          "internalType": "address",
          "name": "to",
          "type": "address"
        },
        {
          "internalType": "uint256",
          "name": "tokenId",
          "type": "uint256"
        },
        {
          "internalType": "string",
          "name": "uri",
          "type": "string"
        }
      ],
      "name": "safeMint",
      "outputs": [],
      "stateMutability": "nonpayable",
      "type": "function"
    },
    {
      "inputs": [
        {
          "internalType": "address",
          "name": "to",
          "type": "address"
        },
        {
          "internalType": "uint256",
          "name": "tokenId",
          "type": "uint256"
        },
        {
          "internalType": "string",
          "name": "uri",
          "type": "string"
        },
        {
          "internalType": "address[]",
          "name": "sharedOwners",
          "type": "address[]"
        }
      ],
      "name": "safeMintShared",
      "outputs": [],
      "stateMutability": "nonpayable",
      "type": "function"
    },
    {
      "inputs": [
        {
          "internalType": "address",
          "name": "sharedOwner",
          "type": "address"
        },
        {
          "internalType": "uint256",
          "name": "tokenId",
          "type": "uint256"
        }
      ],
      "name": "sharedTokenOwner",
      "outputs": [
        {
          "components": [
            {
              "internalType": "uint256",
              "name": "tokenId",
              "type": "uint256"
            },
            {
              "internalType": "bool",
              "name": "isSharing",
              "type": "bool"
            },
            {
              "internalType": "address",
              "name": "originalOwner",
              "type": "address"
            }
          ],
          "internalType": "struct LandToken.TokenSharedOwnerStruct",
          "name": "",
          "type": "tuple"
        }
      ],
      "stateMutability": "view",
      "type": "function",
      "constant": true
    },
    {
      "inputs": [
        {
          "internalType": "address",
          "name": "owner",
          "type": "address"
        },
        {
          "internalType": "uint256",
          "name": "tokenId",
          "type": "uint256"
        }
      ],
      "name": "sharedOwnerList",
      "outputs": [
        {
          "internalType": "address[]",
          "name": "",
          "type": "address[]"
        }
      ],
      "stateMutability": "view",
      "type": "function",
      "constant": true
    },
    {
      "inputs": [
        {
          "internalType": "uint256",
          "name": "tokenId",
          "type": "uint256"
        }
      ],
      "name": "tokenURI",
      "outputs": [
        {
          "internalType": "string",
          "name": "",
          "type": "string"
        }
      ],
      "stateMutability": "view",
      "type": "function",
      "constant": true
    },
    {
      "inputs": [
        {
          "internalType": "address",
          "name": "owner",
          "type": "address"
        },
        {
          "internalType": "address[]",
          "name": "sharedOwners",
          "type": "address[]"
        },
        {
          "internalType": "uint256",
          "name": "tokenId",
          "type": "uint256"
        }
      ],
      "name": "setSharedOwners",
      "outputs": [],
      "stateMutability": "nonpayable",
      "type": "function"
    },
    {
      "inputs": [
        {
          "internalType": "address",
          "name": "from",
          "type": "address"
        },
        {
          "internalType": "address",
          "name": "to",
          "type": "address"
        },
        {
          "internalType": "uint256",
          "name": "tokenId",
          "type": "uint256"
        }
      ],
      "name": "transferFrom",
      "outputs": [],
      "stateMutability": "nonpayable",
      "type": "function"
    },
    {
      "inputs": [
        {
          "internalType": "address",
          "name": "from",
          "type": "address"
        },
        {
          "internalType": "address",
          "name": "to",
          "type": "address"
        },
        {
          "internalType": "uint256",
          "name": "tokenId",
          "type": "uint256"
        },
        {
          "internalType": "address[]",
          "name": "_sharedOwners",
          "type": "address[]"
        }
      ],
      "name": "transferFromShared",
      "outputs": [],
      "stateMutability": "nonpayable",
      "type": "function"
    }
  ],
  "bytecode": "0x60806040523480156200001157600080fd5b506040518060400160405280600981526020017f4c616e64546f6b656e00000000000000000000000000000000000000000000008152506040518060400160405280600381526020017f4c5454000000000000000000000000000000000000000000000000000000000081525081600090816200008f919062000412565b508060019081620000a1919062000412565b505050620000c4620000b8620000ca60201b60201c565b620000d260201b60201c565b620004f9565b600033905090565b6000600b60009054906101000a900473ffffffffffffffffffffffffffffffffffffffff16905081600b60006101000a81548173ffffffffffffffffffffffffffffffffffffffff021916908373ffffffffffffffffffffffffffffffffffffffff1602179055508173ffffffffffffffffffffffffffffffffffffffff168173ffffffffffffffffffffffffffffffffffffffff167f8be0079c531659141344cd1fd0a4f28419497f9722a3daafe3b4186f6b6457e060405160405180910390a35050565b600081519050919050565b7f4e487b7100000000000000000000000000000000000000000000000000000000600052604160045260246000fd5b7f4e487b7100000000000000000000000000000000000000000000000000000000600052602260045260246000fd5b600060028204905060018216806200021a57607f821691505b60208210810362000230576200022f620001d2565b5b50919050565b60008190508160005260206000209050919050565b60006020601f8301049050919050565b600082821b905092915050565b6000600883026200029a7fffffffffffffffffffffffffffffffffffffffffffffffffffffffffffffffff826200025b565b620002a686836200025b565b95508019841693508086168417925050509392505050565b6000819050919050565b6000819050919050565b6000620002f3620002ed620002e784620002be565b620002c8565b620002be565b9050919050565b6000819050919050565b6200030f83620002d2565b620003276200031e82620002fa565b84845462000268565b825550505050565b600090565b6200033e6200032f565b6200034b81848462000304565b505050565b5b8181101562000373576200036760008262000334565b60018101905062000351565b5050565b601f821115620003c2576200038c8162000236565b62000397846200024b565b81016020851015620003a7578190505b620003bf620003b6856200024b565b83018262000350565b50505b505050565b600082821c905092915050565b6000620003e760001984600802620003c7565b1980831691505092915050565b6000620004028383620003d4565b9150826002028217905092915050565b6200041d8262000198565b67ffffffffffffffff811115620004395762000438620001a3565b5b62000445825462000201565b6200045282828562000377565b600060209050601f8311600181146200048a576000841562000475578287015190505b620004818582620003f4565b865550620004f1565b601f1984166200049a8662000236565b60005b82811015620004c4578489015182556001820191506020850194506020810190506200049d565b86831015620004e45784890151620004e0601f891682620003d4565b8355505b6001600288020188555050505b505050505050565b6153dc80620005096000396000f3fe608060405234801561001057600080fd5b50600436106101cf5760003560e01c8063715018a611610104578063bda6b691116100a2578063e26744c711610071578063e26744c714610562578063e2b3a68914610592578063e985e9c5146105ae578063f2fde38b146105de576101cf565b8063bda6b691146104b6578063c87b56dd146104e6578063cd279c7c14610516578063dfcd308214610532576101cf565b80639a7eb9d5116100de5780639a7eb9d514610432578063a12ca11d1461044e578063a22cb4651461047e578063b88d4fde1461049a576101cf565b8063715018a6146103ec5780638da5cb5b146103f657806395d89b4114610414576101cf565b80632f745c591161017157806342966c681161014b57806342966c68146103405780634f6ccce71461035c5780636352211e1461038c57806370a08231146103bc576101cf565b80632f745c59146102c457806341db4eaf146102f457806342842e0e14610324576101cf565b8063095ea7b3116101ad578063095ea7b3146102525780630f1389b11461026e57806318160ddd1461028a57806323b872dd146102a8576101cf565b806301ffc9a7146101d457806306fdde0314610204578063081812fc14610222575b600080fd5b6101ee60048036038101906101e991906138cf565b6105fa565b6040516101fb9190613917565b60405180910390f35b61020c61060c565b60405161021991906139c2565b60405180910390f35b61023c60048036038101906102379190613a1a565b61069e565b6040516102499190613a88565b60405180910390f35b61026c60048036038101906102679190613acf565b6106e4565b005b61028860048036038101906102839190613c57565b6107fb565b005b6102926109f4565b60405161029f9190613cd5565b60405180910390f35b6102c260048036038101906102bd9190613cf0565b610a01565b005b6102de60048036038101906102d99190613acf565b610d27565b6040516102eb9190613cd5565b60405180910390f35b61030e60048036038101906103099190613acf565b610dcc565b60405161031b9190613e01565b60405180910390f35b61033e60048036038101906103399190613cf0565b610e80565b005b61035a60048036038101906103559190613a1a565b610ea0565b005b61037660048036038101906103719190613a1a565b610efc565b6040516103839190613cd5565b60405180910390f35b6103a660048036038101906103a19190613a1a565b610f6d565b6040516103b39190613a88565b60405180910390f35b6103d660048036038101906103d19190613e23565b610ff3565b6040516103e39190613cd5565b60405180910390f35b6103f46110aa565b005b6103fe6110be565b60405161040b9190613a88565b60405180910390f35b61041c6110e8565b60405161042991906139c2565b60405180910390f35b61044c60048036038101906104479190613e50565b61117a565b005b61046860048036038101906104639190613acf565b6115a5565b6040516104759190613eec565b60405180910390f35b61049860048036038101906104939190613f33565b6115d8565b005b6104b460048036038101906104af9190614028565b6115ee565b005b6104d060048036038101906104cb91906140ab565b611650565b6040516104dd9190613917565b60405180910390f35b61050060048036038101906104fb9190613a1a565b6116d7565b60405161050d91906139c2565b60405180910390f35b610530600480360381019061052b91906141a8565b6116e9565b005b61054c600480360381019061054791906142da565b61178f565b6040516105599190613917565b60405180910390f35b61057c60048036038101906105779190613acf565b6117ea565b6040516105899190614396565b60405180910390f35b6105ac60048036038101906105a791906143b1565b6118a2565b005b6105c860048036038101906105c39190614450565b611a4a565b6040516105d59190613917565b60405180910390f35b6105f860048036038101906105f39190613e23565b611ade565b005b600061060582611b61565b9050919050565b60606000805461061b906144bf565b80601f0160208091040260200160405190810160405280929190818152602001828054610647906144bf565b80156106945780601f1061066957610100808354040283529160200191610694565b820191906000526020600020905b81548152906001019060200180831161067757829003601f168201915b5050505050905090565b60006106a982611bdb565b6004600083815260200190815260200160002060009054906101000a900473ffffffffffffffffffffffffffffffffffffffff169050919050565b60006106ef82610f6d565b90508073ffffffffffffffffffffffffffffffffffffffff168373ffffffffffffffffffffffffffffffffffffffff160361075f576040517f08c379a000000000000000000000000000000000000000000000000000000000815260040161075690614562565b60405180910390fd5b8073ffffffffffffffffffffffffffffffffffffffff1661077e611c26565b73ffffffffffffffffffffffffffffffffffffffff1614806107ad57506107ac816107a7611c26565b611a4a565b5b6107ec576040517f08c379a00000000000000000000000000000000000000000000000000000000081526004016107e3906145f4565b60405180910390fd5b6107f68383611c2e565b505050565b61080c610806611c26565b82611ce7565b61084b576040517f08c379a000000000000000000000000000000000000000000000000000000000815260040161084290614686565b60405180910390fd5b600061085784836115a5565b905060005b83518110156109ed57600061088b85838151811061087d5761087c6146a6565b5b6020026020010151856115a5565b9050600c60008481526020019081526020016000206002018583815181106108b6576108b56146a6565b5b60200260200101519080600181540180825580915050600190039060005260206000200160009091909190916101000a81548173ffffffffffffffffffffffffffffffffffffffff021916908373ffffffffffffffffffffffffffffffffffffffff16021790555060405180606001604052808581526020016001151581526020018773ffffffffffffffffffffffffffffffffffffffff16815250600d60008381526020019081526020016000206000820151816000015560208201518160010160006101000a81548160ff02191690831515021790555060408201518160010160016101000a81548173ffffffffffffffffffffffffffffffffffffffff021916908373ffffffffffffffffffffffffffffffffffffffff1602179055509050505080806109e590614704565b91505061085c565b5050505050565b6000600980549050905090565b610a12610a0c611c26565b82611ce7565b610a51576040517f08c379a0000000000000000000000000000000000000000000000000000000008152600401610a4890614686565b60405180910390fd5b610a5c838383611d7c565b6000610a6884836115a5565b90506000600c6000838152602001908152602001600020600201805480602002602001604051908101604052809291908181526020018280548015610b0257602002820191906000526020600020905b8160009054906101000a900473ffffffffffffffffffffffffffffffffffffffff1673ffffffffffffffffffffffffffffffffffffffff1681526020019060010190808311610ab8575b5050505050905060005b8151811015610c12576000610b3b838381518110610b2d57610b2c6146a6565b5b6020026020010151866115a5565b905060405180606001604052806402540be4008152602001600015158152602001600073ffffffffffffffffffffffffffffffffffffffff16815250600d60008381526020019081526020016000206000820151816000015560208201518160010160006101000a81548160ff02191690831515021790555060408201518160010160016101000a81548173ffffffffffffffffffffffffffffffffffffffff021916908373ffffffffffffffffffffffffffffffffffffffff160217905550905050508080610c0a90614704565b915050610b0c565b50606060405180606001604052806402540be400815260200160001515815260200182815250600c60008581526020019081526020016000206000820151816000015560208201518160010160006101000a81548160ff0219169083151502179055506040820151816002019080519060200190610c91929190613743565b509050506000610ca186866115a5565b9050604051806060016040528086815260200160001515815260200183815250600c60008381526020019081526020016000206000820151816000015560208201518160010160006101000a81548160ff0219169083151502179055506040820151816002019080519060200190610d1a929190613743565b5090505050505050505050565b6000610d3283610ff3565b8210610d73576040517f08c379a0000000000000000000000000000000000000000000000000000000008152600401610d6a906147be565b60405180910390fd5b600760008473ffffffffffffffffffffffffffffffffffffffff1673ffffffffffffffffffffffffffffffffffffffff168152602001908152602001600020600083815260200190815260200160002054905092915050565b60606000610dda84846115a5565b9050600c6000828152602001908152602001600020600201805480602002602001604051908101604052809291908181526020018280548015610e7257602002820191906000526020600020905b8160009054906101000a900473ffffffffffffffffffffffffffffffffffffffff1673ffffffffffffffffffffffffffffffffffffffff1681526020019060010190808311610e28575b505050505091505092915050565b610e9b838383604051806020016040528060008152506115ee565b505050565b610eb1610eab611c26565b82611ce7565b610ef0576040517f08c379a0000000000000000000000000000000000000000000000000000000008152600401610ee790614686565b60405180910390fd5b610ef981612075565b50565b6000610f066109f4565b8210610f47576040517f08c379a0000000000000000000000000000000000000000000000000000000008152600401610f3e90614850565b60405180910390fd5b60098281548110610f5b57610f5a6146a6565b5b90600052602060002001549050919050565b600080610f79836122cb565b9050600073ffffffffffffffffffffffffffffffffffffffff168173ffffffffffffffffffffffffffffffffffffffff1603610fea576040517f08c379a0000000000000000000000000000000000000000000000000000000008152600401610fe1906148bc565b60405180910390fd5b80915050919050565b60008073ffffffffffffffffffffffffffffffffffffffff168273ffffffffffffffffffffffffffffffffffffffff1603611063576040517f08c379a000000000000000000000000000000000000000000000000000000000815260040161105a9061494e565b60405180910390fd5b600360008373ffffffffffffffffffffffffffffffffffffffff1673ffffffffffffffffffffffffffffffffffffffff168152602001908152602001600020549050919050565b6110b2612308565b6110bc6000612386565b565b6000600b60009054906101000a900473ffffffffffffffffffffffffffffffffffffffff16905090565b6060600180546110f7906144bf565b80601f0160208091040260200160405190810160405280929190818152602001828054611123906144bf565b80156111705780601f1061114557610100808354040283529160200191611170565b820191906000526020600020905b81548152906001019060200180831161115357829003601f168201915b5050505050905090565b61118b611185611c26565b83611ce7565b6111ca576040517f08c379a00000000000000000000000000000000000000000000000000000000081526004016111c190614686565b60405180910390fd5b6111d5848484611d7c565b60006111e185846115a5565b90506000600c600083815260200190815260200160002060020180548060200260200160405190810160405280929190818152602001828054801561127b57602002820191906000526020600020905b8160009054906101000a900473ffffffffffffffffffffffffffffffffffffffff1673ffffffffffffffffffffffffffffffffffffffff1681526020019060010190808311611231575b5050505050905060005b815181101561138b5760006112b48383815181106112a6576112a56146a6565b5b6020026020010151876115a5565b905060405180606001604052806402540be4008152602001600015158152602001600073ffffffffffffffffffffffffffffffffffffffff16815250600d60008381526020019081526020016000206000820151816000015560208201518160010160006101000a81548160ff02191690831515021790555060408201518160010160016101000a81548173ffffffffffffffffffffffffffffffffffffffff021916908373ffffffffffffffffffffffffffffffffffffffff16021790555090505050808061138390614704565b915050611285565b50606060405180606001604052806402540be400815260200160001515815260200182815250600c60008581526020019081526020016000206000820151816000015560208201518160010160006101000a81548160ff021916908315150217905550604082015181600201908051906020019061140a929190613743565b50905050600061141a87876115a5565b9050604051806060016040528087815260200160011515815260200186815250600c60008381526020019081526020016000206000820151816000015560208201518160010160006101000a81548160ff0219169083151502179055506040820151816002019080519060200190611493929190613743565b5090505060005b855181101561159a5760006114c98783815181106114bb576114ba6146a6565b5b6020026020010151896115a5565b905060405180606001604052808981526020016001151581526020018a73ffffffffffffffffffffffffffffffffffffffff16815250600d60008381526020019081526020016000206000820151816000015560208201518160010160006101000a81548160ff02191690831515021790555060408201518160010160016101000a81548173ffffffffffffffffffffffffffffffffffffffff021916908373ffffffffffffffffffffffffffffffffffffffff16021790555090505050808061159290614704565b91505061149a565b505050505050505050565b600082826040516020016115ba9291906149d7565b60405160208183030381529060405280519060200120905092915050565b6115ea6115e3611c26565b838361244c565b5050565b6115ff6115f9611c26565b83611ce7565b61163e576040517f08c379a000000000000000000000000000000000000000000000000000000000815260040161163590614686565b60405180910390fd5b61164a848484846125b8565b50505050565b6000806000905060005b83518110156116cc57838181518110611676576116756146a6565b5b602002602001015173ffffffffffffffffffffffffffffffffffffffff168573ffffffffffffffffffffffffffffffffffffffff16036116b957600191506116cc565b80806116c490614704565b91505061165a565b508091505092915050565b60606116e282612614565b9050919050565b6116f38383612726565b6116fd8282612744565b6060600061170b85856115a5565b9050604051806060016040528085815260200160001515815260200183815250600c60008381526020019081526020016000206000820151816000015560208201518160010160006101000a81548160ff0219169083151502179055506040820151816002019080519060200190611784929190613743565b509050505050505050565b6000806000905060005b83518110156117df578381815181106117b5576117b46146a6565b5b602002602001015185036117cc57600191506117df565b80806117d790614704565b915050611799565b508091505092915050565b6117f26137cd565b60006117fe84846115a5565b9050600d6000828152602001908152602001600020604051806060016040529081600082015481526020016001820160009054906101000a900460ff161515151581526020016001820160019054906101000a900473ffffffffffffffffffffffffffffffffffffffff1673ffffffffffffffffffffffffffffffffffffffff1673ffffffffffffffffffffffffffffffffffffffff168152505091505092915050565b6118ac8484612726565b6118b68383612744565b60006118c285856115a5565b9050604051806060016040528085815260200160011515815260200183815250600c60008381526020019081526020016000206000820151816000015560208201518160010160006101000a81548160ff021916908315150217905550604082015181600201908051906020019061193b929190613743565b5090505060005b8251811015611a42576000611971848381518110611963576119626146a6565b5b6020026020010151876115a5565b905060405180606001604052808781526020016001151581526020018873ffffffffffffffffffffffffffffffffffffffff16815250600d60008381526020019081526020016000206000820151816000015560208201518160010160006101000a81548160ff02191690831515021790555060408201518160010160016101000a81548173ffffffffffffffffffffffffffffffffffffffff021916908373ffffffffffffffffffffffffffffffffffffffff160217905550905050508080611a3a90614704565b915050611942565b505050505050565b6000600560008473ffffffffffffffffffffffffffffffffffffffff1673ffffffffffffffffffffffffffffffffffffffff16815260200190815260200160002060008373ffffffffffffffffffffffffffffffffffffffff1673ffffffffffffffffffffffffffffffffffffffff16815260200190815260200160002060009054906101000a900460ff16905092915050565b611ae6612308565b600073ffffffffffffffffffffffffffffffffffffffff168173ffffffffffffffffffffffffffffffffffffffff1603611b55576040517f08c379a0000000000000000000000000000000000000000000000000000000008152600401611b4c90614a75565b60405180910390fd5b611b5e81612386565b50565b60007f780e9d63000000000000000000000000000000000000000000000000000000007bffffffffffffffffffffffffffffffffffffffffffffffffffffffff1916827bffffffffffffffffffffffffffffffffffffffffffffffffffffffff19161480611bd45750611bd3826127b1565b5b9050919050565b611be481612893565b611c23576040517f08c379a0000000000000000000000000000000000000000000000000000000008152600401611c1a906148bc565b60405180910390fd5b50565b600033905090565b816004600083815260200190815260200160002060006101000a81548173ffffffffffffffffffffffffffffffffffffffff021916908373ffffffffffffffffffffffffffffffffffffffff160217905550808273ffffffffffffffffffffffffffffffffffffffff16611ca183610f6d565b73ffffffffffffffffffffffffffffffffffffffff167f8c5be1e5ebec7d5bd14f71427d1e84f3dd0314c0f7b2291e5b200ac8c7c3b92560405160405180910390a45050565b600080611cf383610f6d565b90508073ffffffffffffffffffffffffffffffffffffffff168473ffffffffffffffffffffffffffffffffffffffff161480611d355750611d348185611a4a565b5b80611d7357508373ffffffffffffffffffffffffffffffffffffffff16611d5b8461069e565b73ffffffffffffffffffffffffffffffffffffffff16145b91505092915050565b8273ffffffffffffffffffffffffffffffffffffffff16611d9c82610f6d565b73ffffffffffffffffffffffffffffffffffffffff1614611df2576040517f08c379a0000000000000000000000000000000000000000000000000000000008152600401611de990614b07565b60405180910390fd5b600073ffffffffffffffffffffffffffffffffffffffff168273ffffffffffffffffffffffffffffffffffffffff1603611e61576040517f08c379a0000000000000000000000000000000000000000000000000000000008152600401611e5890614b99565b60405180910390fd5b611e6e83838360016128d4565b8273ffffffffffffffffffffffffffffffffffffffff16611e8e82610f6d565b73ffffffffffffffffffffffffffffffffffffffff1614611ee4576040517f08c379a0000000000000000000000000000000000000000000000000000000008152600401611edb90614b07565b60405180910390fd5b6004600082815260200190815260200160002060006101000a81549073ffffffffffffffffffffffffffffffffffffffff02191690556001600360008573ffffffffffffffffffffffffffffffffffffffff1673ffffffffffffffffffffffffffffffffffffffff168152602001908152602001600020600082825403925050819055506001600360008473ffffffffffffffffffffffffffffffffffffffff1673ffffffffffffffffffffffffffffffffffffffff16815260200190815260200160002060008282540192505081905550816002600083815260200190815260200160002060006101000a81548173ffffffffffffffffffffffffffffffffffffffff021916908373ffffffffffffffffffffffffffffffffffffffff160217905550808273ffffffffffffffffffffffffffffffffffffffff168473ffffffffffffffffffffffffffffffffffffffff167fddf252ad1be2c89b69c2b068fc378daa952ba7f163c4a11628f55a4df523b3ef60405160405180910390a461207083838360016128e6565b505050565b600061208082610f6d565b9050600061208e82846115a5565b90506000600c600083815260200190815260200160002060020180548060200260200160405190810160405280929190818152602001828054801561212857602002820191906000526020600020905b8160009054906101000a900473ffffffffffffffffffffffffffffffffffffffff1673ffffffffffffffffffffffffffffffffffffffff16815260200190600101908083116120de575b5050505050905060005b8151811015612238576000612161838381518110612153576121526146a6565b5b6020026020010151876115a5565b905060405180606001604052806402540be4008152602001600015158152602001600073ffffffffffffffffffffffffffffffffffffffff16815250600d60008381526020019081526020016000206000820151816000015560208201518160010160006101000a81548160ff02191690831515021790555060408201518160010160016101000a81548173ffffffffffffffffffffffffffffffffffffffff021916908373ffffffffffffffffffffffffffffffffffffffff16021790555090505050808061223090614704565b915050612132565b50606060405180606001604052806402540be400815260200160001515815260200182815250600c60008581526020019081526020016000206000820151816000015560208201518160010160006101000a81548160ff02191690831515021790555060408201518160020190805190602001906122b7929190613743565b509050506122c4856128ec565b5050505050565b60006002600083815260200190815260200160002060009054906101000a900473ffffffffffffffffffffffffffffffffffffffff169050919050565b612310611c26565b73ffffffffffffffffffffffffffffffffffffffff1661232e6110be565b73ffffffffffffffffffffffffffffffffffffffff1614612384576040517f08c379a000000000000000000000000000000000000000000000000000000000815260040161237b90614c05565b60405180910390fd5b565b6000600b60009054906101000a900473ffffffffffffffffffffffffffffffffffffffff16905081600b60006101000a81548173ffffffffffffffffffffffffffffffffffffffff021916908373ffffffffffffffffffffffffffffffffffffffff1602179055508173ffffffffffffffffffffffffffffffffffffffff168173ffffffffffffffffffffffffffffffffffffffff167f8be0079c531659141344cd1fd0a4f28419497f9722a3daafe3b4186f6b6457e060405160405180910390a35050565b8173ffffffffffffffffffffffffffffffffffffffff168373ffffffffffffffffffffffffffffffffffffffff16036124ba576040517f08c379a00000000000000000000000000000000000000000000000000000000081526004016124b190614c71565b60405180910390fd5b80600560008573ffffffffffffffffffffffffffffffffffffffff1673ffffffffffffffffffffffffffffffffffffffff16815260200190815260200160002060008473ffffffffffffffffffffffffffffffffffffffff1673ffffffffffffffffffffffffffffffffffffffff16815260200190815260200160002060006101000a81548160ff0219169083151502179055508173ffffffffffffffffffffffffffffffffffffffff168373ffffffffffffffffffffffffffffffffffffffff167f17307eab39ab6107e8899845ad3d59bd9653f200f220920489ca2b5937696c31836040516125ab9190613917565b60405180910390a3505050565b6125c3848484611d7c565b6125cf8484848461293f565b61260e576040517f08c379a000000000000000000000000000000000000000000000000000000000815260040161260590614d03565b60405180910390fd5b50505050565b606061261f82611bdb565b600060066000848152602001908152602001600020805461263f906144bf565b80601f016020809104026020016040519081016040528092919081815260200182805461266b906144bf565b80156126b85780601f1061268d576101008083540402835291602001916126b8565b820191906000526020600020905b81548152906001019060200180831161269b57829003601f168201915b5050505050905060006126c9612ac6565b905060008151036126de578192505050612721565b6000825111156127135780826040516020016126fb929190614d5f565b60405160208183030381529060405292505050612721565b61271c84612add565b925050505b919050565b612740828260405180602001604052806000815250612b45565b5050565b61274d82612893565b61278c576040517f08c379a000000000000000000000000000000000000000000000000000000000815260040161278390614df5565b60405180910390fd5b806006600084815260200190815260200160002090816127ac9190614fc1565b505050565b60007f80ac58cd000000000000000000000000000000000000000000000000000000007bffffffffffffffffffffffffffffffffffffffffffffffffffffffff1916827bffffffffffffffffffffffffffffffffffffffffffffffffffffffff1916148061287c57507f5b5e139f000000000000000000000000000000000000000000000000000000007bffffffffffffffffffffffffffffffffffffffffffffffffffffffff1916827bffffffffffffffffffffffffffffffffffffffffffffffffffffffff1916145b8061288c575061288b82612ba0565b5b9050919050565b60008073ffffffffffffffffffffffffffffffffffffffff166128b5836122cb565b73ffffffffffffffffffffffffffffffffffffffff1614159050919050565b6128e084848484612c0a565b50505050565b50505050565b6128f581612d68565b6000600660008381526020019081526020016000208054612915906144bf565b90501461293c5760066000828152602001908152602001600020600061293b9190613806565b5b50565b60006129608473ffffffffffffffffffffffffffffffffffffffff16612eb6565b15612ab9578373ffffffffffffffffffffffffffffffffffffffff1663150b7a02612989611c26565b8786866040518563ffffffff1660e01b81526004016129ab94939291906150e8565b6020604051808303816000875af19250505080156129e757506040513d601f19601f820116820180604052508101906129e49190615149565b60015b612a69573d8060008114612a17576040519150601f19603f3d011682016040523d82523d6000602084013e612a1c565b606091505b506000815103612a61576040517f08c379a0000000000000000000000000000000000000000000000000000000008152600401612a5890614d03565b60405180910390fd5b805181602001fd5b63150b7a0260e01b7bffffffffffffffffffffffffffffffffffffffffffffffffffffffff1916817bffffffffffffffffffffffffffffffffffffffffffffffffffffffff191614915050612abe565b600190505b949350505050565b606060405180602001604052806000815250905090565b6060612ae882611bdb565b6000612af2612ac6565b90506000815111612b125760405180602001604052806000815250612b3d565b80612b1c84612ed9565b604051602001612b2d929190614d5f565b6040516020818303038152906040525b915050919050565b612b4f8383612fa7565b612b5c600084848461293f565b612b9b576040517f08c379a0000000000000000000000000000000000000000000000000000000008152600401612b9290614d03565b60405180910390fd5b505050565b60007f01ffc9a7000000000000000000000000000000000000000000000000000000007bffffffffffffffffffffffffffffffffffffffffffffffffffffffff1916827bffffffffffffffffffffffffffffffffffffffffffffffffffffffff1916149050919050565b612c16848484846131c4565b6001811115612c5a576040517f08c379a0000000000000000000000000000000000000000000000000000000008152600401612c51906151e8565b60405180910390fd5b6000829050600073ffffffffffffffffffffffffffffffffffffffff168573ffffffffffffffffffffffffffffffffffffffff1603612ca157612c9c816132ea565b612ce0565b8373ffffffffffffffffffffffffffffffffffffffff168573ffffffffffffffffffffffffffffffffffffffff1614612cdf57612cde8582613333565b5b5b600073ffffffffffffffffffffffffffffffffffffffff168473ffffffffffffffffffffffffffffffffffffffff1603612d2257612d1d816134a0565b612d61565b8473ffffffffffffffffffffffffffffffffffffffff168473ffffffffffffffffffffffffffffffffffffffff1614612d6057612d5f8482613571565b5b5b5050505050565b6000612d7382610f6d565b9050612d838160008460016128d4565b612d8c82610f6d565b90506004600083815260200190815260200160002060006101000a81549073ffffffffffffffffffffffffffffffffffffffff02191690556001600360008373ffffffffffffffffffffffffffffffffffffffff1673ffffffffffffffffffffffffffffffffffffffff168152602001908152602001600020600082825403925050819055506002600083815260200190815260200160002060006101000a81549073ffffffffffffffffffffffffffffffffffffffff021916905581600073ffffffffffffffffffffffffffffffffffffffff168273ffffffffffffffffffffffffffffffffffffffff167fddf252ad1be2c89b69c2b068fc378daa952ba7f163c4a11628f55a4df523b3ef60405160405180910390a4612eb28160008460016128e6565b5050565b6000808273ffffffffffffffffffffffffffffffffffffffff163b119050919050565b606060006001612ee8846135f0565b01905060008167ffffffffffffffff811115612f0757612f06613b14565b5b6040519080825280601f01601f191660200182016040528015612f395781602001600182028036833780820191505090505b509050600082602001820190505b600115612f9c578080600190039150507f3031323334353637383961626364656600000000000000000000000000000000600a86061a8153600a8581612f9057612f8f615208565b5b04945060008503612f47575b819350505050919050565b600073ffffffffffffffffffffffffffffffffffffffff168273ffffffffffffffffffffffffffffffffffffffff1603613016576040517f08c379a000000000000000000000000000000000000000000000000000000000815260040161300d90615283565b60405180910390fd5b61301f81612893565b1561305f576040517f08c379a0000000000000000000000000000000000000000000000000000000008152600401613056906152ef565b60405180910390fd5b61306d6000838360016128d4565b61307681612893565b156130b6576040517f08c379a00000000000000000000000000000000000000000000000000000000081526004016130ad906152ef565b60405180910390fd5b6001600360008473ffffffffffffffffffffffffffffffffffffffff1673ffffffffffffffffffffffffffffffffffffffff16815260200190815260200160002060008282540192505081905550816002600083815260200190815260200160002060006101000a81548173ffffffffffffffffffffffffffffffffffffffff021916908373ffffffffffffffffffffffffffffffffffffffff160217905550808273ffffffffffffffffffffffffffffffffffffffff16600073ffffffffffffffffffffffffffffffffffffffff167fddf252ad1be2c89b69c2b068fc378daa952ba7f163c4a11628f55a4df523b3ef60405160405180910390a46131c06000838360016128e6565b5050565b60018111156132e457600073ffffffffffffffffffffffffffffffffffffffff168473ffffffffffffffffffffffffffffffffffffffff16146132585780600360008673ffffffffffffffffffffffffffffffffffffffff1673ffffffffffffffffffffffffffffffffffffffff1681526020019081526020016000206000828254613250919061530f565b925050819055505b600073ffffffffffffffffffffffffffffffffffffffff168373ffffffffffffffffffffffffffffffffffffffff16146132e35780600360008573ffffffffffffffffffffffffffffffffffffffff1673ffffffffffffffffffffffffffffffffffffffff16815260200190815260200160002060008282546132db9190615343565b925050819055505b5b50505050565b600980549050600a600083815260200190815260200160002081905550600981908060018154018082558091505060019003906000526020600020016000909190919091505550565b6000600161334084610ff3565b61334a919061530f565b905060006008600084815260200190815260200160002054905081811461342f576000600760008673ffffffffffffffffffffffffffffffffffffffff1673ffffffffffffffffffffffffffffffffffffffff168152602001908152602001600020600084815260200190815260200160002054905080600760008773ffffffffffffffffffffffffffffffffffffffff1673ffffffffffffffffffffffffffffffffffffffff168152602001908152602001600020600084815260200190815260200160002081905550816008600083815260200190815260200160002081905550505b6008600084815260200190815260200160002060009055600760008573ffffffffffffffffffffffffffffffffffffffff1673ffffffffffffffffffffffffffffffffffffffff16815260200190815260200160002060008381526020019081526020016000206000905550505050565b600060016009805490506134b4919061530f565b90506000600a60008481526020019081526020016000205490506000600983815481106134e4576134e36146a6565b5b906000526020600020015490508060098381548110613506576135056146a6565b5b906000526020600020018190555081600a600083815260200190815260200160002081905550600a600085815260200190815260200160002060009055600980548061355557613554615377565b5b6001900381819060005260206000200160009055905550505050565b600061357c83610ff3565b905081600760008573ffffffffffffffffffffffffffffffffffffffff1673ffffffffffffffffffffffffffffffffffffffff168152602001908152602001600020600083815260200190815260200160002081905550806008600084815260200190815260200160002081905550505050565b600080600090507a184f03e93ff9f4daa797ed6e38ed64bf6a1f010000000000000000831061364e577a184f03e93ff9f4daa797ed6e38ed64bf6a1f010000000000000000838161364457613643615208565b5b0492506040810190505b6d04ee2d6d415b85acef8100000000831061368b576d04ee2d6d415b85acef8100000000838161368157613680615208565b5b0492506020810190505b662386f26fc1000083106136ba57662386f26fc1000083816136b0576136af615208565b5b0492506010810190505b6305f5e10083106136e3576305f5e10083816136d9576136d8615208565b5b0492506008810190505b61271083106137085761271083816136fe576136fd615208565b5b0492506004810190505b6064831061372b576064838161372157613720615208565b5b0492506002810190505b600a831061373a576001810190505b80915050919050565b8280548282559060005260206000209081019282156137bc579160200282015b828111156137bb5782518260006101000a81548173ffffffffffffffffffffffffffffffffffffffff021916908373ffffffffffffffffffffffffffffffffffffffff16021790555091602001919060010190613763565b5b5090506137c99190613846565b5090565b604051806060016040528060008152602001600015158152602001600073ffffffffffffffffffffffffffffffffffffffff1681525090565b508054613812906144bf565b6000825580601f106138245750613843565b601f0160209004906000526020600020908101906138429190613846565b5b50565b5b8082111561385f576000816000905550600101613847565b5090565b6000604051905090565b600080fd5b600080fd5b60007fffffffff0000000000000000000000000000000000000000000000000000000082169050919050565b6138ac81613877565b81146138b757600080fd5b50565b6000813590506138c9816138a3565b92915050565b6000602082840312156138e5576138e461386d565b5b60006138f3848285016138ba565b91505092915050565b60008115159050919050565b613911816138fc565b82525050565b600060208201905061392c6000830184613908565b92915050565b600081519050919050565b600082825260208201905092915050565b60005b8381101561396c578082015181840152602081019050613951565b60008484015250505050565b6000601f19601f8301169050919050565b600061399482613932565b61399e818561393d565b93506139ae81856020860161394e565b6139b781613978565b840191505092915050565b600060208201905081810360008301526139dc8184613989565b905092915050565b6000819050919050565b6139f7816139e4565b8114613a0257600080fd5b50565b600081359050613a14816139ee565b92915050565b600060208284031215613a3057613a2f61386d565b5b6000613a3e84828501613a05565b91505092915050565b600073ffffffffffffffffffffffffffffffffffffffff82169050919050565b6000613a7282613a47565b9050919050565b613a8281613a67565b82525050565b6000602082019050613a9d6000830184613a79565b92915050565b613aac81613a67565b8114613ab757600080fd5b50565b600081359050613ac981613aa3565b92915050565b60008060408385031215613ae657613ae561386d565b5b6000613af485828601613aba565b9250506020613b0585828601613a05565b9150509250929050565b600080fd5b7f4e487b7100000000000000000000000000000000000000000000000000000000600052604160045260246000fd5b613b4c82613978565b810181811067ffffffffffffffff82111715613b6b57613b6a613b14565b5b80604052505050565b6000613b7e613863565b9050613b8a8282613b43565b919050565b600067ffffffffffffffff821115613baa57613ba9613b14565b5b602082029050602081019050919050565b600080fd5b6000613bd3613bce84613b8f565b613b74565b90508083825260208201905060208402830185811115613bf657613bf5613bbb565b5b835b81811015613c1f5780613c0b8882613aba565b845260208401935050602081019050613bf8565b5050509392505050565b600082601f830112613c3e57613c3d613b0f565b5b8135613c4e848260208601613bc0565b91505092915050565b600080600060608486031215613c7057613c6f61386d565b5b6000613c7e86828701613aba565b935050602084013567ffffffffffffffff811115613c9f57613c9e613872565b5b613cab86828701613c29565b9250506040613cbc86828701613a05565b9150509250925092565b613ccf816139e4565b82525050565b6000602082019050613cea6000830184613cc6565b92915050565b600080600060608486031215613d0957613d0861386d565b5b6000613d1786828701613aba565b9350506020613d2886828701613aba565b9250506040613d3986828701613a05565b9150509250925092565b600081519050919050565b600082825260208201905092915050565b6000819050602082019050919050565b613d7881613a67565b82525050565b6000613d8a8383613d6f565b60208301905092915050565b6000602082019050919050565b6000613dae82613d43565b613db88185613d4e565b9350613dc383613d5f565b8060005b83811015613df4578151613ddb8882613d7e565b9750613de683613d96565b925050600181019050613dc7565b5085935050505092915050565b60006020820190508181036000830152613e1b8184613da3565b905092915050565b600060208284031215613e3957613e3861386d565b5b6000613e4784828501613aba565b91505092915050565b60008060008060808587031215613e6a57613e6961386d565b5b6000613e7887828801613aba565b9450506020613e8987828801613aba565b9350506040613e9a87828801613a05565b925050606085013567ffffffffffffffff811115613ebb57613eba613872565b5b613ec787828801613c29565b91505092959194509250565b6000819050919050565b613ee681613ed3565b82525050565b6000602082019050613f016000830184613edd565b92915050565b613f10816138fc565b8114613f1b57600080fd5b50565b600081359050613f2d81613f07565b92915050565b60008060408385031215613f4a57613f4961386d565b5b6000613f5885828601613aba565b9250506020613f6985828601613f1e565b9150509250929050565b600080fd5b600067ffffffffffffffff821115613f9357613f92613b14565b5b613f9c82613978565b9050602081019050919050565b82818337600083830152505050565b6000613fcb613fc684613f78565b613b74565b905082815260208101848484011115613fe757613fe6613f73565b5b613ff2848285613fa9565b509392505050565b600082601f83011261400f5761400e613b0f565b5b813561401f848260208601613fb8565b91505092915050565b600080600080608085870312156140425761404161386d565b5b600061405087828801613aba565b945050602061406187828801613aba565b935050604061407287828801613a05565b925050606085013567ffffffffffffffff81111561409357614092613872565b5b61409f87828801613ffa565b91505092959194509250565b600080604083850312156140c2576140c161386d565b5b60006140d085828601613aba565b925050602083013567ffffffffffffffff8111156140f1576140f0613872565b5b6140fd85828601613c29565b9150509250929050565b600067ffffffffffffffff82111561412257614121613b14565b5b61412b82613978565b9050602081019050919050565b600061414b61414684614107565b613b74565b90508281526020810184848401111561416757614166613f73565b5b614172848285613fa9565b509392505050565b600082601f83011261418f5761418e613b0f565b5b813561419f848260208601614138565b91505092915050565b6000806000606084860312156141c1576141c061386d565b5b60006141cf86828701613aba565b93505060206141e086828701613a05565b925050604084013567ffffffffffffffff81111561420157614200613872565b5b61420d8682870161417a565b9150509250925092565b600067ffffffffffffffff82111561423257614231613b14565b5b602082029050602081019050919050565b600061425661425184614217565b613b74565b9050808382526020820190506020840283018581111561427957614278613bbb565b5b835b818110156142a2578061428e8882613a05565b84526020840193505060208101905061427b565b5050509392505050565b600082601f8301126142c1576142c0613b0f565b5b81356142d1848260208601614243565b91505092915050565b600080604083850312156142f1576142f061386d565b5b60006142ff85828601613a05565b925050602083013567ffffffffffffffff8111156143205761431f613872565b5b61432c858286016142ac565b9150509250929050565b61433f816139e4565b82525050565b61434e816138fc565b82525050565b60608201600082015161436a6000850182614336565b50602082015161437d6020850182614345565b5060408201516143906040850182613d6f565b50505050565b60006060820190506143ab6000830184614354565b92915050565b600080600080608085870312156143cb576143ca61386d565b5b60006143d987828801613aba565b94505060206143ea87828801613a05565b935050604085013567ffffffffffffffff81111561440b5761440a613872565b5b6144178782880161417a565b925050606085013567ffffffffffffffff81111561443857614437613872565b5b61444487828801613c29565b91505092959194509250565b600080604083850312156144675761446661386d565b5b600061447585828601613aba565b925050602061448685828601613aba565b9150509250929050565b7f4e487b7100000000000000000000000000000000000000000000000000000000600052602260045260246000fd5b600060028204905060018216806144d757607f821691505b6020821081036144ea576144e9614490565b5b50919050565b7f4552433732313a20617070726f76616c20746f2063757272656e74206f776e6560008201527f7200000000000000000000000000000000000000000000000000000000000000602082015250565b600061454c60218361393d565b9150614557826144f0565b604082019050919050565b6000602082019050818103600083015261457b8161453f565b9050919050565b7f4552433732313a20617070726f76652063616c6c6572206973206e6f7420746f60008201527f6b656e206f776e6572206f7220617070726f76656420666f7220616c6c000000602082015250565b60006145de603d8361393d565b91506145e982614582565b604082019050919050565b6000602082019050818103600083015261460d816145d1565b9050919050565b7f4552433732313a2063616c6c6572206973206e6f7420746f6b656e206f776e6560008201527f72206f7220617070726f76656400000000000000000000000000000000000000602082015250565b6000614670602d8361393d565b915061467b82614614565b604082019050919050565b6000602082019050818103600083015261469f81614663565b9050919050565b7f4e487b7100000000000000000000000000000000000000000000000000000000600052603260045260246000fd5b7f4e487b7100000000000000000000000000000000000000000000000000000000600052601160045260246000fd5b600061470f826139e4565b91507fffffffffffffffffffffffffffffffffffffffffffffffffffffffffffffffff8203614741576147406146d5565b5b600182019050919050565b7f455243373231456e756d657261626c653a206f776e657220696e646578206f7560008201527f74206f6620626f756e6473000000000000000000000000000000000000000000602082015250565b60006147a8602b8361393d565b91506147b38261474c565b604082019050919050565b600060208201905081810360008301526147d78161479b565b9050919050565b7f455243373231456e756d657261626c653a20676c6f62616c20696e646578206f60008201527f7574206f6620626f756e64730000000000000000000000000000000000000000602082015250565b600061483a602c8361393d565b9150614845826147de565b604082019050919050565b600060208201905081810360008301526148698161482d565b9050919050565b7f4552433732313a20696e76616c696420746f6b656e2049440000000000000000600082015250565b60006148a660188361393d565b91506148b182614870565b602082019050919050565b600060208201905081810360008301526148d581614899565b9050919050565b7f4552433732313a2061646472657373207a65726f206973206e6f74206120766160008201527f6c6964206f776e65720000000000000000000000000000000000000000000000602082015250565b600061493860298361393d565b9150614943826148dc565b604082019050919050565b600060208201905081810360008301526149678161492b565b9050919050565b60008160601b9050919050565b60006149868261496e565b9050919050565b60006149988261497b565b9050919050565b6149b06149ab82613a67565b61498d565b82525050565b6000819050919050565b6149d16149cc826139e4565b6149b6565b82525050565b60006149e3828561499f565b6014820191506149f382846149c0565b6020820191508190509392505050565b7f4f776e61626c653a206e6577206f776e657220697320746865207a65726f206160008201527f6464726573730000000000000000000000000000000000000000000000000000602082015250565b6000614a5f60268361393d565b9150614a6a82614a03565b604082019050919050565b60006020820190508181036000830152614a8e81614a52565b9050919050565b7f4552433732313a207472616e736665722066726f6d20696e636f72726563742060008201527f6f776e6572000000000000000000000000000000000000000000000000000000602082015250565b6000614af160258361393d565b9150614afc82614a95565b604082019050919050565b60006020820190508181036000830152614b2081614ae4565b9050919050565b7f4552433732313a207472616e7366657220746f20746865207a65726f2061646460008201527f7265737300000000000000000000000000000000000000000000000000000000602082015250565b6000614b8360248361393d565b9150614b8e82614b27565b604082019050919050565b60006020820190508181036000830152614bb281614b76565b9050919050565b7f4f776e61626c653a2063616c6c6572206973206e6f7420746865206f776e6572600082015250565b6000614bef60208361393d565b9150614bfa82614bb9565b602082019050919050565b60006020820190508181036000830152614c1e81614be2565b9050919050565b7f4552433732313a20617070726f766520746f2063616c6c657200000000000000600082015250565b6000614c5b60198361393d565b9150614c6682614c25565b602082019050919050565b60006020820190508181036000830152614c8a81614c4e565b9050919050565b7f4552433732313a207472616e7366657220746f206e6f6e20455243373231526560008201527f63656976657220696d706c656d656e7465720000000000000000000000000000602082015250565b6000614ced60328361393d565b9150614cf882614c91565b604082019050919050565b60006020820190508181036000830152614d1c81614ce0565b9050919050565b600081905092915050565b6000614d3982613932565b614d438185614d23565b9350614d5381856020860161394e565b80840191505092915050565b6000614d6b8285614d2e565b9150614d778284614d2e565b91508190509392505050565b7f45524337323155524953746f726167653a2055524920736574206f66206e6f6e60008201527f6578697374656e7420746f6b656e000000000000000000000000000000000000602082015250565b6000614ddf602e8361393d565b9150614dea82614d83565b604082019050919050565b60006020820190508181036000830152614e0e81614dd2565b9050919050565b60008190508160005260206000209050919050565b60006020601f8301049050919050565b600082821b905092915050565b600060088302614e777fffffffffffffffffffffffffffffffffffffffffffffffffffffffffffffffff82614e3a565b614e818683614e3a565b95508019841693508086168417925050509392505050565b6000819050919050565b6000614ebe614eb9614eb4846139e4565b614e99565b6139e4565b9050919050565b6000819050919050565b614ed883614ea3565b614eec614ee482614ec5565b848454614e47565b825550505050565b600090565b614f01614ef4565b614f0c818484614ecf565b505050565b5b81811015614f3057614f25600082614ef9565b600181019050614f12565b5050565b601f821115614f7557614f4681614e15565b614f4f84614e2a565b81016020851015614f5e578190505b614f72614f6a85614e2a565b830182614f11565b50505b505050565b600082821c905092915050565b6000614f9860001984600802614f7a565b1980831691505092915050565b6000614fb18383614f87565b9150826002028217905092915050565b614fca82613932565b67ffffffffffffffff811115614fe357614fe2613b14565b5b614fed82546144bf565b614ff8828285614f34565b600060209050601f83116001811461502b5760008415615019578287015190505b6150238582614fa5565b86555061508b565b601f19841661503986614e15565b60005b828110156150615784890151825560018201915060208501945060208101905061503c565b8683101561507e578489015161507a601f891682614f87565b8355505b6001600288020188555050505b505050505050565b600081519050919050565b600082825260208201905092915050565b60006150ba82615093565b6150c4818561509e565b93506150d481856020860161394e565b6150dd81613978565b840191505092915050565b60006080820190506150fd6000830187613a79565b61510a6020830186613a79565b6151176040830185613cc6565b818103606083015261512981846150af565b905095945050505050565b600081519050615143816138a3565b92915050565b60006020828403121561515f5761515e61386d565b5b600061516d84828501615134565b91505092915050565b7f455243373231456e756d657261626c653a20636f6e736563757469766520747260008201527f616e7366657273206e6f7420737570706f727465640000000000000000000000602082015250565b60006151d260358361393d565b91506151dd82615176565b604082019050919050565b60006020820190508181036000830152615201816151c5565b9050919050565b7f4e487b7100000000000000000000000000000000000000000000000000000000600052601260045260246000fd5b7f4552433732313a206d696e7420746f20746865207a65726f2061646472657373600082015250565b600061526d60208361393d565b915061527882615237565b602082019050919050565b6000602082019050818103600083015261529c81615260565b9050919050565b7f4552433732313a20746f6b656e20616c7265616479206d696e74656400000000600082015250565b60006152d9601c8361393d565b91506152e4826152a3565b602082019050919050565b60006020820190508181036000830152615308816152cc565b9050919050565b600061531a826139e4565b9150615325836139e4565b925082820390508181111561533d5761533c6146d5565b5b92915050565b600061534e826139e4565b9150615359836139e4565b9250828201905080821115615371576153706146d5565b5b92915050565b7f4e487b7100000000000000000000000000000000000000000000000000000000600052603160045260246000fdfea264697066735822122017721c9e929735547586160461bbe91282b81b2c0b65ad2a69068e6797861ef564736f6c63430008110033",
  "immutableReferences": {},
  "source": "// SPDX-License-Identifier: MIT\r\npragma solidity >=0.4.22 <0.9.0;\r\n\r\nimport \"@openzeppelin/contracts/token/ERC721/ERC721.sol\";\r\nimport \"@openzeppelin/contracts/token/ERC721/extensions/ERC721URIStorage.sol\";\r\nimport \"@openzeppelin/contracts/token/ERC721/extensions/ERC721Burnable.sol\";\r\nimport \"@openzeppelin/contracts/access/Ownable.sol\";\r\nimport \"@openzeppelin/contracts/token/ERC721/extensions/ERC721Enumerable.sol\";\r\nimport \"../Utils.sol\";\r\n\r\ncontract LandToken is ERC721, ERC721URIStorage, ERC721Enumerable, ERC721Burnable, Ownable, Utils {\r\n\r\n    struct TokenOwnerStruct {\r\n        uint256 tokenId;\r\n        bool isShared;\r\n        address[] sharedOwners;\r\n    }\r\n    mapping(bytes32 => TokenOwnerStruct) TokenOwner;\r\n\r\n    struct TokenSharedOwnerStruct {\r\n        uint256 tokenId;\r\n        bool isSharing;\r\n        address originalOwner;\r\n    }\r\n    mapping(bytes32 => TokenSharedOwnerStruct) TokenSharedOwner;\r\n\r\n\r\n    constructor() ERC721(\"LandToken\", \"LTT\") {}\r\n\r\n    function _beforeTokenTransfer(address from, address to, uint256 tokenId, uint256 batchSize) internal override(ERC721, ERC721Enumerable) {\r\n        super._beforeTokenTransfer(from, to, tokenId, batchSize);\r\n    }\r\n\r\n    function supportsInterface(bytes4 interfaceId) public view override(ERC721, ERC721Enumerable) returns (bool) {\r\n        return super.supportsInterface(interfaceId);\r\n    }\r\n\r\n    function safeMint(address to, uint256 tokenId, string memory uri) public {\r\n         _safeMint(to,tokenId);  _setTokenURI(tokenId,uri);\r\n        \r\n        address[] memory emptyArray;\r\n        bytes32 ownerToken = hashTokenAddress(to,tokenId);\r\n        TokenOwner[ownerToken] = TokenOwnerStruct(tokenId,false,emptyArray);\r\n    }\r\n\r\n    function safeMintShared(address to, uint256 tokenId, string memory uri, address[] memory sharedOwners) public {\r\n        _safeMint(to,tokenId);  _setTokenURI(tokenId,uri);\r\n\r\n        bytes32 ownerToken = hashTokenAddress(to,tokenId);\r\n        TokenOwner[ownerToken] = TokenOwnerStruct(tokenId,true,sharedOwners);\r\n\r\n        for(uint i=0; i<sharedOwners.length; i++) {\r\n            bytes32 sharedToken = hashTokenAddress(sharedOwners[i],tokenId);\r\n            TokenSharedOwner[sharedToken] = TokenSharedOwnerStruct(tokenId,true,to);\r\n        }\r\n    }\r\n\r\n    function sharedTokenOwner(address sharedOwner, uint256 tokenId) public view returns(TokenSharedOwnerStruct memory) {\r\n        bytes32 ownerToken = hashTokenAddress(sharedOwner,tokenId);\r\n        return TokenSharedOwner[ownerToken];\r\n    }\r\n\r\n    function sharedOwnerList(address owner, uint256 tokenId) public view returns(address[] memory) {\r\n        bytes32 ownerToken = hashTokenAddress(owner,tokenId);\r\n        return TokenOwner[ownerToken].sharedOwners;\r\n    }\r\n\r\n    // The following functions are overrides required by Solidity.\r\n\r\n    function _burn(uint256 tokenId) internal override(ERC721, ERC721URIStorage) {\r\n        address owner = ownerOf(tokenId);\r\n        bytes32 ownerToken = hashTokenAddress(owner,tokenId);\r\n        address[] memory sharedOwners = TokenOwner[ownerToken].sharedOwners;\r\n\r\n        for(uint i=0; i<sharedOwners.length; i++) {\r\n            bytes32 sharedToken = hashTokenAddress(sharedOwners[i],tokenId);\r\n            TokenSharedOwner[sharedToken] = TokenSharedOwnerStruct(10000000000,false,address(0));\r\n        }\r\n\r\n        address[] memory emptyArray;\r\n        TokenOwner[ownerToken] = TokenOwnerStruct(10000000000,false,emptyArray);\r\n\r\n        super._burn(tokenId);\r\n    }\r\n\r\n    function tokenURI(uint256 tokenId) public view override(ERC721, ERC721URIStorage) returns (string memory) {\r\n        return super.tokenURI(tokenId);\r\n    }\r\n\r\n    function setSharedOwners(address owner, address[] memory sharedOwners, uint256 tokenId) public {\r\n        require(_isApprovedOrOwner(_msgSender(), tokenId), \"ERC721: caller is not token owner or approved\");\r\n        \r\n        bytes32 ownerToken = hashTokenAddress(owner,tokenId);\r\n\r\n        for(uint i=0; i<sharedOwners.length; i++) {\r\n            bytes32 sharedToken = hashTokenAddress(sharedOwners[i],tokenId);\r\n            TokenOwner[ownerToken].sharedOwners.push(sharedOwners[i]);\r\n            TokenSharedOwner[sharedToken] = TokenSharedOwnerStruct(tokenId,true,owner);\r\n        }\r\n    }\r\n\r\n    function transferFrom(address from, address to, uint256 tokenId) public override(ERC721, IERC721) {\r\n        require(_isApprovedOrOwner(_msgSender(), tokenId), \"ERC721: caller is not token owner or approved\");\r\n        _transfer(from, to, tokenId);\r\n\r\n        bytes32 ownerToken = hashTokenAddress(from,tokenId);\r\n        address[] memory sharedOwners = TokenOwner[ownerToken].sharedOwners;\r\n\r\n        for(uint i=0; i<sharedOwners.length; i++) {\r\n            bytes32 sharedToken = hashTokenAddress(sharedOwners[i],tokenId);\r\n            TokenSharedOwner[sharedToken] = TokenSharedOwnerStruct(10000000000,false,address(0));\r\n        }\r\n\r\n        address[] memory emptyArray;\r\n        TokenOwner[ownerToken] = TokenOwnerStruct(10000000000,false,emptyArray);\r\n\r\n        bytes32 newOwnerToken = hashTokenAddress(to,tokenId);\r\n        TokenOwner[newOwnerToken] = TokenOwnerStruct(tokenId,false,emptyArray);\r\n    }\r\n\r\n    function transferFromShared(address from, address to, uint256 tokenId, address[] memory _sharedOwners) public {\r\n        require(_isApprovedOrOwner(_msgSender(), tokenId), \"ERC721: caller is not token owner or approved\");\r\n        _transfer(from, to, tokenId);\r\n\r\n        bytes32 ownerToken = hashTokenAddress(from,tokenId);\r\n        address[] memory sharedOwners = TokenOwner[ownerToken].sharedOwners;\r\n\r\n        for(uint i=0; i<sharedOwners.length; i++) {\r\n            bytes32 sharedToken = hashTokenAddress(sharedOwners[i],tokenId);\r\n            TokenSharedOwner[sharedToken] = TokenSharedOwnerStruct(10000000000,false,address(0));\r\n        }\r\n\r\n        address[] memory emptyArray;\r\n        TokenOwner[ownerToken] = TokenOwnerStruct(10000000000,false,emptyArray);\r\n\r\n        bytes32 newOwnerToken = hashTokenAddress(to,tokenId);\r\n        TokenOwner[newOwnerToken] = TokenOwnerStruct(tokenId,true,_sharedOwners);\r\n\r\n        for(uint i=0; i<_sharedOwners.length; i++) {\r\n            bytes32 newSharedToken = hashTokenAddress(_sharedOwners[i],tokenId);\r\n            TokenSharedOwner[newSharedToken] = TokenSharedOwnerStruct(tokenId,true,to);\r\n        }\r\n    }\r\n    \r\n}\r\n",
  "sourcePath": "C:\\Users\\hp\\Desktop\\University Stuff\\FYP\\blockestate-next\\contracts\\tokens\\LandToken.sol",
  "compiler": {
    "name": "solc",
    "version": "0.8.17+commit.8df45f5f.Emscripten.clang"
  },
  "schemaVersion": "3.4.10",
  "updatedAt": "2023-02-16T06:00:40.075Z",
  "networkType": "ethereum",
  "devdoc": {
    "kind": "dev",
    "methods": {
      "approve(address,uint256)": {
        "details": "See {IERC721-approve}."
      },
      "balanceOf(address)": {
        "details": "See {IERC721-balanceOf}."
      },
      "burn(uint256)": {
        "details": "Burns `tokenId`. See {ERC721-_burn}. Requirements: - The caller must own `tokenId` or be an approved operator."
      },
      "getApproved(uint256)": {
        "details": "See {IERC721-getApproved}."
      },
      "isApprovedForAll(address,address)": {
        "details": "See {IERC721-isApprovedForAll}."
      },
      "name()": {
        "details": "See {IERC721Metadata-name}."
      },
      "owner()": {
        "details": "Returns the address of the current owner."
      },
      "ownerOf(uint256)": {
        "details": "See {IERC721-ownerOf}."
      },
      "renounceOwnership()": {
        "details": "Leaves the contract without owner. It will not be possible to call `onlyOwner` functions anymore. Can only be called by the current owner. NOTE: Renouncing ownership will leave the contract without an owner, thereby removing any functionality that is only available to the owner."
      },
      "safeTransferFrom(address,address,uint256)": {
        "details": "See {IERC721-safeTransferFrom}."
      },
      "safeTransferFrom(address,address,uint256,bytes)": {
        "details": "See {IERC721-safeTransferFrom}."
      },
      "setApprovalForAll(address,bool)": {
        "details": "See {IERC721-setApprovalForAll}."
      },
      "symbol()": {
        "details": "See {IERC721Metadata-symbol}."
      },
      "tokenByIndex(uint256)": {
        "details": "See {IERC721Enumerable-tokenByIndex}."
      },
      "tokenOfOwnerByIndex(address,uint256)": {
        "details": "See {IERC721Enumerable-tokenOfOwnerByIndex}."
      },
      "totalSupply()": {
        "details": "See {IERC721Enumerable-totalSupply}."
      },
      "transferOwnership(address)": {
        "details": "Transfers ownership of the contract to a new account (`newOwner`). Can only be called by the current owner."
      }
    },
    "version": 1
  },
  "userdoc": {
    "kind": "user",
    "methods": {},
    "version": 1
  }
}