{
  "contractName": "LandToken",
  "abi": [
    {
      "inputs": [],
      "stateMutability": "nonpayable",
      "type": "constructor"
    },
    {
      "anonymous": false,
      "inputs": [
        {
          "indexed": true,
          "internalType": "address",
          "name": "owner",
          "type": "address"
        },
        {
          "indexed": true,
          "internalType": "address",
          "name": "approved",
          "type": "address"
        },
        {
          "indexed": true,
          "internalType": "uint256",
          "name": "tokenId",
          "type": "uint256"
        }
      ],
      "name": "Approval",
      "type": "event"
    },
    {
      "anonymous": false,
      "inputs": [
        {
          "indexed": true,
          "internalType": "address",
          "name": "owner",
          "type": "address"
        },
        {
          "indexed": true,
          "internalType": "address",
          "name": "operator",
          "type": "address"
        },
        {
          "indexed": false,
          "internalType": "bool",
          "name": "approved",
          "type": "bool"
        }
      ],
      "name": "ApprovalForAll",
      "type": "event"
    },
    {
      "anonymous": false,
      "inputs": [
        {
          "indexed": true,
          "internalType": "address",
          "name": "previousOwner",
          "type": "address"
        },
        {
          "indexed": true,
          "internalType": "address",
          "name": "newOwner",
          "type": "address"
        }
      ],
      "name": "OwnershipTransferred",
      "type": "event"
    },
    {
      "anonymous": false,
      "inputs": [
        {
          "indexed": true,
          "internalType": "address",
          "name": "from",
          "type": "address"
        },
        {
          "indexed": true,
          "internalType": "address",
          "name": "to",
          "type": "address"
        },
        {
          "indexed": true,
          "internalType": "uint256",
          "name": "tokenId",
          "type": "uint256"
        }
      ],
      "name": "Transfer",
      "type": "event"
    },
    {
      "inputs": [
        {
          "internalType": "address",
          "name": "to",
          "type": "address"
        },
        {
          "internalType": "uint256",
          "name": "tokenId",
          "type": "uint256"
        }
      ],
      "name": "approve",
      "outputs": [],
      "stateMutability": "nonpayable",
      "type": "function"
    },
    {
      "inputs": [
        {
          "internalType": "address",
          "name": "owner",
          "type": "address"
        }
      ],
      "name": "balanceOf",
      "outputs": [
        {
          "internalType": "uint256",
          "name": "",
          "type": "uint256"
        }
      ],
      "stateMutability": "view",
      "type": "function",
      "constant": true
    },
    {
      "inputs": [
        {
          "internalType": "uint256",
          "name": "tokenId",
          "type": "uint256"
        }
      ],
      "name": "burn",
      "outputs": [],
      "stateMutability": "nonpayable",
      "type": "function"
    },
    {
      "inputs": [
        {
          "internalType": "uint256",
          "name": "tokenId",
          "type": "uint256"
        }
      ],
      "name": "getApproved",
      "outputs": [
        {
          "internalType": "address",
          "name": "",
          "type": "address"
        }
      ],
      "stateMutability": "view",
      "type": "function",
      "constant": true
    },
    {
      "inputs": [
        {
          "internalType": "address",
          "name": "_address",
          "type": "address"
        },
        {
          "internalType": "uint256",
          "name": "_tokenId",
          "type": "uint256"
        }
      ],
      "name": "hashTokenAddress",
      "outputs": [
        {
          "internalType": "bytes32",
          "name": "",
          "type": "bytes32"
        }
      ],
      "stateMutability": "pure",
      "type": "function",
      "constant": true
    },
    {
      "inputs": [
        {
          "internalType": "address",
          "name": "checkAddress",
          "type": "address"
        },
        {
          "internalType": "address[]",
          "name": "arrayAddress",
          "type": "address[]"
        }
      ],
      "name": "indexOfAddress",
      "outputs": [
        {
          "internalType": "bool",
          "name": "",
          "type": "bool"
        }
      ],
      "stateMutability": "pure",
      "type": "function",
      "constant": true
    },
    {
      "inputs": [
        {
          "internalType": "uint256",
          "name": "checkTokenId",
          "type": "uint256"
        },
        {
          "internalType": "uint256[]",
          "name": "arrayTokenId",
          "type": "uint256[]"
        }
      ],
      "name": "indexOfTokenId",
      "outputs": [
        {
          "internalType": "bool",
          "name": "",
          "type": "bool"
        }
      ],
      "stateMutability": "pure",
      "type": "function",
      "constant": true
    },
    {
      "inputs": [
        {
          "internalType": "address",
          "name": "owner",
          "type": "address"
        },
        {
          "internalType": "address",
          "name": "operator",
          "type": "address"
        }
      ],
      "name": "isApprovedForAll",
      "outputs": [
        {
          "internalType": "bool",
          "name": "",
          "type": "bool"
        }
      ],
      "stateMutability": "view",
      "type": "function",
      "constant": true
    },
    {
      "inputs": [],
      "name": "name",
      "outputs": [
        {
          "internalType": "string",
          "name": "",
          "type": "string"
        }
      ],
      "stateMutability": "view",
      "type": "function",
      "constant": true
    },
    {
      "inputs": [],
      "name": "owner",
      "outputs": [
        {
          "internalType": "address",
          "name": "",
          "type": "address"
        }
      ],
      "stateMutability": "view",
      "type": "function",
      "constant": true
    },
    {
      "inputs": [
        {
          "internalType": "uint256",
          "name": "tokenId",
          "type": "uint256"
        }
      ],
      "name": "ownerOf",
      "outputs": [
        {
          "internalType": "address",
          "name": "",
          "type": "address"
        }
      ],
      "stateMutability": "view",
      "type": "function",
      "constant": true
    },
    {
      "inputs": [],
      "name": "renounceOwnership",
      "outputs": [],
      "stateMutability": "nonpayable",
      "type": "function"
    },
    {
      "inputs": [
        {
          "internalType": "address",
          "name": "from",
          "type": "address"
        },
        {
          "internalType": "address",
          "name": "to",
          "type": "address"
        },
        {
          "internalType": "uint256",
          "name": "tokenId",
          "type": "uint256"
        }
      ],
      "name": "safeTransferFrom",
      "outputs": [],
      "stateMutability": "nonpayable",
      "type": "function"
    },
    {
      "inputs": [
        {
          "internalType": "address",
          "name": "from",
          "type": "address"
        },
        {
          "internalType": "address",
          "name": "to",
          "type": "address"
        },
        {
          "internalType": "uint256",
          "name": "tokenId",
          "type": "uint256"
        },
        {
          "internalType": "bytes",
          "name": "data",
          "type": "bytes"
        }
      ],
      "name": "safeTransferFrom",
      "outputs": [],
      "stateMutability": "nonpayable",
      "type": "function"
    },
    {
      "inputs": [
        {
          "internalType": "address",
          "name": "operator",
          "type": "address"
        },
        {
          "internalType": "bool",
          "name": "approved",
          "type": "bool"
        }
      ],
      "name": "setApprovalForAll",
      "outputs": [],
      "stateMutability": "nonpayable",
      "type": "function"
    },
    {
      "inputs": [
        {
          "internalType": "bytes4",
          "name": "interfaceId",
          "type": "bytes4"
        }
      ],
      "name": "supportsInterface",
      "outputs": [
        {
          "internalType": "bool",
          "name": "",
          "type": "bool"
        }
      ],
      "stateMutability": "view",
      "type": "function",
      "constant": true
    },
    {
      "inputs": [],
      "name": "symbol",
      "outputs": [
        {
          "internalType": "string",
          "name": "",
          "type": "string"
        }
      ],
      "stateMutability": "view",
      "type": "function",
      "constant": true
    },
    {
      "inputs": [
        {
          "internalType": "address",
          "name": "newOwner",
          "type": "address"
        }
      ],
      "name": "transferOwnership",
      "outputs": [],
      "stateMutability": "nonpayable",
      "type": "function"
    },
    {
      "inputs": [
        {
          "internalType": "address",
          "name": "to",
          "type": "address"
        },
        {
          "internalType": "string",
          "name": "uri",
          "type": "string"
        }
      ],
      "name": "safeMint",
      "outputs": [],
      "stateMutability": "nonpayable",
      "type": "function"
    },
    {
      "inputs": [
        {
          "internalType": "address",
          "name": "to",
          "type": "address"
        },
        {
          "internalType": "string",
          "name": "uri",
          "type": "string"
        },
        {
          "internalType": "address[]",
          "name": "sharedOwners",
          "type": "address[]"
        }
      ],
      "name": "safeMint",
      "outputs": [],
      "stateMutability": "nonpayable",
      "type": "function"
    },
    {
      "inputs": [
        {
          "internalType": "address",
          "name": "sharedOwner",
          "type": "address"
        },
        {
          "internalType": "uint256",
          "name": "tokenId",
          "type": "uint256"
        }
      ],
      "name": "sharedTokenOwner",
      "outputs": [
        {
          "components": [
            {
              "internalType": "uint256",
              "name": "tokenId",
              "type": "uint256"
            },
            {
              "internalType": "bool",
              "name": "isSharing",
              "type": "bool"
            },
            {
              "internalType": "address",
              "name": "originalOwner",
              "type": "address"
            }
          ],
          "internalType": "struct LandToken.TokenSharedOwnerStruct",
          "name": "",
          "type": "tuple"
        }
      ],
      "stateMutability": "view",
      "type": "function",
      "constant": true
    },
    {
      "inputs": [
        {
          "internalType": "address",
          "name": "owner",
          "type": "address"
        },
        {
          "internalType": "uint256",
          "name": "tokenId",
          "type": "uint256"
        }
      ],
      "name": "sharedOwnerList",
      "outputs": [
        {
          "internalType": "address[]",
          "name": "",
          "type": "address[]"
        }
      ],
      "stateMutability": "view",
      "type": "function",
      "constant": true
    },
    {
      "inputs": [
        {
          "internalType": "uint256",
          "name": "tokenId",
          "type": "uint256"
        }
      ],
      "name": "tokenURI",
      "outputs": [
        {
          "internalType": "string",
          "name": "",
          "type": "string"
        }
      ],
      "stateMutability": "view",
      "type": "function",
      "constant": true
    },
    {
      "inputs": [
        {
          "internalType": "address",
          "name": "owner",
          "type": "address"
        },
        {
          "internalType": "address[]",
          "name": "sharedOwners",
          "type": "address[]"
        },
        {
          "internalType": "uint256",
          "name": "tokenId",
          "type": "uint256"
        }
      ],
      "name": "setSharedOwners",
      "outputs": [],
      "stateMutability": "nonpayable",
      "type": "function"
    },
    {
      "inputs": [
        {
          "internalType": "address",
          "name": "from",
          "type": "address"
        },
        {
          "internalType": "address",
          "name": "to",
          "type": "address"
        },
        {
          "internalType": "uint256",
          "name": "tokenId",
          "type": "uint256"
        }
      ],
      "name": "transferFrom",
      "outputs": [],
      "stateMutability": "nonpayable",
      "type": "function"
    },
    {
      "inputs": [
        {
          "internalType": "address",
          "name": "from",
          "type": "address"
        },
        {
          "internalType": "address",
          "name": "to",
          "type": "address"
        },
        {
          "internalType": "uint256",
          "name": "tokenId",
          "type": "uint256"
        },
        {
          "internalType": "address[]",
          "name": "_sharedOwners",
          "type": "address[]"
        }
      ],
      "name": "transferFrom",
      "outputs": [],
      "stateMutability": "nonpayable",
      "type": "function"
    }
  ],
  "bytecode": "0x60806040523480156200001157600080fd5b506040518060400160405280600981526020017f4c616e64546f6b656e00000000000000000000000000000000000000000000008152506040518060400160405280600381526020017f4c5454000000000000000000000000000000000000000000000000000000000081525081600090816200008f919062000412565b508060019081620000a1919062000412565b505050620000c4620000b8620000ca60201b60201c565b620000d260201b60201c565b620004f9565b600033905090565b6000600760009054906101000a900473ffffffffffffffffffffffffffffffffffffffff16905081600760006101000a81548173ffffffffffffffffffffffffffffffffffffffff021916908373ffffffffffffffffffffffffffffffffffffffff1602179055508173ffffffffffffffffffffffffffffffffffffffff168173ffffffffffffffffffffffffffffffffffffffff167f8be0079c531659141344cd1fd0a4f28419497f9722a3daafe3b4186f6b6457e060405160405180910390a35050565b600081519050919050565b7f4e487b7100000000000000000000000000000000000000000000000000000000600052604160045260246000fd5b7f4e487b7100000000000000000000000000000000000000000000000000000000600052602260045260246000fd5b600060028204905060018216806200021a57607f821691505b60208210810362000230576200022f620001d2565b5b50919050565b60008190508160005260206000209050919050565b60006020601f8301049050919050565b600082821b905092915050565b6000600883026200029a7fffffffffffffffffffffffffffffffffffffffffffffffffffffffffffffffff826200025b565b620002a686836200025b565b95508019841693508086168417925050509392505050565b6000819050919050565b6000819050919050565b6000620002f3620002ed620002e784620002be565b620002c8565b620002be565b9050919050565b6000819050919050565b6200030f83620002d2565b620003276200031e82620002fa565b84845462000268565b825550505050565b600090565b6200033e6200032f565b6200034b81848462000304565b505050565b5b8181101562000373576200036760008262000334565b60018101905062000351565b5050565b601f821115620003c2576200038c8162000236565b62000397846200024b565b81016020851015620003a7578190505b620003bf620003b6856200024b565b83018262000350565b50505b505050565b600082821c905092915050565b6000620003e760001984600802620003c7565b1980831691505092915050565b6000620004028383620003d4565b9150826002028217905092915050565b6200041d8262000198565b67ffffffffffffffff811115620004395762000438620001a3565b5b62000445825462000201565b6200045282828562000377565b600060209050601f8311600181146200048a576000841562000475578287015190505b620004818582620003f4565b865550620004f1565b601f1984166200049a8662000236565b60005b82811015620004c4578489015182556001820191506020850194506020810190506200049d565b86831015620004e45784890151620004e0601f891682620003d4565b8355505b6001600288020188555050505b505050505050565b614b4080620005096000396000f3fe608060405234801561001057600080fd5b506004361061018e5760003560e01c80638da5cb5b116100de578063c87b56dd11610097578063e26744c711610071578063e26744c7146104a3578063e985e9c5146104d3578063ebf4ec3e14610503578063f2fde38b1461051f5761018e565b8063c87b56dd14610427578063d204c45e14610457578063dfcd3082146104735761018e565b80638da5cb5b1461035357806395d89b4114610371578063a12ca11d1461038f578063a22cb465146103bf578063b88d4fde146103db578063bda6b691146103f75761018e565b806341db4eaf1161014b5780636352211e116101255780636352211e146102cd57806370a08231146102fd578063715018a61461032d57806382466f5d146103375761018e565b806341db4eaf1461026557806342842e0e1461029557806342966c68146102b15761018e565b806301ffc9a71461019357806306fdde03146101c3578063081812fc146101e1578063095ea7b3146102115780630f1389b11461022d57806323b872dd14610249575b600080fd5b6101ad60048036038101906101a8919061323f565b61053b565b6040516101ba9190613287565b60405180910390f35b6101cb61061d565b6040516101d89190613332565b60405180910390f35b6101fb60048036038101906101f6919061338a565b6106af565b60405161020891906133f8565b60405180910390f35b61022b6004803603810190610226919061343f565b6106f5565b005b610247600480360381019061024291906135c7565b61080c565b005b610263600480360381019061025e9190613636565b610a05565b005b61027f600480360381019061027a919061343f565b610d2b565b60405161028c9190613747565b60405180910390f35b6102af60048036038101906102aa9190613636565b610ddf565b005b6102cb60048036038101906102c6919061338a565b610dff565b005b6102e760048036038101906102e2919061338a565b610e5b565b6040516102f491906133f8565b60405180910390f35b61031760048036038101906103129190613769565b610ee1565b60405161032491906137a5565b60405180910390f35b610335610f98565b005b610351600480360381019061034c91906137c0565b610fac565b005b61035b6113d7565b60405161036891906133f8565b60405180910390f35b610379611401565b6040516103869190613332565b60405180910390f35b6103a960048036038101906103a4919061343f565b611493565b6040516103b6919061385c565b60405180910390f35b6103d960048036038101906103d491906138a3565b6114c6565b005b6103f560048036038101906103f09190613998565b6114dc565b005b610411600480360381019061040c9190613a1b565b61153e565b60405161041e9190613287565b60405180910390f35b610441600480360381019061043c919061338a565b6115c5565b60405161044e9190613332565b60405180910390f35b610471600480360381019061046c9190613b18565b6115d7565b005b61048d60048036038101906104889190613c37565b611695565b60405161049a9190613287565b60405180910390f35b6104bd60048036038101906104b8919061343f565b6116f0565b6040516104ca9190613cf3565b60405180910390f35b6104ed60048036038101906104e89190613d0e565b6117a8565b6040516104fa9190613287565b60405180910390f35b61051d60048036038101906105189190613d4e565b61183c565b005b61053960048036038101906105349190613769565b6119fc565b005b60007f80ac58cd000000000000000000000000000000000000000000000000000000007bffffffffffffffffffffffffffffffffffffffffffffffffffffffff1916827bffffffffffffffffffffffffffffffffffffffffffffffffffffffff1916148061060657507f5b5e139f000000000000000000000000000000000000000000000000000000007bffffffffffffffffffffffffffffffffffffffffffffffffffffffff1916827bffffffffffffffffffffffffffffffffffffffffffffffffffffffff1916145b80610616575061061582611a7f565b5b9050919050565b60606000805461062c90613e08565b80601f016020809104026020016040519081016040528092919081815260200182805461065890613e08565b80156106a55780601f1061067a576101008083540402835291602001916106a5565b820191906000526020600020905b81548152906001019060200180831161068857829003601f168201915b5050505050905090565b60006106ba82611ae9565b6004600083815260200190815260200160002060009054906101000a900473ffffffffffffffffffffffffffffffffffffffff169050919050565b600061070082610e5b565b90508073ffffffffffffffffffffffffffffffffffffffff168373ffffffffffffffffffffffffffffffffffffffff1603610770576040517f08c379a000000000000000000000000000000000000000000000000000000000815260040161076790613eab565b60405180910390fd5b8073ffffffffffffffffffffffffffffffffffffffff1661078f611b34565b73ffffffffffffffffffffffffffffffffffffffff1614806107be57506107bd816107b8611b34565b6117a8565b5b6107fd576040517f08c379a00000000000000000000000000000000000000000000000000000000081526004016107f490613f3d565b60405180910390fd5b6108078383611b3c565b505050565b61081d610817611b34565b82611bf5565b61085c576040517f08c379a000000000000000000000000000000000000000000000000000000000815260040161085390613fcf565b60405180910390fd5b60006108688483611493565b905060005b83518110156109fe57600061089c85838151811061088e5761088d613fef565b5b602002602001015185611493565b9050600860008481526020019081526020016000206002018583815181106108c7576108c6613fef565b5b60200260200101519080600181540180825580915050600190039060005260206000200160009091909190916101000a81548173ffffffffffffffffffffffffffffffffffffffff021916908373ffffffffffffffffffffffffffffffffffffffff16021790555060405180606001604052808581526020016001151581526020018773ffffffffffffffffffffffffffffffffffffffff16815250600960008381526020019081526020016000206000820151816000015560208201518160010160006101000a81548160ff02191690831515021790555060408201518160010160016101000a81548173ffffffffffffffffffffffffffffffffffffffff021916908373ffffffffffffffffffffffffffffffffffffffff1602179055509050505080806109f69061404d565b91505061086d565b5050505050565b610a16610a10611b34565b82611bf5565b610a55576040517f08c379a0000000000000000000000000000000000000000000000000000000008152600401610a4c90613fcf565b60405180910390fd5b610a60838383611c8a565b6000610a6c8483611493565b9050600060086000838152602001908152602001600020600201805480602002602001604051908101604052809291908181526020018280548015610b0657602002820191906000526020600020905b8160009054906101000a900473ffffffffffffffffffffffffffffffffffffffff1673ffffffffffffffffffffffffffffffffffffffff1681526020019060010190808311610abc575b5050505050905060005b8151811015610c15576000610b3f838381518110610b3157610b30613fef565b5b602002602001015186611493565b9050604051806060016040528063298ae9e08152602001600015158152602001600073ffffffffffffffffffffffffffffffffffffffff16815250600960008381526020019081526020016000206000820151816000015560208201518160010160006101000a81548160ff02191690831515021790555060408201518160010160016101000a81548173ffffffffffffffffffffffffffffffffffffffff021916908373ffffffffffffffffffffffffffffffffffffffff160217905550905050508080610c0d9061404d565b915050610b10565b5060606040518060600160405280650656c24fe3e0815260200160001515815260200182815250600860008581526020019081526020016000206000820151816000015560208201518160010160006101000a81548160ff0219169083151502179055506040820151816002019080519060200190610c959291906130b3565b509050506000610ca58686611493565b9050604051806060016040528086815260200160001515815260200183815250600860008381526020019081526020016000206000820151816000015560208201518160010160006101000a81548160ff0219169083151502179055506040820151816002019080519060200190610d1e9291906130b3565b5090505050505050505050565b60606000610d398484611493565b905060086000828152602001908152602001600020600201805480602002602001604051908101604052809291908181526020018280548015610dd157602002820191906000526020600020905b8160009054906101000a900473ffffffffffffffffffffffffffffffffffffffff1673ffffffffffffffffffffffffffffffffffffffff1681526020019060010190808311610d87575b505050505091505092915050565b610dfa838383604051806020016040528060008152506114dc565b505050565b610e10610e0a611b34565b82611bf5565b610e4f576040517f08c379a0000000000000000000000000000000000000000000000000000000008152600401610e4690613fcf565b60405180910390fd5b610e5881611f83565b50565b600080610e67836121d9565b9050600073ffffffffffffffffffffffffffffffffffffffff168173ffffffffffffffffffffffffffffffffffffffff1603610ed8576040517f08c379a0000000000000000000000000000000000000000000000000000000008152600401610ecf906140e1565b60405180910390fd5b80915050919050565b60008073ffffffffffffffffffffffffffffffffffffffff168273ffffffffffffffffffffffffffffffffffffffff1603610f51576040517f08c379a0000000000000000000000000000000000000000000000000000000008152600401610f4890614173565b60405180910390fd5b600360008373ffffffffffffffffffffffffffffffffffffffff1673ffffffffffffffffffffffffffffffffffffffff168152602001908152602001600020549050919050565b610fa0612216565b610faa6000612294565b565b610fbd610fb7611b34565b83611bf5565b610ffc576040517f08c379a0000000000000000000000000000000000000000000000000000000008152600401610ff390613fcf565b60405180910390fd5b611007848484611c8a565b60006110138584611493565b90506000600860008381526020019081526020016000206002018054806020026020016040519081016040528092919081815260200182805480156110ad57602002820191906000526020600020905b8160009054906101000a900473ffffffffffffffffffffffffffffffffffffffff1673ffffffffffffffffffffffffffffffffffffffff1681526020019060010190808311611063575b5050505050905060005b81518110156111bc5760006110e68383815181106110d8576110d7613fef565b5b602002602001015187611493565b9050604051806060016040528063298ae9e08152602001600015158152602001600073ffffffffffffffffffffffffffffffffffffffff16815250600960008381526020019081526020016000206000820151816000015560208201518160010160006101000a81548160ff02191690831515021790555060408201518160010160016101000a81548173ffffffffffffffffffffffffffffffffffffffff021916908373ffffffffffffffffffffffffffffffffffffffff1602179055509050505080806111b49061404d565b9150506110b7565b5060606040518060600160405280650656c24fe3e0815260200160001515815260200182815250600860008581526020019081526020016000206000820151816000015560208201518160010160006101000a81548160ff021916908315150217905550604082015181600201908051906020019061123c9291906130b3565b50905050600061124c8787611493565b9050604051806060016040528087815260200160011515815260200186815250600860008381526020019081526020016000206000820151816000015560208201518160010160006101000a81548160ff02191690831515021790555060408201518160020190805190602001906112c59291906130b3565b5090505060005b85518110156113cc5760006112fb8783815181106112ed576112ec613fef565b5b602002602001015189611493565b905060405180606001604052808981526020016001151581526020018a73ffffffffffffffffffffffffffffffffffffffff16815250600960008381526020019081526020016000206000820151816000015560208201518160010160006101000a81548160ff02191690831515021790555060408201518160010160016101000a81548173ffffffffffffffffffffffffffffffffffffffff021916908373ffffffffffffffffffffffffffffffffffffffff1602179055509050505080806113c49061404d565b9150506112cc565b505050505050505050565b6000600760009054906101000a900473ffffffffffffffffffffffffffffffffffffffff16905090565b60606001805461141090613e08565b80601f016020809104026020016040519081016040528092919081815260200182805461143c90613e08565b80156114895780601f1061145e57610100808354040283529160200191611489565b820191906000526020600020905b81548152906001019060200180831161146c57829003601f168201915b5050505050905090565b600082826040516020016114a89291906141fc565b60405160208183030381529060405280519060200120905092915050565b6114d86114d1611b34565b838361235a565b5050565b6114ed6114e7611b34565b83611bf5565b61152c576040517f08c379a000000000000000000000000000000000000000000000000000000000815260040161152390613fcf565b60405180910390fd5b611538848484846124c6565b50505050565b6000806000905060005b83518110156115ba5783818151811061156457611563613fef565b5b602002602001015173ffffffffffffffffffffffffffffffffffffffff168573ffffffffffffffffffffffffffffffffffffffff16036115a757600191506115ba565b80806115b29061404d565b915050611548565b508091505092915050565b60606115d082612522565b9050919050565b60006115e3600a612634565b90506115ef600a612642565b6115f98382612658565b6116038183612676565b606060006116118584611493565b9050604051806060016040528084815260200160001515815260200183815250600860008381526020019081526020016000206000820151816000015560208201518160010160006101000a81548160ff021916908315150217905550604082015181600201908051906020019061168a9291906130b3565b509050505050505050565b6000806000905060005b83518110156116e5578381815181106116bb576116ba613fef565b5b602002602001015185036116d257600191506116e5565b80806116dd9061404d565b91505061169f565b508091505092915050565b6116f861313d565b60006117048484611493565b905060096000828152602001908152602001600020604051806060016040529081600082015481526020016001820160009054906101000a900460ff161515151581526020016001820160019054906101000a900473ffffffffffffffffffffffffffffffffffffffff1673ffffffffffffffffffffffffffffffffffffffff1673ffffffffffffffffffffffffffffffffffffffff168152505091505092915050565b6000600560008473ffffffffffffffffffffffffffffffffffffffff1673ffffffffffffffffffffffffffffffffffffffff16815260200190815260200160002060008373ffffffffffffffffffffffffffffffffffffffff1673ffffffffffffffffffffffffffffffffffffffff16815260200190815260200160002060009054906101000a900460ff16905092915050565b6000611848600a612634565b9050611854600a612642565b61185e8482612658565b6118688184612676565b60006118748583611493565b9050604051806060016040528083815260200160011515815260200184815250600860008381526020019081526020016000206000820151816000015560208201518160010160006101000a81548160ff02191690831515021790555060408201518160020190805190602001906118ed9291906130b3565b5090505060005b83518110156119f457600061192385838151811061191557611914613fef565b5b602002602001015185611493565b905060405180606001604052808581526020016001151581526020018873ffffffffffffffffffffffffffffffffffffffff16815250600960008381526020019081526020016000206000820151816000015560208201518160010160006101000a81548160ff02191690831515021790555060408201518160010160016101000a81548173ffffffffffffffffffffffffffffffffffffffff021916908373ffffffffffffffffffffffffffffffffffffffff1602179055509050505080806119ec9061404d565b9150506118f4565b505050505050565b611a04612216565b600073ffffffffffffffffffffffffffffffffffffffff168173ffffffffffffffffffffffffffffffffffffffff1603611a73576040517f08c379a0000000000000000000000000000000000000000000000000000000008152600401611a6a9061429a565b60405180910390fd5b611a7c81612294565b50565b60007f01ffc9a7000000000000000000000000000000000000000000000000000000007bffffffffffffffffffffffffffffffffffffffffffffffffffffffff1916827bffffffffffffffffffffffffffffffffffffffffffffffffffffffff1916149050919050565b611af2816126e3565b611b31576040517f08c379a0000000000000000000000000000000000000000000000000000000008152600401611b28906140e1565b60405180910390fd5b50565b600033905090565b816004600083815260200190815260200160002060006101000a81548173ffffffffffffffffffffffffffffffffffffffff021916908373ffffffffffffffffffffffffffffffffffffffff160217905550808273ffffffffffffffffffffffffffffffffffffffff16611baf83610e5b565b73ffffffffffffffffffffffffffffffffffffffff167f8c5be1e5ebec7d5bd14f71427d1e84f3dd0314c0f7b2291e5b200ac8c7c3b92560405160405180910390a45050565b600080611c0183610e5b565b90508073ffffffffffffffffffffffffffffffffffffffff168473ffffffffffffffffffffffffffffffffffffffff161480611c435750611c4281856117a8565b5b80611c8157508373ffffffffffffffffffffffffffffffffffffffff16611c69846106af565b73ffffffffffffffffffffffffffffffffffffffff16145b91505092915050565b8273ffffffffffffffffffffffffffffffffffffffff16611caa82610e5b565b73ffffffffffffffffffffffffffffffffffffffff1614611d00576040517f08c379a0000000000000000000000000000000000000000000000000000000008152600401611cf79061432c565b60405180910390fd5b600073ffffffffffffffffffffffffffffffffffffffff168273ffffffffffffffffffffffffffffffffffffffff1603611d6f576040517f08c379a0000000000000000000000000000000000000000000000000000000008152600401611d66906143be565b60405180910390fd5b611d7c8383836001612724565b8273ffffffffffffffffffffffffffffffffffffffff16611d9c82610e5b565b73ffffffffffffffffffffffffffffffffffffffff1614611df2576040517f08c379a0000000000000000000000000000000000000000000000000000000008152600401611de99061432c565b60405180910390fd5b6004600082815260200190815260200160002060006101000a81549073ffffffffffffffffffffffffffffffffffffffff02191690556001600360008573ffffffffffffffffffffffffffffffffffffffff1673ffffffffffffffffffffffffffffffffffffffff168152602001908152602001600020600082825403925050819055506001600360008473ffffffffffffffffffffffffffffffffffffffff1673ffffffffffffffffffffffffffffffffffffffff16815260200190815260200160002060008282540192505081905550816002600083815260200190815260200160002060006101000a81548173ffffffffffffffffffffffffffffffffffffffff021916908373ffffffffffffffffffffffffffffffffffffffff160217905550808273ffffffffffffffffffffffffffffffffffffffff168473ffffffffffffffffffffffffffffffffffffffff167fddf252ad1be2c89b69c2b068fc378daa952ba7f163c4a11628f55a4df523b3ef60405160405180910390a4611f7e838383600161284a565b505050565b6000611f8e82610e5b565b90506000611f9c8284611493565b905060006008600083815260200190815260200160002060020180548060200260200160405190810160405280929190818152602001828054801561203657602002820191906000526020600020905b8160009054906101000a900473ffffffffffffffffffffffffffffffffffffffff1673ffffffffffffffffffffffffffffffffffffffff1681526020019060010190808311611fec575b5050505050905060005b815181101561214557600061206f83838151811061206157612060613fef565b5b602002602001015187611493565b9050604051806060016040528063298ae9e08152602001600015158152602001600073ffffffffffffffffffffffffffffffffffffffff16815250600960008381526020019081526020016000206000820151816000015560208201518160010160006101000a81548160ff02191690831515021790555060408201518160010160016101000a81548173ffffffffffffffffffffffffffffffffffffffff021916908373ffffffffffffffffffffffffffffffffffffffff16021790555090505050808061213d9061404d565b915050612040565b5060606040518060600160405280650656c24fe3e0815260200160001515815260200182815250600860008581526020019081526020016000206000820151816000015560208201518160010160006101000a81548160ff02191690831515021790555060408201518160020190805190602001906121c59291906130b3565b509050506121d285612850565b5050505050565b60006002600083815260200190815260200160002060009054906101000a900473ffffffffffffffffffffffffffffffffffffffff169050919050565b61221e611b34565b73ffffffffffffffffffffffffffffffffffffffff1661223c6113d7565b73ffffffffffffffffffffffffffffffffffffffff1614612292576040517f08c379a00000000000000000000000000000000000000000000000000000000081526004016122899061442a565b60405180910390fd5b565b6000600760009054906101000a900473ffffffffffffffffffffffffffffffffffffffff16905081600760006101000a81548173ffffffffffffffffffffffffffffffffffffffff021916908373ffffffffffffffffffffffffffffffffffffffff1602179055508173ffffffffffffffffffffffffffffffffffffffff168173ffffffffffffffffffffffffffffffffffffffff167f8be0079c531659141344cd1fd0a4f28419497f9722a3daafe3b4186f6b6457e060405160405180910390a35050565b8173ffffffffffffffffffffffffffffffffffffffff168373ffffffffffffffffffffffffffffffffffffffff16036123c8576040517f08c379a00000000000000000000000000000000000000000000000000000000081526004016123bf90614496565b60405180910390fd5b80600560008573ffffffffffffffffffffffffffffffffffffffff1673ffffffffffffffffffffffffffffffffffffffff16815260200190815260200160002060008473ffffffffffffffffffffffffffffffffffffffff1673ffffffffffffffffffffffffffffffffffffffff16815260200190815260200160002060006101000a81548160ff0219169083151502179055508173ffffffffffffffffffffffffffffffffffffffff168373ffffffffffffffffffffffffffffffffffffffff167f17307eab39ab6107e8899845ad3d59bd9653f200f220920489ca2b5937696c31836040516124b99190613287565b60405180910390a3505050565b6124d1848484611c8a565b6124dd848484846128a3565b61251c576040517f08c379a000000000000000000000000000000000000000000000000000000000815260040161251390614528565b60405180910390fd5b50505050565b606061252d82611ae9565b600060066000848152602001908152602001600020805461254d90613e08565b80601f016020809104026020016040519081016040528092919081815260200182805461257990613e08565b80156125c65780601f1061259b576101008083540402835291602001916125c6565b820191906000526020600020905b8154815290600101906020018083116125a957829003601f168201915b5050505050905060006125d7612a2a565b905060008151036125ec57819250505061262f565b600082511115612621578082604051602001612609929190614584565b6040516020818303038152906040529250505061262f565b61262a84612a41565b925050505b919050565b600081600001549050919050565b6001816000016000828254019250508190555050565b612672828260405180602001604052806000815250612aa9565b5050565b61267f826126e3565b6126be576040517f08c379a00000000000000000000000000000000000000000000000000000000081526004016126b59061461a565b60405180910390fd5b806006600084815260200190815260200160002090816126de91906147e6565b505050565b60008073ffffffffffffffffffffffffffffffffffffffff16612705836121d9565b73ffffffffffffffffffffffffffffffffffffffff1614159050919050565b600181111561284457600073ffffffffffffffffffffffffffffffffffffffff168473ffffffffffffffffffffffffffffffffffffffff16146127b85780600360008673ffffffffffffffffffffffffffffffffffffffff1673ffffffffffffffffffffffffffffffffffffffff16815260200190815260200160002060008282546127b091906148b8565b925050819055505b600073ffffffffffffffffffffffffffffffffffffffff168373ffffffffffffffffffffffffffffffffffffffff16146128435780600360008573ffffffffffffffffffffffffffffffffffffffff1673ffffffffffffffffffffffffffffffffffffffff168152602001908152602001600020600082825461283b91906148ec565b925050819055505b5b50505050565b50505050565b61285981612b04565b600060066000838152602001908152602001600020805461287990613e08565b9050146128a05760066000828152602001908152602001600020600061289f9190613176565b5b50565b60006128c48473ffffffffffffffffffffffffffffffffffffffff16612c52565b15612a1d578373ffffffffffffffffffffffffffffffffffffffff1663150b7a026128ed611b34565b8786866040518563ffffffff1660e01b815260040161290f9493929190614975565b6020604051808303816000875af192505050801561294b57506040513d601f19601f8201168201806040525081019061294891906149d6565b60015b6129cd573d806000811461297b576040519150601f19603f3d011682016040523d82523d6000602084013e612980565b606091505b5060008151036129c5576040517f08c379a00000000000000000000000000000000000000000000000000000000081526004016129bc90614528565b60405180910390fd5b805181602001fd5b63150b7a0260e01b7bffffffffffffffffffffffffffffffffffffffffffffffffffffffff1916817bffffffffffffffffffffffffffffffffffffffffffffffffffffffff191614915050612a22565b600190505b949350505050565b606060405180602001604052806000815250905090565b6060612a4c82611ae9565b6000612a56612a2a565b90506000815111612a765760405180602001604052806000815250612aa1565b80612a8084612c75565b604051602001612a91929190614584565b6040516020818303038152906040525b915050919050565b612ab38383612d43565b612ac060008484846128a3565b612aff576040517f08c379a0000000000000000000000000000000000000000000000000000000008152600401612af690614528565b60405180910390fd5b505050565b6000612b0f82610e5b565b9050612b1f816000846001612724565b612b2882610e5b565b90506004600083815260200190815260200160002060006101000a81549073ffffffffffffffffffffffffffffffffffffffff02191690556001600360008373ffffffffffffffffffffffffffffffffffffffff1673ffffffffffffffffffffffffffffffffffffffff168152602001908152602001600020600082825403925050819055506002600083815260200190815260200160002060006101000a81549073ffffffffffffffffffffffffffffffffffffffff021916905581600073ffffffffffffffffffffffffffffffffffffffff168273ffffffffffffffffffffffffffffffffffffffff167fddf252ad1be2c89b69c2b068fc378daa952ba7f163c4a11628f55a4df523b3ef60405160405180910390a4612c4e81600084600161284a565b5050565b6000808273ffffffffffffffffffffffffffffffffffffffff163b119050919050565b606060006001612c8484612f60565b01905060008167ffffffffffffffff811115612ca357612ca2613484565b5b6040519080825280601f01601f191660200182016040528015612cd55781602001600182028036833780820191505090505b509050600082602001820190505b600115612d38578080600190039150507f3031323334353637383961626364656600000000000000000000000000000000600a86061a8153600a8581612d2c57612d2b614a03565b5b04945060008503612ce3575b819350505050919050565b600073ffffffffffffffffffffffffffffffffffffffff168273ffffffffffffffffffffffffffffffffffffffff1603612db2576040517f08c379a0000000000000000000000000000000000000000000000000000000008152600401612da990614a7e565b60405180910390fd5b612dbb816126e3565b15612dfb576040517f08c379a0000000000000000000000000000000000000000000000000000000008152600401612df290614aea565b60405180910390fd5b612e09600083836001612724565b612e12816126e3565b15612e52576040517f08c379a0000000000000000000000000000000000000000000000000000000008152600401612e4990614aea565b60405180910390fd5b6001600360008473ffffffffffffffffffffffffffffffffffffffff1673ffffffffffffffffffffffffffffffffffffffff16815260200190815260200160002060008282540192505081905550816002600083815260200190815260200160002060006101000a81548173ffffffffffffffffffffffffffffffffffffffff021916908373ffffffffffffffffffffffffffffffffffffffff160217905550808273ffffffffffffffffffffffffffffffffffffffff16600073ffffffffffffffffffffffffffffffffffffffff167fddf252ad1be2c89b69c2b068fc378daa952ba7f163c4a11628f55a4df523b3ef60405160405180910390a4612f5c60008383600161284a565b5050565b600080600090507a184f03e93ff9f4daa797ed6e38ed64bf6a1f0100000000000000008310612fbe577a184f03e93ff9f4daa797ed6e38ed64bf6a1f0100000000000000008381612fb457612fb3614a03565b5b0492506040810190505b6d04ee2d6d415b85acef81000000008310612ffb576d04ee2d6d415b85acef81000000008381612ff157612ff0614a03565b5b0492506020810190505b662386f26fc10000831061302a57662386f26fc1000083816130205761301f614a03565b5b0492506010810190505b6305f5e1008310613053576305f5e100838161304957613048614a03565b5b0492506008810190505b612710831061307857612710838161306e5761306d614a03565b5b0492506004810190505b6064831061309b576064838161309157613090614a03565b5b0492506002810190505b600a83106130aa576001810190505b80915050919050565b82805482825590600052602060002090810192821561312c579160200282015b8281111561312b5782518260006101000a81548173ffffffffffffffffffffffffffffffffffffffff021916908373ffffffffffffffffffffffffffffffffffffffff160217905550916020019190600101906130d3565b5b50905061313991906131b6565b5090565b604051806060016040528060008152602001600015158152602001600073ffffffffffffffffffffffffffffffffffffffff1681525090565b50805461318290613e08565b6000825580601f1061319457506131b3565b601f0160209004906000526020600020908101906131b291906131b6565b5b50565b5b808211156131cf5760008160009055506001016131b7565b5090565b6000604051905090565b600080fd5b600080fd5b60007fffffffff0000000000000000000000000000000000000000000000000000000082169050919050565b61321c816131e7565b811461322757600080fd5b50565b60008135905061323981613213565b92915050565b600060208284031215613255576132546131dd565b5b60006132638482850161322a565b91505092915050565b60008115159050919050565b6132818161326c565b82525050565b600060208201905061329c6000830184613278565b92915050565b600081519050919050565b600082825260208201905092915050565b60005b838110156132dc5780820151818401526020810190506132c1565b60008484015250505050565b6000601f19601f8301169050919050565b6000613304826132a2565b61330e81856132ad565b935061331e8185602086016132be565b613327816132e8565b840191505092915050565b6000602082019050818103600083015261334c81846132f9565b905092915050565b6000819050919050565b61336781613354565b811461337257600080fd5b50565b6000813590506133848161335e565b92915050565b6000602082840312156133a05761339f6131dd565b5b60006133ae84828501613375565b91505092915050565b600073ffffffffffffffffffffffffffffffffffffffff82169050919050565b60006133e2826133b7565b9050919050565b6133f2816133d7565b82525050565b600060208201905061340d60008301846133e9565b92915050565b61341c816133d7565b811461342757600080fd5b50565b60008135905061343981613413565b92915050565b60008060408385031215613456576134556131dd565b5b60006134648582860161342a565b925050602061347585828601613375565b9150509250929050565b600080fd5b7f4e487b7100000000000000000000000000000000000000000000000000000000600052604160045260246000fd5b6134bc826132e8565b810181811067ffffffffffffffff821117156134db576134da613484565b5b80604052505050565b60006134ee6131d3565b90506134fa82826134b3565b919050565b600067ffffffffffffffff82111561351a57613519613484565b5b602082029050602081019050919050565b600080fd5b600061354361353e846134ff565b6134e4565b905080838252602082019050602084028301858111156135665761356561352b565b5b835b8181101561358f578061357b888261342a565b845260208401935050602081019050613568565b5050509392505050565b600082601f8301126135ae576135ad61347f565b5b81356135be848260208601613530565b91505092915050565b6000806000606084860312156135e0576135df6131dd565b5b60006135ee8682870161342a565b935050602084013567ffffffffffffffff81111561360f5761360e6131e2565b5b61361b86828701613599565b925050604061362c86828701613375565b9150509250925092565b60008060006060848603121561364f5761364e6131dd565b5b600061365d8682870161342a565b935050602061366e8682870161342a565b925050604061367f86828701613375565b9150509250925092565b600081519050919050565b600082825260208201905092915050565b6000819050602082019050919050565b6136be816133d7565b82525050565b60006136d083836136b5565b60208301905092915050565b6000602082019050919050565b60006136f482613689565b6136fe8185613694565b9350613709836136a5565b8060005b8381101561373a57815161372188826136c4565b975061372c836136dc565b92505060018101905061370d565b5085935050505092915050565b6000602082019050818103600083015261376181846136e9565b905092915050565b60006020828403121561377f5761377e6131dd565b5b600061378d8482850161342a565b91505092915050565b61379f81613354565b82525050565b60006020820190506137ba6000830184613796565b92915050565b600080600080608085870312156137da576137d96131dd565b5b60006137e88782880161342a565b94505060206137f98782880161342a565b935050604061380a87828801613375565b925050606085013567ffffffffffffffff81111561382b5761382a6131e2565b5b61383787828801613599565b91505092959194509250565b6000819050919050565b61385681613843565b82525050565b6000602082019050613871600083018461384d565b92915050565b6138808161326c565b811461388b57600080fd5b50565b60008135905061389d81613877565b92915050565b600080604083850312156138ba576138b96131dd565b5b60006138c88582860161342a565b92505060206138d98582860161388e565b9150509250929050565b600080fd5b600067ffffffffffffffff82111561390357613902613484565b5b61390c826132e8565b9050602081019050919050565b82818337600083830152505050565b600061393b613936846138e8565b6134e4565b905082815260208101848484011115613957576139566138e3565b5b613962848285613919565b509392505050565b600082601f83011261397f5761397e61347f565b5b813561398f848260208601613928565b91505092915050565b600080600080608085870312156139b2576139b16131dd565b5b60006139c08782880161342a565b94505060206139d18782880161342a565b93505060406139e287828801613375565b925050606085013567ffffffffffffffff811115613a0357613a026131e2565b5b613a0f8782880161396a565b91505092959194509250565b60008060408385031215613a3257613a316131dd565b5b6000613a408582860161342a565b925050602083013567ffffffffffffffff811115613a6157613a606131e2565b5b613a6d85828601613599565b9150509250929050565b600067ffffffffffffffff821115613a9257613a91613484565b5b613a9b826132e8565b9050602081019050919050565b6000613abb613ab684613a77565b6134e4565b905082815260208101848484011115613ad757613ad66138e3565b5b613ae2848285613919565b509392505050565b600082601f830112613aff57613afe61347f565b5b8135613b0f848260208601613aa8565b91505092915050565b60008060408385031215613b2f57613b2e6131dd565b5b6000613b3d8582860161342a565b925050602083013567ffffffffffffffff811115613b5e57613b5d6131e2565b5b613b6a85828601613aea565b9150509250929050565b600067ffffffffffffffff821115613b8f57613b8e613484565b5b602082029050602081019050919050565b6000613bb3613bae84613b74565b6134e4565b90508083825260208201905060208402830185811115613bd657613bd561352b565b5b835b81811015613bff5780613beb8882613375565b845260208401935050602081019050613bd8565b5050509392505050565b600082601f830112613c1e57613c1d61347f565b5b8135613c2e848260208601613ba0565b91505092915050565b60008060408385031215613c4e57613c4d6131dd565b5b6000613c5c85828601613375565b925050602083013567ffffffffffffffff811115613c7d57613c7c6131e2565b5b613c8985828601613c09565b9150509250929050565b613c9c81613354565b82525050565b613cab8161326c565b82525050565b606082016000820151613cc76000850182613c93565b506020820151613cda6020850182613ca2565b506040820151613ced60408501826136b5565b50505050565b6000606082019050613d086000830184613cb1565b92915050565b60008060408385031215613d2557613d246131dd565b5b6000613d338582860161342a565b9250506020613d448582860161342a565b9150509250929050565b600080600060608486031215613d6757613d666131dd565b5b6000613d758682870161342a565b935050602084013567ffffffffffffffff811115613d9657613d956131e2565b5b613da286828701613aea565b925050604084013567ffffffffffffffff811115613dc357613dc26131e2565b5b613dcf86828701613599565b9150509250925092565b7f4e487b7100000000000000000000000000000000000000000000000000000000600052602260045260246000fd5b60006002820490506001821680613e2057607f821691505b602082108103613e3357613e32613dd9565b5b50919050565b7f4552433732313a20617070726f76616c20746f2063757272656e74206f776e6560008201527f7200000000000000000000000000000000000000000000000000000000000000602082015250565b6000613e956021836132ad565b9150613ea082613e39565b604082019050919050565b60006020820190508181036000830152613ec481613e88565b9050919050565b7f4552433732313a20617070726f76652063616c6c6572206973206e6f7420746f60008201527f6b656e206f776e6572206f7220617070726f76656420666f7220616c6c000000602082015250565b6000613f27603d836132ad565b9150613f3282613ecb565b604082019050919050565b60006020820190508181036000830152613f5681613f1a565b9050919050565b7f4552433732313a2063616c6c6572206973206e6f7420746f6b656e206f776e6560008201527f72206f7220617070726f76656400000000000000000000000000000000000000602082015250565b6000613fb9602d836132ad565b9150613fc482613f5d565b604082019050919050565b60006020820190508181036000830152613fe881613fac565b9050919050565b7f4e487b7100000000000000000000000000000000000000000000000000000000600052603260045260246000fd5b7f4e487b7100000000000000000000000000000000000000000000000000000000600052601160045260246000fd5b600061405882613354565b91507fffffffffffffffffffffffffffffffffffffffffffffffffffffffffffffffff820361408a5761408961401e565b5b600182019050919050565b7f4552433732313a20696e76616c696420746f6b656e2049440000000000000000600082015250565b60006140cb6018836132ad565b91506140d682614095565b602082019050919050565b600060208201905081810360008301526140fa816140be565b9050919050565b7f4552433732313a2061646472657373207a65726f206973206e6f74206120766160008201527f6c6964206f776e65720000000000000000000000000000000000000000000000602082015250565b600061415d6029836132ad565b915061416882614101565b604082019050919050565b6000602082019050818103600083015261418c81614150565b9050919050565b60008160601b9050919050565b60006141ab82614193565b9050919050565b60006141bd826141a0565b9050919050565b6141d56141d0826133d7565b6141b2565b82525050565b6000819050919050565b6141f66141f182613354565b6141db565b82525050565b600061420882856141c4565b60148201915061421882846141e5565b6020820191508190509392505050565b7f4f776e61626c653a206e6577206f776e657220697320746865207a65726f206160008201527f6464726573730000000000000000000000000000000000000000000000000000602082015250565b60006142846026836132ad565b915061428f82614228565b604082019050919050565b600060208201905081810360008301526142b381614277565b9050919050565b7f4552433732313a207472616e736665722066726f6d20696e636f72726563742060008201527f6f776e6572000000000000000000000000000000000000000000000000000000602082015250565b60006143166025836132ad565b9150614321826142ba565b604082019050919050565b6000602082019050818103600083015261434581614309565b9050919050565b7f4552433732313a207472616e7366657220746f20746865207a65726f2061646460008201527f7265737300000000000000000000000000000000000000000000000000000000602082015250565b60006143a86024836132ad565b91506143b38261434c565b604082019050919050565b600060208201905081810360008301526143d78161439b565b9050919050565b7f4f776e61626c653a2063616c6c6572206973206e6f7420746865206f776e6572600082015250565b60006144146020836132ad565b915061441f826143de565b602082019050919050565b6000602082019050818103600083015261444381614407565b9050919050565b7f4552433732313a20617070726f766520746f2063616c6c657200000000000000600082015250565b60006144806019836132ad565b915061448b8261444a565b602082019050919050565b600060208201905081810360008301526144af81614473565b9050919050565b7f4552433732313a207472616e7366657220746f206e6f6e20455243373231526560008201527f63656976657220696d706c656d656e7465720000000000000000000000000000602082015250565b60006145126032836132ad565b915061451d826144b6565b604082019050919050565b6000602082019050818103600083015261454181614505565b9050919050565b600081905092915050565b600061455e826132a2565b6145688185614548565b93506145788185602086016132be565b80840191505092915050565b60006145908285614553565b915061459c8284614553565b91508190509392505050565b7f45524337323155524953746f726167653a2055524920736574206f66206e6f6e60008201527f6578697374656e7420746f6b656e000000000000000000000000000000000000602082015250565b6000614604602e836132ad565b915061460f826145a8565b604082019050919050565b60006020820190508181036000830152614633816145f7565b9050919050565b60008190508160005260206000209050919050565b60006020601f8301049050919050565b600082821b905092915050565b60006008830261469c7fffffffffffffffffffffffffffffffffffffffffffffffffffffffffffffffff8261465f565b6146a6868361465f565b95508019841693508086168417925050509392505050565b6000819050919050565b60006146e36146de6146d984613354565b6146be565b613354565b9050919050565b6000819050919050565b6146fd836146c8565b614711614709826146ea565b84845461466c565b825550505050565b600090565b614726614719565b6147318184846146f4565b505050565b5b818110156147555761474a60008261471e565b600181019050614737565b5050565b601f82111561479a5761476b8161463a565b6147748461464f565b81016020851015614783578190505b61479761478f8561464f565b830182614736565b50505b505050565b600082821c905092915050565b60006147bd6000198460080261479f565b1980831691505092915050565b60006147d683836147ac565b9150826002028217905092915050565b6147ef826132a2565b67ffffffffffffffff81111561480857614807613484565b5b6148128254613e08565b61481d828285614759565b600060209050601f831160018114614850576000841561483e578287015190505b61484885826147ca565b8655506148b0565b601f19841661485e8661463a565b60005b8281101561488657848901518255600182019150602085019450602081019050614861565b868310156148a3578489015161489f601f8916826147ac565b8355505b6001600288020188555050505b505050505050565b60006148c382613354565b91506148ce83613354565b92508282039050818111156148e6576148e561401e565b5b92915050565b60006148f782613354565b915061490283613354565b925082820190508082111561491a5761491961401e565b5b92915050565b600081519050919050565b600082825260208201905092915050565b600061494782614920565b614951818561492b565b93506149618185602086016132be565b61496a816132e8565b840191505092915050565b600060808201905061498a60008301876133e9565b61499760208301866133e9565b6149a46040830185613796565b81810360608301526149b6818461493c565b905095945050505050565b6000815190506149d081613213565b92915050565b6000602082840312156149ec576149eb6131dd565b5b60006149fa848285016149c1565b91505092915050565b7f4e487b7100000000000000000000000000000000000000000000000000000000600052601260045260246000fd5b7f4552433732313a206d696e7420746f20746865207a65726f2061646472657373600082015250565b6000614a686020836132ad565b9150614a7382614a32565b602082019050919050565b60006020820190508181036000830152614a9781614a5b565b9050919050565b7f4552433732313a20746f6b656e20616c7265616479206d696e74656400000000600082015250565b6000614ad4601c836132ad565b9150614adf82614a9e565b602082019050919050565b60006020820190508181036000830152614b0381614ac7565b905091905056fea2646970667358221220b0fef65891de530b43328c98ea0795e449481f2e9684d91f75143ff271eae6b464736f6c63430008110033",
  "immutableReferences": {},
  "source": "// SPDX-License-Identifier: MIT\r\npragma solidity >=0.4.22 <0.9.0;\r\n\r\nimport \"@openzeppelin/contracts/token/ERC721/ERC721.sol\";\r\nimport \"@openzeppelin/contracts/token/ERC721/extensions/ERC721URIStorage.sol\";\r\nimport \"@openzeppelin/contracts/token/ERC721/extensions/ERC721Burnable.sol\";\r\nimport \"@openzeppelin/contracts/access/Ownable.sol\";\r\nimport \"@openzeppelin/contracts/utils/Counters.sol\";\r\nimport \"../Utils.sol\";\r\n\r\ncontract LandToken is ERC721, ERC721URIStorage, ERC721Burnable, Ownable, Utils {\r\n\r\n    struct TokenOwnerStruct {\r\n        uint256 tokenId;\r\n        bool isShared;\r\n        address[] sharedOwners;\r\n    }\r\n    mapping(bytes32 => TokenOwnerStruct) TokenOwner;\r\n\r\n    struct TokenSharedOwnerStruct {\r\n        uint256 tokenId;\r\n        bool isSharing;\r\n        address originalOwner;\r\n    }\r\n    mapping(bytes32 => TokenSharedOwnerStruct) TokenSharedOwner;\r\n\r\n    using Counters for Counters.Counter;\r\n\r\n    Counters.Counter private _tokenIdCounter;\r\n\r\n    constructor() ERC721(\"LandToken\", \"LTT\") {}\r\n\r\n    function safeMint(address to, string memory uri) public {\r\n        uint256 tokenId = _tokenIdCounter.current();\r\n        _tokenIdCounter.increment();  _safeMint(to, tokenId);  _setTokenURI(tokenId, uri);\r\n        \r\n        address[] memory emptyArray;\r\n        bytes32 ownerToken = hashTokenAddress(to,tokenId);\r\n        TokenOwner[ownerToken] = TokenOwnerStruct(tokenId,false,emptyArray);\r\n    }\r\n\r\n    function safeMint(address to, string memory uri, address[] memory sharedOwners) public {\r\n        uint256 tokenId = _tokenIdCounter.current();\r\n        _tokenIdCounter.increment();  _safeMint(to, tokenId);  _setTokenURI(tokenId, uri);\r\n\r\n        bytes32 ownerToken = hashTokenAddress(to,tokenId);\r\n        TokenOwner[ownerToken] = TokenOwnerStruct(tokenId,true,sharedOwners);\r\n\r\n        for(uint i=0; i<sharedOwners.length; i++) {\r\n            bytes32 sharedToken = hashTokenAddress(sharedOwners[i],tokenId);\r\n            TokenSharedOwner[sharedToken] = TokenSharedOwnerStruct(tokenId,true,to);\r\n        }\r\n    }\r\n\r\n    function sharedTokenOwner(address sharedOwner, uint256 tokenId) public view returns(TokenSharedOwnerStruct memory) {\r\n        bytes32 ownerToken = hashTokenAddress(sharedOwner,tokenId);\r\n        return TokenSharedOwner[ownerToken];\r\n    }\r\n\r\n    function sharedOwnerList(address owner, uint256 tokenId) public view returns(address[] memory) {\r\n        bytes32 ownerToken = hashTokenAddress(owner,tokenId);\r\n        return TokenOwner[ownerToken].sharedOwners;\r\n    }\r\n\r\n    // The following functions are overrides required by Solidity.\r\n\r\n    function _burn(uint256 tokenId) internal override(ERC721, ERC721URIStorage) {\r\n        address owner = ownerOf(tokenId);\r\n        bytes32 ownerToken = hashTokenAddress(owner,tokenId);\r\n        address[] memory sharedOwners = TokenOwner[ownerToken].sharedOwners;\r\n\r\n        for(uint i=0; i<sharedOwners.length; i++) {\r\n            bytes32 sharedToken = hashTokenAddress(sharedOwners[i],tokenId);\r\n            TokenSharedOwner[sharedToken] = TokenSharedOwnerStruct(696969696,false,address(0));\r\n        }\r\n\r\n        address[] memory emptyArray;\r\n        TokenOwner[ownerToken] = TokenOwnerStruct(6969696969696,false,emptyArray);\r\n\r\n        super._burn(tokenId);\r\n    }\r\n\r\n    function tokenURI(uint256 tokenId) public view override(ERC721, ERC721URIStorage) returns (string memory) {\r\n        return super.tokenURI(tokenId);\r\n    }\r\n\r\n    function setSharedOwners(address owner, address[] memory sharedOwners, uint256 tokenId) public {\r\n        require(_isApprovedOrOwner(_msgSender(), tokenId), \"ERC721: caller is not token owner or approved\");\r\n        \r\n        bytes32 ownerToken = hashTokenAddress(owner,tokenId);\r\n\r\n        for(uint i=0; i<sharedOwners.length; i++) {\r\n            bytes32 sharedToken = hashTokenAddress(sharedOwners[i],tokenId);\r\n            TokenOwner[ownerToken].sharedOwners.push(sharedOwners[i]);\r\n            TokenSharedOwner[sharedToken] = TokenSharedOwnerStruct(tokenId,true,owner);\r\n        }\r\n    }\r\n\r\n    function transferFrom(address from, address to, uint256 tokenId) public override {\r\n        require(_isApprovedOrOwner(_msgSender(), tokenId), \"ERC721: caller is not token owner or approved\");\r\n        _transfer(from, to, tokenId);\r\n\r\n        bytes32 ownerToken = hashTokenAddress(from,tokenId);\r\n        address[] memory sharedOwners = TokenOwner[ownerToken].sharedOwners;\r\n\r\n        for(uint i=0; i<sharedOwners.length; i++) {\r\n            bytes32 sharedToken = hashTokenAddress(sharedOwners[i],tokenId);\r\n            TokenSharedOwner[sharedToken] = TokenSharedOwnerStruct(696969696,false,address(0));\r\n        }\r\n\r\n        address[] memory emptyArray;\r\n        TokenOwner[ownerToken] = TokenOwnerStruct(6969696969696,false,emptyArray);\r\n\r\n        bytes32 newOwnerToken = hashTokenAddress(to,tokenId);\r\n        TokenOwner[newOwnerToken] = TokenOwnerStruct(tokenId,false,emptyArray);\r\n    }\r\n\r\n    function transferFrom(address from, address to, uint256 tokenId, address[] memory _sharedOwners) public {\r\n        require(_isApprovedOrOwner(_msgSender(), tokenId), \"ERC721: caller is not token owner or approved\");\r\n        _transfer(from, to, tokenId);\r\n\r\n        bytes32 ownerToken = hashTokenAddress(from,tokenId);\r\n        address[] memory sharedOwners = TokenOwner[ownerToken].sharedOwners;\r\n\r\n        for(uint i=0; i<sharedOwners.length; i++) {\r\n            bytes32 sharedToken = hashTokenAddress(sharedOwners[i],tokenId);\r\n            TokenSharedOwner[sharedToken] = TokenSharedOwnerStruct(696969696,false,address(0));\r\n        }\r\n\r\n        address[] memory emptyArray;\r\n        TokenOwner[ownerToken] = TokenOwnerStruct(6969696969696,false,emptyArray);\r\n\r\n        bytes32 newOwnerToken = hashTokenAddress(to,tokenId);\r\n        TokenOwner[newOwnerToken] = TokenOwnerStruct(tokenId,true,_sharedOwners);\r\n\r\n        for(uint i=0; i<_sharedOwners.length; i++) {\r\n            bytes32 newSharedToken = hashTokenAddress(_sharedOwners[i],tokenId);\r\n            TokenSharedOwner[newSharedToken] = TokenSharedOwnerStruct(tokenId,true,to);\r\n        }\r\n    }\r\n    \r\n}\r\n",
  "sourcePath": "C:\\Users\\hp\\Desktop\\University Stuff\\FYP\\blockestate-next\\contracts\\tokens\\LandToken.sol",
  "compiler": {
    "name": "solc",
    "version": "0.8.17+commit.8df45f5f.Emscripten.clang"
  },
  "schemaVersion": "3.4.10",
  "updatedAt": "2023-01-03T07:00:34.479Z",
  "networkType": "ethereum",
  "devdoc": {
    "kind": "dev",
    "methods": {
      "approve(address,uint256)": {
        "details": "See {IERC721-approve}."
      },
      "balanceOf(address)": {
        "details": "See {IERC721-balanceOf}."
      },
      "burn(uint256)": {
        "details": "Burns `tokenId`. See {ERC721-_burn}. Requirements: - The caller must own `tokenId` or be an approved operator."
      },
      "getApproved(uint256)": {
        "details": "See {IERC721-getApproved}."
      },
      "isApprovedForAll(address,address)": {
        "details": "See {IERC721-isApprovedForAll}."
      },
      "name()": {
        "details": "See {IERC721Metadata-name}."
      },
      "owner()": {
        "details": "Returns the address of the current owner."
      },
      "ownerOf(uint256)": {
        "details": "See {IERC721-ownerOf}."
      },
      "renounceOwnership()": {
        "details": "Leaves the contract without owner. It will not be possible to call `onlyOwner` functions anymore. Can only be called by the current owner. NOTE: Renouncing ownership will leave the contract without an owner, thereby removing any functionality that is only available to the owner."
      },
      "safeTransferFrom(address,address,uint256)": {
        "details": "See {IERC721-safeTransferFrom}."
      },
      "safeTransferFrom(address,address,uint256,bytes)": {
        "details": "See {IERC721-safeTransferFrom}."
      },
      "setApprovalForAll(address,bool)": {
        "details": "See {IERC721-setApprovalForAll}."
      },
      "supportsInterface(bytes4)": {
        "details": "See {IERC165-supportsInterface}."
      },
      "symbol()": {
        "details": "See {IERC721Metadata-symbol}."
      },
      "transferFrom(address,address,uint256)": {
        "details": "See {IERC721-transferFrom}."
      },
      "transferOwnership(address)": {
        "details": "Transfers ownership of the contract to a new account (`newOwner`). Can only be called by the current owner."
      }
    },
    "version": 1
  },
  "userdoc": {
    "kind": "user",
    "methods": {},
    "version": 1
  }
}