{
  "contractName": "LandToken",
  "abi": [
    {
      "inputs": [],
      "stateMutability": "nonpayable",
      "type": "constructor"
    },
    {
      "anonymous": false,
      "inputs": [
        {
          "indexed": true,
          "internalType": "address",
          "name": "owner",
          "type": "address"
        },
        {
          "indexed": true,
          "internalType": "address",
          "name": "approved",
          "type": "address"
        },
        {
          "indexed": true,
          "internalType": "uint256",
          "name": "tokenId",
          "type": "uint256"
        }
      ],
      "name": "Approval",
      "type": "event"
    },
    {
      "anonymous": false,
      "inputs": [
        {
          "indexed": true,
          "internalType": "address",
          "name": "owner",
          "type": "address"
        },
        {
          "indexed": true,
          "internalType": "address",
          "name": "operator",
          "type": "address"
        },
        {
          "indexed": false,
          "internalType": "bool",
          "name": "approved",
          "type": "bool"
        }
      ],
      "name": "ApprovalForAll",
      "type": "event"
    },
    {
      "anonymous": false,
      "inputs": [
        {
          "indexed": true,
          "internalType": "address",
          "name": "previousOwner",
          "type": "address"
        },
        {
          "indexed": true,
          "internalType": "address",
          "name": "newOwner",
          "type": "address"
        }
      ],
      "name": "OwnershipTransferred",
      "type": "event"
    },
    {
      "anonymous": false,
      "inputs": [
        {
          "indexed": true,
          "internalType": "address",
          "name": "from",
          "type": "address"
        },
        {
          "indexed": true,
          "internalType": "address",
          "name": "to",
          "type": "address"
        },
        {
          "indexed": true,
          "internalType": "uint256",
          "name": "tokenId",
          "type": "uint256"
        }
      ],
      "name": "Transfer",
      "type": "event"
    },
    {
      "inputs": [
        {
          "internalType": "address",
          "name": "to",
          "type": "address"
        },
        {
          "internalType": "uint256",
          "name": "tokenId",
          "type": "uint256"
        }
      ],
      "name": "approve",
      "outputs": [],
      "stateMutability": "nonpayable",
      "type": "function"
    },
    {
      "inputs": [
        {
          "internalType": "address",
          "name": "owner",
          "type": "address"
        }
      ],
      "name": "balanceOf",
      "outputs": [
        {
          "internalType": "uint256",
          "name": "",
          "type": "uint256"
        }
      ],
      "stateMutability": "view",
      "type": "function",
      "constant": true
    },
    {
      "inputs": [
        {
          "internalType": "uint256",
          "name": "tokenId",
          "type": "uint256"
        }
      ],
      "name": "burn",
      "outputs": [],
      "stateMutability": "nonpayable",
      "type": "function"
    },
    {
      "inputs": [
        {
          "internalType": "uint256",
          "name": "tokenId",
          "type": "uint256"
        }
      ],
      "name": "getApproved",
      "outputs": [
        {
          "internalType": "address",
          "name": "",
          "type": "address"
        }
      ],
      "stateMutability": "view",
      "type": "function",
      "constant": true
    },
    {
      "inputs": [
        {
          "internalType": "address",
          "name": "_address",
          "type": "address"
        },
        {
          "internalType": "uint256",
          "name": "_tokenId",
          "type": "uint256"
        }
      ],
      "name": "hashTokenAddress",
      "outputs": [
        {
          "internalType": "bytes32",
          "name": "",
          "type": "bytes32"
        }
      ],
      "stateMutability": "pure",
      "type": "function",
      "constant": true
    },
    {
      "inputs": [
        {
          "internalType": "address",
          "name": "checkAddress",
          "type": "address"
        },
        {
          "internalType": "address[]",
          "name": "arrayAddress",
          "type": "address[]"
        }
      ],
      "name": "indexOfAddress",
      "outputs": [
        {
          "internalType": "bool",
          "name": "",
          "type": "bool"
        }
      ],
      "stateMutability": "pure",
      "type": "function",
      "constant": true
    },
    {
      "inputs": [
        {
          "internalType": "uint256",
          "name": "checkTokenId",
          "type": "uint256"
        },
        {
          "internalType": "uint256[]",
          "name": "arrayTokenId",
          "type": "uint256[]"
        }
      ],
      "name": "indexOfTokenId",
      "outputs": [
        {
          "internalType": "bool",
          "name": "",
          "type": "bool"
        }
      ],
      "stateMutability": "pure",
      "type": "function",
      "constant": true
    },
    {
      "inputs": [
        {
          "internalType": "address",
          "name": "owner",
          "type": "address"
        },
        {
          "internalType": "address",
          "name": "operator",
          "type": "address"
        }
      ],
      "name": "isApprovedForAll",
      "outputs": [
        {
          "internalType": "bool",
          "name": "",
          "type": "bool"
        }
      ],
      "stateMutability": "view",
      "type": "function",
      "constant": true
    },
    {
      "inputs": [],
      "name": "name",
      "outputs": [
        {
          "internalType": "string",
          "name": "",
          "type": "string"
        }
      ],
      "stateMutability": "view",
      "type": "function",
      "constant": true
    },
    {
      "inputs": [],
      "name": "owner",
      "outputs": [
        {
          "internalType": "address",
          "name": "",
          "type": "address"
        }
      ],
      "stateMutability": "view",
      "type": "function",
      "constant": true
    },
    {
      "inputs": [
        {
          "internalType": "uint256",
          "name": "tokenId",
          "type": "uint256"
        }
      ],
      "name": "ownerOf",
      "outputs": [
        {
          "internalType": "address",
          "name": "",
          "type": "address"
        }
      ],
      "stateMutability": "view",
      "type": "function",
      "constant": true
    },
    {
      "inputs": [],
      "name": "renounceOwnership",
      "outputs": [],
      "stateMutability": "nonpayable",
      "type": "function"
    },
    {
      "inputs": [
        {
          "internalType": "address",
          "name": "from",
          "type": "address"
        },
        {
          "internalType": "address",
          "name": "to",
          "type": "address"
        },
        {
          "internalType": "uint256",
          "name": "tokenId",
          "type": "uint256"
        }
      ],
      "name": "safeTransferFrom",
      "outputs": [],
      "stateMutability": "nonpayable",
      "type": "function"
    },
    {
      "inputs": [
        {
          "internalType": "address",
          "name": "from",
          "type": "address"
        },
        {
          "internalType": "address",
          "name": "to",
          "type": "address"
        },
        {
          "internalType": "uint256",
          "name": "tokenId",
          "type": "uint256"
        },
        {
          "internalType": "bytes",
          "name": "data",
          "type": "bytes"
        }
      ],
      "name": "safeTransferFrom",
      "outputs": [],
      "stateMutability": "nonpayable",
      "type": "function"
    },
    {
      "inputs": [
        {
          "internalType": "address",
          "name": "operator",
          "type": "address"
        },
        {
          "internalType": "bool",
          "name": "approved",
          "type": "bool"
        }
      ],
      "name": "setApprovalForAll",
      "outputs": [],
      "stateMutability": "nonpayable",
      "type": "function"
    },
    {
      "inputs": [],
      "name": "symbol",
      "outputs": [
        {
          "internalType": "string",
          "name": "",
          "type": "string"
        }
      ],
      "stateMutability": "view",
      "type": "function",
      "constant": true
    },
    {
      "inputs": [
        {
          "internalType": "uint256",
          "name": "index",
          "type": "uint256"
        }
      ],
      "name": "tokenByIndex",
      "outputs": [
        {
          "internalType": "uint256",
          "name": "",
          "type": "uint256"
        }
      ],
      "stateMutability": "view",
      "type": "function",
      "constant": true
    },
    {
      "inputs": [
        {
          "internalType": "address",
          "name": "owner",
          "type": "address"
        },
        {
          "internalType": "uint256",
          "name": "index",
          "type": "uint256"
        }
      ],
      "name": "tokenOfOwnerByIndex",
      "outputs": [
        {
          "internalType": "uint256",
          "name": "",
          "type": "uint256"
        }
      ],
      "stateMutability": "view",
      "type": "function",
      "constant": true
    },
    {
      "inputs": [],
      "name": "totalSupply",
      "outputs": [
        {
          "internalType": "uint256",
          "name": "",
          "type": "uint256"
        }
      ],
      "stateMutability": "view",
      "type": "function",
      "constant": true
    },
    {
      "inputs": [
        {
          "internalType": "address",
          "name": "newOwner",
          "type": "address"
        }
      ],
      "name": "transferOwnership",
      "outputs": [],
      "stateMutability": "nonpayable",
      "type": "function"
    },
    {
      "inputs": [
        {
          "internalType": "bytes4",
          "name": "interfaceId",
          "type": "bytes4"
        }
      ],
      "name": "supportsInterface",
      "outputs": [
        {
          "internalType": "bool",
          "name": "",
          "type": "bool"
        }
      ],
      "stateMutability": "view",
      "type": "function",
      "constant": true
    },
    {
      "inputs": [
        {
          "internalType": "address",
          "name": "to",
          "type": "address"
        },
        {
          "internalType": "uint256",
          "name": "tokenId",
          "type": "uint256"
        },
        {
          "internalType": "string",
          "name": "uri",
          "type": "string"
        }
      ],
      "name": "safeMint",
      "outputs": [],
      "stateMutability": "nonpayable",
      "type": "function"
    },
    {
      "inputs": [
        {
          "internalType": "address",
          "name": "sharedOwner",
          "type": "address"
        },
        {
          "internalType": "uint256",
          "name": "tokenId",
          "type": "uint256"
        }
      ],
      "name": "sharedTokenOwner",
      "outputs": [
        {
          "components": [
            {
              "internalType": "uint256",
              "name": "tokenId",
              "type": "uint256"
            },
            {
              "internalType": "bool",
              "name": "isSharing",
              "type": "bool"
            },
            {
              "internalType": "address",
              "name": "originalOwner",
              "type": "address"
            }
          ],
          "internalType": "struct LandToken.TokenSharedOwnerStruct",
          "name": "",
          "type": "tuple"
        }
      ],
      "stateMutability": "view",
      "type": "function",
      "constant": true
    },
    {
      "inputs": [
        {
          "internalType": "address",
          "name": "owner",
          "type": "address"
        },
        {
          "internalType": "uint256",
          "name": "tokenId",
          "type": "uint256"
        }
      ],
      "name": "sharedOwnerList",
      "outputs": [
        {
          "internalType": "address[]",
          "name": "",
          "type": "address[]"
        }
      ],
      "stateMutability": "view",
      "type": "function",
      "constant": true
    },
    {
      "inputs": [
        {
          "internalType": "uint256",
          "name": "tokenId",
          "type": "uint256"
        }
      ],
      "name": "tokenURI",
      "outputs": [
        {
          "internalType": "string",
          "name": "",
          "type": "string"
        }
      ],
      "stateMutability": "view",
      "type": "function",
      "constant": true
    },
    {
      "inputs": [
        {
          "internalType": "address",
          "name": "owner",
          "type": "address"
        },
        {
          "internalType": "address",
          "name": "sharedOwner",
          "type": "address"
        },
        {
          "internalType": "uint256",
          "name": "tokenId",
          "type": "uint256"
        }
      ],
      "name": "setSharedOwners",
      "outputs": [],
      "stateMutability": "nonpayable",
      "type": "function"
    },
    {
      "inputs": [
        {
          "internalType": "address",
          "name": "owner",
          "type": "address"
        },
        {
          "internalType": "address",
          "name": "sharedOwner",
          "type": "address"
        },
        {
          "internalType": "uint256",
          "name": "tokenId",
          "type": "uint256"
        }
      ],
      "name": "deleteSharedOwners",
      "outputs": [],
      "stateMutability": "nonpayable",
      "type": "function"
    },
    {
      "inputs": [
        {
          "internalType": "address",
          "name": "from",
          "type": "address"
        },
        {
          "internalType": "address",
          "name": "to",
          "type": "address"
        },
        {
          "internalType": "uint256",
          "name": "tokenId",
          "type": "uint256"
        }
      ],
      "name": "transferFrom",
      "outputs": [],
      "stateMutability": "nonpayable",
      "type": "function"
    },
    {
      "inputs": [
        {
          "internalType": "address",
          "name": "user",
          "type": "address"
        }
      ],
      "name": "setNewOwner",
      "outputs": [],
      "stateMutability": "nonpayable",
      "type": "function"
    },
    {
      "inputs": [
        {
          "internalType": "uint256",
          "name": "tokenId",
          "type": "uint256"
        },
        {
          "internalType": "address",
          "name": "_newOwner",
          "type": "address"
        },
        {
          "internalType": "address",
          "name": "_oldOwner",
          "type": "address"
        },
        {
          "internalType": "string",
          "name": "document",
          "type": "string"
        }
      ],
      "name": "transferAgreementDocument",
      "outputs": [],
      "stateMutability": "nonpayable",
      "type": "function"
    },
    {
      "inputs": [
        {
          "internalType": "uint256",
          "name": "tokenId",
          "type": "uint256"
        },
        {
          "internalType": "address",
          "name": "_newOwner",
          "type": "address"
        },
        {
          "internalType": "address",
          "name": "_oldOwner",
          "type": "address"
        }
      ],
      "name": "retrieveTransferDocument",
      "outputs": [
        {
          "internalType": "string",
          "name": "",
          "type": "string"
        }
      ],
      "stateMutability": "view",
      "type": "function",
      "constant": true
    }
  ],
  "bytecode": "0x60806040523480156200001157600080fd5b506040518060400160405280600981526020017f4c616e64546f6b656e00000000000000000000000000000000000000000000008152506040518060400160405280600381526020017f4c5454000000000000000000000000000000000000000000000000000000000081525081600090816200008f919062000412565b508060019081620000a1919062000412565b505050620000c4620000b8620000ca60201b60201c565b620000d260201b60201c565b620004f9565b600033905090565b6000600b60009054906101000a900473ffffffffffffffffffffffffffffffffffffffff16905081600b60006101000a81548173ffffffffffffffffffffffffffffffffffffffff021916908373ffffffffffffffffffffffffffffffffffffffff1602179055508173ffffffffffffffffffffffffffffffffffffffff168173ffffffffffffffffffffffffffffffffffffffff167f8be0079c531659141344cd1fd0a4f28419497f9722a3daafe3b4186f6b6457e060405160405180910390a35050565b600081519050919050565b7f4e487b7100000000000000000000000000000000000000000000000000000000600052604160045260246000fd5b7f4e487b7100000000000000000000000000000000000000000000000000000000600052602260045260246000fd5b600060028204905060018216806200021a57607f821691505b60208210810362000230576200022f620001d2565b5b50919050565b60008190508160005260206000209050919050565b60006020601f8301049050919050565b600082821b905092915050565b6000600883026200029a7fffffffffffffffffffffffffffffffffffffffffffffffffffffffffffffffff826200025b565b620002a686836200025b565b95508019841693508086168417925050509392505050565b6000819050919050565b6000819050919050565b6000620002f3620002ed620002e784620002be565b620002c8565b620002be565b9050919050565b6000819050919050565b6200030f83620002d2565b620003276200031e82620002fa565b84845462000268565b825550505050565b600090565b6200033e6200032f565b6200034b81848462000304565b505050565b5b8181101562000373576200036760008262000334565b60018101905062000351565b5050565b601f821115620003c2576200038c8162000236565b62000397846200024b565b81016020851015620003a7578190505b620003bf620003b6856200024b565b83018262000350565b50505b505050565b600082821c905092915050565b6000620003e760001984600802620003c7565b1980831691505092915050565b6000620004028383620003d4565b9150826002028217905092915050565b6200041d8262000198565b67ffffffffffffffff811115620004395762000438620001a3565b5b62000445825462000201565b6200045282828562000377565b600060209050601f8311600181146200048a576000841562000475578287015190505b620004818582620003f4565b865550620004f1565b601f1984166200049a8662000236565b60005b82811015620004c4578489015182556001820191506020850194506020810190506200049d565b86831015620004e45784890151620004e0601f891682620003d4565b8355505b6001600288020188555050505b505050505050565b61534780620005096000396000f3fe608060405234801561001057600080fd5b50600436106101e55760003560e01c806370a082311161010f578063c87b56dd116100a2578063e985e9c511610071578063e985e9c5146105d8578063eff7a23314610608578063f2fde38b14610624578063f5a1f5b414610640576101e5565b8063c87b56dd1461052c578063cd279c7c1461055c578063dfcd308214610578578063e26744c7146105a8576101e5565b8063a12ca11d116100de578063a12ca11d14610494578063a22cb465146104c4578063b88d4fde146104e0578063bda6b691146104fc576101e5565b806370a082311461041e578063715018a61461044e5780638da5cb5b1461045857806395d89b4114610476576101e5565b80632f745c591161018757806342966c681161015657806342966c68146103865780634f6ccce7146103a25780635c957822146103d25780636352211e146103ee576101e5565b80632f745c59146102da5780633b70c79b1461030a57806341db4eaf1461033a57806342842e0e1461036a576101e5565b8063095ea7b3116101c3578063095ea7b31461026857806309da17bc1461028457806318160ddd146102a057806323b872dd146102be576101e5565b806301ffc9a7146101ea57806306fdde031461021a578063081812fc14610238575b600080fd5b61020460048036038101906101ff91906138f5565b61065c565b604051610211919061393d565b60405180910390f35b61022261066e565b60405161022f91906139e8565b60405180910390f35b610252600480360381019061024d9190613a40565b610700565b60405161025f9190613aae565b60405180910390f35b610282600480360381019061027d9190613af5565b610746565b005b61029e60048036038101906102999190613b35565b61085d565b005b6102a8610a02565b6040516102b59190613b97565b60405180910390f35b6102d860048036038101906102d39190613b35565b610a0f565b005b6102f460048036038101906102ef9190613af5565b610d35565b6040516103019190613b97565b60405180910390f35b610324600480360381019061031f9190613bb2565b610dda565b60405161033191906139e8565b60405180910390f35b610354600480360381019061034f9190613af5565b610efb565b6040516103619190613cc3565b60405180910390f35b610384600480360381019061037f9190613b35565b610faf565b005b6103a0600480360381019061039b9190613a40565b610fcf565b005b6103bc60048036038101906103b79190613a40565b61102b565b6040516103c99190613b97565b60405180910390f35b6103ec60048036038101906103e79190613e1a565b61109c565b005b61040860048036038101906104039190613a40565b6111e1565b6040516104159190613aae565b60405180910390f35b61043860048036038101906104339190613e9d565b611267565b6040516104459190613b97565b60405180910390f35b61045661131e565b005b610460611332565b60405161046d9190613aae565b60405180910390f35b61047e61135c565b60405161048b91906139e8565b60405180910390f35b6104ae60048036038101906104a99190613af5565b6113ee565b6040516104bb9190613ee3565b60405180910390f35b6104de60048036038101906104d99190613f2a565b611421565b005b6104fa60048036038101906104f5919061400b565b611437565b005b61051660048036038101906105119190614156565b611499565b604051610523919061393d565b60405180910390f35b61054660048036038101906105419190613a40565b611520565b60405161055391906139e8565b60405180910390f35b610576600480360381019061057191906141b2565b611532565b005b610592600480360381019061058d91906142e4565b6115d8565b60405161059f919061393d565b60405180910390f35b6105c260048036038101906105bd9190613af5565b611633565b6040516105cf91906143a0565b60405180910390f35b6105f260048036038101906105ed91906143bb565b6116eb565b6040516105ff919061393d565b60405180910390f35b610622600480360381019061061d9190613b35565b61177f565b005b61063e60048036038101906106399190613e9d565b611ac0565b005b61065a60048036038101906106559190613e9d565b611b43565b005b600061066782611b87565b9050919050565b60606000805461067d9061442a565b80601f01602080910402602001604051908101604052809291908181526020018280546106a99061442a565b80156106f65780601f106106cb576101008083540402835291602001916106f6565b820191906000526020600020905b8154815290600101906020018083116106d957829003601f168201915b5050505050905090565b600061070b82611c01565b6004600083815260200190815260200160002060009054906101000a900473ffffffffffffffffffffffffffffffffffffffff169050919050565b6000610751826111e1565b90508073ffffffffffffffffffffffffffffffffffffffff168373ffffffffffffffffffffffffffffffffffffffff16036107c1576040517f08c379a00000000000000000000000000000000000000000000000000000000081526004016107b8906144cd565b60405180910390fd5b8073ffffffffffffffffffffffffffffffffffffffff166107e0611c4c565b73ffffffffffffffffffffffffffffffffffffffff16148061080f575061080e81610809611c4c565b6116eb565b5b61084e576040517f08c379a00000000000000000000000000000000000000000000000000000000081526004016108459061455f565b60405180910390fd5b6108588383611c54565b505050565b61086e610868611c4c565b82611d0d565b6108ad576040517f08c379a00000000000000000000000000000000000000000000000000000000081526004016108a4906145f1565b60405180910390fd5b60006108b984836113ee565b905060006108c784846113ee565b9050600c6000838152602001908152602001600020600201849080600181540180825580915050600190039060005260206000200160009091909190916101000a81548173ffffffffffffffffffffffffffffffffffffffff021916908373ffffffffffffffffffffffffffffffffffffffff16021790555060405180606001604052808481526020016001151581526020018673ffffffffffffffffffffffffffffffffffffffff16815250600d60008381526020019081526020016000206000820151816000015560208201518160010160006101000a81548160ff02191690831515021790555060408201518160010160016101000a81548173ffffffffffffffffffffffffffffffffffffffff021916908373ffffffffffffffffffffffffffffffffffffffff1602179055509050505050505050565b6000600980549050905090565b610a20610a1a611c4c565b82611d0d565b610a5f576040517f08c379a0000000000000000000000000000000000000000000000000000000008152600401610a56906145f1565b60405180910390fd5b610a6a838383611da2565b6000610a7684836113ee565b90506000600c6000838152602001908152602001600020600201805480602002602001604051908101604052809291908181526020018280548015610b1057602002820191906000526020600020905b8160009054906101000a900473ffffffffffffffffffffffffffffffffffffffff1673ffffffffffffffffffffffffffffffffffffffff1681526020019060010190808311610ac6575b5050505050905060005b8151811015610c20576000610b49838381518110610b3b57610b3a614611565b5b6020026020010151866113ee565b905060405180606001604052806402540be4008152602001600015158152602001600073ffffffffffffffffffffffffffffffffffffffff16815250600d60008381526020019081526020016000206000820151816000015560208201518160010160006101000a81548160ff02191690831515021790555060408201518160010160016101000a81548173ffffffffffffffffffffffffffffffffffffffff021916908373ffffffffffffffffffffffffffffffffffffffff160217905550905050508080610c189061466f565b915050610b1a565b50606060405180606001604052806402540be400815260200160001515815260200182815250600c60008581526020019081526020016000206000820151816000015560208201518160010160006101000a81548160ff0219169083151502179055506040820151816002019080519060200190610c9f929190613769565b509050506000610caf86866113ee565b9050604051806060016040528086815260200160001515815260200183815250600c60008381526020019081526020016000206000820151816000015560208201518160010160006101000a81548160ff0219169083151502179055506040820151816002019080519060200190610d28929190613769565b5090505050505050505050565b6000610d4083611267565b8210610d81576040517f08c379a0000000000000000000000000000000000000000000000000000000008152600401610d7890614729565b60405180910390fd5b600760008473ffffffffffffffffffffffffffffffffffffffff1673ffffffffffffffffffffffffffffffffffffffff168152602001908152602001600020600083815260200190815260200160002054905092915050565b6060600e600085815260200190815260200160002060008473ffffffffffffffffffffffffffffffffffffffff1673ffffffffffffffffffffffffffffffffffffffff16815260200190815260200160002060008373ffffffffffffffffffffffffffffffffffffffff1673ffffffffffffffffffffffffffffffffffffffff1681526020019081526020016000208054610e749061442a565b80601f0160208091040260200160405190810160405280929190818152602001828054610ea09061442a565b8015610eed5780601f10610ec257610100808354040283529160200191610eed565b820191906000526020600020905b815481529060010190602001808311610ed057829003601f168201915b505050505090509392505050565b60606000610f0984846113ee565b9050600c6000828152602001908152602001600020600201805480602002602001604051908101604052809291908181526020018280548015610fa157602002820191906000526020600020905b8160009054906101000a900473ffffffffffffffffffffffffffffffffffffffff1673ffffffffffffffffffffffffffffffffffffffff1681526020019060010190808311610f57575b505050505091505092915050565b610fca83838360405180602001604052806000815250611437565b505050565b610fe0610fda611c4c565b82611d0d565b61101f576040517f08c379a0000000000000000000000000000000000000000000000000000000008152600401611016906145f1565b60405180910390fd5b6110288161209b565b50565b6000611035610a02565b8210611076576040517f08c379a000000000000000000000000000000000000000000000000000000000815260040161106d906147bb565b60405180910390fd5b6009828154811061108a57611089614611565b5b90600052602060002001549050919050565b6110ad6110a7611c4c565b85611d0d565b6110ec576040517f08c379a00000000000000000000000000000000000000000000000000000000081526004016110e3906145f1565b60405180910390fd5b6110f5846111e1565b601060006101000a81548173ffffffffffffffffffffffffffffffffffffffff021916908373ffffffffffffffffffffffffffffffffffffffff16021790555080600e600086815260200190815260200160002060008573ffffffffffffffffffffffffffffffffffffffff1673ffffffffffffffffffffffffffffffffffffffff16815260200190815260200160002060008473ffffffffffffffffffffffffffffffffffffffff1673ffffffffffffffffffffffffffffffffffffffff16815260200190815260200160002090816111cf9190614987565b506111db828486610a0f565b50505050565b6000806111ed836122f1565b9050600073ffffffffffffffffffffffffffffffffffffffff168173ffffffffffffffffffffffffffffffffffffffff160361125e576040517f08c379a000000000000000000000000000000000000000000000000000000000815260040161125590614aa5565b60405180910390fd5b80915050919050565b60008073ffffffffffffffffffffffffffffffffffffffff168273ffffffffffffffffffffffffffffffffffffffff16036112d7576040517f08c379a00000000000000000000000000000000000000000000000000000000081526004016112ce90614b37565b60405180910390fd5b600360008373ffffffffffffffffffffffffffffffffffffffff1673ffffffffffffffffffffffffffffffffffffffff168152602001908152602001600020549050919050565b61132661232e565b61133060006123ac565b565b6000600b60009054906101000a900473ffffffffffffffffffffffffffffffffffffffff16905090565b60606001805461136b9061442a565b80601f01602080910402602001604051908101604052809291908181526020018280546113979061442a565b80156113e45780601f106113b9576101008083540402835291602001916113e4565b820191906000526020600020905b8154815290600101906020018083116113c757829003601f168201915b5050505050905090565b60008282604051602001611403929190614bc0565b60405160208183030381529060405280519060200120905092915050565b61143361142c611c4c565b8383612472565b5050565b611448611442611c4c565b83611d0d565b611487576040517f08c379a000000000000000000000000000000000000000000000000000000000815260040161147e906145f1565b60405180910390fd5b611493848484846125de565b50505050565b6000806000905060005b8351811015611515578381815181106114bf576114be614611565b5b602002602001015173ffffffffffffffffffffffffffffffffffffffff168573ffffffffffffffffffffffffffffffffffffffff16036115025760019150611515565b808061150d9061466f565b9150506114a3565b508091505092915050565b606061152b8261263a565b9050919050565b61153c838361274c565b611546828261276a565b6060600061155485856113ee565b9050604051806060016040528085815260200160001515815260200183815250600c60008381526020019081526020016000206000820151816000015560208201518160010160006101000a81548160ff02191690831515021790555060408201518160020190805190602001906115cd929190613769565b509050505050505050565b6000806000905060005b8351811015611628578381815181106115fe576115fd614611565b5b602002602001015185036116155760019150611628565b80806116209061466f565b9150506115e2565b508091505092915050565b61163b6137f3565b600061164784846113ee565b9050600d6000828152602001908152602001600020604051806060016040529081600082015481526020016001820160009054906101000a900460ff161515151581526020016001820160019054906101000a900473ffffffffffffffffffffffffffffffffffffffff1673ffffffffffffffffffffffffffffffffffffffff1673ffffffffffffffffffffffffffffffffffffffff168152505091505092915050565b6000600560008473ffffffffffffffffffffffffffffffffffffffff1673ffffffffffffffffffffffffffffffffffffffff16815260200190815260200160002060008373ffffffffffffffffffffffffffffffffffffffff1673ffffffffffffffffffffffffffffffffffffffff16815260200190815260200160002060009054906101000a900460ff16905092915050565b61179061178a611c4c565b82611d0d565b6117cf576040517f08c379a00000000000000000000000000000000000000000000000000000000081526004016117c6906145f1565b60405180910390fd5b60006117db84836113ee565b90506000600c600083815260200190815260200160002060020180548060200260200160405190810160405280929190818152602001828054801561187557602002820191906000526020600020905b8160009054906101000a900473ffffffffffffffffffffffffffffffffffffffff1673ffffffffffffffffffffffffffffffffffffffff168152602001906001019080831161182b575b50505050509050600061188885856113ee565b905060405180606001604052806402540be4008152602001600015158152602001600073ffffffffffffffffffffffffffffffffffffffff16815250600d60008381526020019081526020016000206000820151816000015560208201518160010160006101000a81548160ff02191690831515021790555060408201518160010160016101000a81548173ffffffffffffffffffffffffffffffffffffffff021916908373ffffffffffffffffffffffffffffffffffffffff16021790555090505060006001835161195b9190614bec565b67ffffffffffffffff81111561197457611973613cef565b5b6040519080825280602002602001820160405280156119a25781602001602082028036833780820191505090505b50905060005b8351811015611a8b5760008773ffffffffffffffffffffffffffffffffffffffff168583815181106119dd576119dc614611565b5b602002602001015173ffffffffffffffffffffffffffffffffffffffff1614611a7757848281518110611a1357611a12614611565b5b6020026020010151838281518110611a2e57611a2d614611565b5b602002602001019073ffffffffffffffffffffffffffffffffffffffff16908173ffffffffffffffffffffffffffffffffffffffff16815250508080611a739061466f565b9150505b508080611a839061466f565b9150506119a8565b5080600c60008681526020019081526020016000206002019080519060200190611ab6929190613769565b5050505050505050565b611ac861232e565b600073ffffffffffffffffffffffffffffffffffffffff168173ffffffffffffffffffffffffffffffffffffffff1603611b37576040517f08c379a0000000000000000000000000000000000000000000000000000000008152600401611b2e90614c92565b60405180910390fd5b611b40816123ac565b50565b80600f60006101000a81548173ffffffffffffffffffffffffffffffffffffffff021916908373ffffffffffffffffffffffffffffffffffffffff16021790555050565b60007f780e9d63000000000000000000000000000000000000000000000000000000007bffffffffffffffffffffffffffffffffffffffffffffffffffffffff1916827bffffffffffffffffffffffffffffffffffffffffffffffffffffffff19161480611bfa5750611bf9826127d7565b5b9050919050565b611c0a816128b9565b611c49576040517f08c379a0000000000000000000000000000000000000000000000000000000008152600401611c4090614aa5565b60405180910390fd5b50565b600033905090565b816004600083815260200190815260200160002060006101000a81548173ffffffffffffffffffffffffffffffffffffffff021916908373ffffffffffffffffffffffffffffffffffffffff160217905550808273ffffffffffffffffffffffffffffffffffffffff16611cc7836111e1565b73ffffffffffffffffffffffffffffffffffffffff167f8c5be1e5ebec7d5bd14f71427d1e84f3dd0314c0f7b2291e5b200ac8c7c3b92560405160405180910390a45050565b600080611d19836111e1565b90508073ffffffffffffffffffffffffffffffffffffffff168473ffffffffffffffffffffffffffffffffffffffff161480611d5b5750611d5a81856116eb565b5b80611d9957508373ffffffffffffffffffffffffffffffffffffffff16611d8184610700565b73ffffffffffffffffffffffffffffffffffffffff16145b91505092915050565b8273ffffffffffffffffffffffffffffffffffffffff16611dc2826111e1565b73ffffffffffffffffffffffffffffffffffffffff1614611e18576040517f08c379a0000000000000000000000000000000000000000000000000000000008152600401611e0f90614d24565b60405180910390fd5b600073ffffffffffffffffffffffffffffffffffffffff168273ffffffffffffffffffffffffffffffffffffffff1603611e87576040517f08c379a0000000000000000000000000000000000000000000000000000000008152600401611e7e90614db6565b60405180910390fd5b611e9483838360016128fa565b8273ffffffffffffffffffffffffffffffffffffffff16611eb4826111e1565b73ffffffffffffffffffffffffffffffffffffffff1614611f0a576040517f08c379a0000000000000000000000000000000000000000000000000000000008152600401611f0190614d24565b60405180910390fd5b6004600082815260200190815260200160002060006101000a81549073ffffffffffffffffffffffffffffffffffffffff02191690556001600360008573ffffffffffffffffffffffffffffffffffffffff1673ffffffffffffffffffffffffffffffffffffffff168152602001908152602001600020600082825403925050819055506001600360008473ffffffffffffffffffffffffffffffffffffffff1673ffffffffffffffffffffffffffffffffffffffff16815260200190815260200160002060008282540192505081905550816002600083815260200190815260200160002060006101000a81548173ffffffffffffffffffffffffffffffffffffffff021916908373ffffffffffffffffffffffffffffffffffffffff160217905550808273ffffffffffffffffffffffffffffffffffffffff168473ffffffffffffffffffffffffffffffffffffffff167fddf252ad1be2c89b69c2b068fc378daa952ba7f163c4a11628f55a4df523b3ef60405160405180910390a4612096838383600161290c565b505050565b60006120a6826111e1565b905060006120b482846113ee565b90506000600c600083815260200190815260200160002060020180548060200260200160405190810160405280929190818152602001828054801561214e57602002820191906000526020600020905b8160009054906101000a900473ffffffffffffffffffffffffffffffffffffffff1673ffffffffffffffffffffffffffffffffffffffff1681526020019060010190808311612104575b5050505050905060005b815181101561225e57600061218783838151811061217957612178614611565b5b6020026020010151876113ee565b905060405180606001604052806402540be4008152602001600015158152602001600073ffffffffffffffffffffffffffffffffffffffff16815250600d60008381526020019081526020016000206000820151816000015560208201518160010160006101000a81548160ff02191690831515021790555060408201518160010160016101000a81548173ffffffffffffffffffffffffffffffffffffffff021916908373ffffffffffffffffffffffffffffffffffffffff1602179055509050505080806122569061466f565b915050612158565b50606060405180606001604052806402540be400815260200160001515815260200182815250600c60008581526020019081526020016000206000820151816000015560208201518160010160006101000a81548160ff02191690831515021790555060408201518160020190805190602001906122dd929190613769565b509050506122ea85612912565b5050505050565b60006002600083815260200190815260200160002060009054906101000a900473ffffffffffffffffffffffffffffffffffffffff169050919050565b612336611c4c565b73ffffffffffffffffffffffffffffffffffffffff16612354611332565b73ffffffffffffffffffffffffffffffffffffffff16146123aa576040517f08c379a00000000000000000000000000000000000000000000000000000000081526004016123a190614e22565b60405180910390fd5b565b6000600b60009054906101000a900473ffffffffffffffffffffffffffffffffffffffff16905081600b60006101000a81548173ffffffffffffffffffffffffffffffffffffffff021916908373ffffffffffffffffffffffffffffffffffffffff1602179055508173ffffffffffffffffffffffffffffffffffffffff168173ffffffffffffffffffffffffffffffffffffffff167f8be0079c531659141344cd1fd0a4f28419497f9722a3daafe3b4186f6b6457e060405160405180910390a35050565b8173ffffffffffffffffffffffffffffffffffffffff168373ffffffffffffffffffffffffffffffffffffffff16036124e0576040517f08c379a00000000000000000000000000000000000000000000000000000000081526004016124d790614e8e565b60405180910390fd5b80600560008573ffffffffffffffffffffffffffffffffffffffff1673ffffffffffffffffffffffffffffffffffffffff16815260200190815260200160002060008473ffffffffffffffffffffffffffffffffffffffff1673ffffffffffffffffffffffffffffffffffffffff16815260200190815260200160002060006101000a81548160ff0219169083151502179055508173ffffffffffffffffffffffffffffffffffffffff168373ffffffffffffffffffffffffffffffffffffffff167f17307eab39ab6107e8899845ad3d59bd9653f200f220920489ca2b5937696c31836040516125d1919061393d565b60405180910390a3505050565b6125e9848484611da2565b6125f584848484612965565b612634576040517f08c379a000000000000000000000000000000000000000000000000000000000815260040161262b90614f20565b60405180910390fd5b50505050565b606061264582611c01565b60006006600084815260200190815260200160002080546126659061442a565b80601f01602080910402602001604051908101604052809291908181526020018280546126919061442a565b80156126de5780601f106126b3576101008083540402835291602001916126de565b820191906000526020600020905b8154815290600101906020018083116126c157829003601f168201915b5050505050905060006126ef612aec565b90506000815103612704578192505050612747565b600082511115612739578082604051602001612721929190614f7c565b60405160208183030381529060405292505050612747565b61274284612b03565b925050505b919050565b612766828260405180602001604052806000815250612b6b565b5050565b612773826128b9565b6127b2576040517f08c379a00000000000000000000000000000000000000000000000000000000081526004016127a990615012565b60405180910390fd5b806006600084815260200190815260200160002090816127d29190614987565b505050565b60007f80ac58cd000000000000000000000000000000000000000000000000000000007bffffffffffffffffffffffffffffffffffffffffffffffffffffffff1916827bffffffffffffffffffffffffffffffffffffffffffffffffffffffff191614806128a257507f5b5e139f000000000000000000000000000000000000000000000000000000007bffffffffffffffffffffffffffffffffffffffffffffffffffffffff1916827bffffffffffffffffffffffffffffffffffffffffffffffffffffffff1916145b806128b257506128b182612bc6565b5b9050919050565b60008073ffffffffffffffffffffffffffffffffffffffff166128db836122f1565b73ffffffffffffffffffffffffffffffffffffffff1614159050919050565b61290684848484612c30565b50505050565b50505050565b61291b81612d8e565b600060066000838152602001908152602001600020805461293b9061442a565b90501461296257600660008281526020019081526020016000206000612961919061382c565b5b50565b60006129868473ffffffffffffffffffffffffffffffffffffffff16612edc565b15612adf578373ffffffffffffffffffffffffffffffffffffffff1663150b7a026129af611c4c565b8786866040518563ffffffff1660e01b81526004016129d19493929190615087565b6020604051808303816000875af1925050508015612a0d57506040513d601f19601f82011682018060405250810190612a0a91906150e8565b60015b612a8f573d8060008114612a3d576040519150601f19603f3d011682016040523d82523d6000602084013e612a42565b606091505b506000815103612a87576040517f08c379a0000000000000000000000000000000000000000000000000000000008152600401612a7e90614f20565b60405180910390fd5b805181602001fd5b63150b7a0260e01b7bffffffffffffffffffffffffffffffffffffffffffffffffffffffff1916817bffffffffffffffffffffffffffffffffffffffffffffffffffffffff191614915050612ae4565b600190505b949350505050565b606060405180602001604052806000815250905090565b6060612b0e82611c01565b6000612b18612aec565b90506000815111612b385760405180602001604052806000815250612b63565b80612b4284612eff565b604051602001612b53929190614f7c565b6040516020818303038152906040525b915050919050565b612b758383612fcd565b612b826000848484612965565b612bc1576040517f08c379a0000000000000000000000000000000000000000000000000000000008152600401612bb890614f20565b60405180910390fd5b505050565b60007f01ffc9a7000000000000000000000000000000000000000000000000000000007bffffffffffffffffffffffffffffffffffffffffffffffffffffffff1916827bffffffffffffffffffffffffffffffffffffffffffffffffffffffff1916149050919050565b612c3c848484846131ea565b6001811115612c80576040517f08c379a0000000000000000000000000000000000000000000000000000000008152600401612c7790615187565b60405180910390fd5b6000829050600073ffffffffffffffffffffffffffffffffffffffff168573ffffffffffffffffffffffffffffffffffffffff1603612cc757612cc281613310565b612d06565b8373ffffffffffffffffffffffffffffffffffffffff168573ffffffffffffffffffffffffffffffffffffffff1614612d0557612d048582613359565b5b5b600073ffffffffffffffffffffffffffffffffffffffff168473ffffffffffffffffffffffffffffffffffffffff1603612d4857612d43816134c6565b612d87565b8473ffffffffffffffffffffffffffffffffffffffff168473ffffffffffffffffffffffffffffffffffffffff1614612d8657612d858482613597565b5b5b5050505050565b6000612d99826111e1565b9050612da98160008460016128fa565b612db2826111e1565b90506004600083815260200190815260200160002060006101000a81549073ffffffffffffffffffffffffffffffffffffffff02191690556001600360008373ffffffffffffffffffffffffffffffffffffffff1673ffffffffffffffffffffffffffffffffffffffff168152602001908152602001600020600082825403925050819055506002600083815260200190815260200160002060006101000a81549073ffffffffffffffffffffffffffffffffffffffff021916905581600073ffffffffffffffffffffffffffffffffffffffff168273ffffffffffffffffffffffffffffffffffffffff167fddf252ad1be2c89b69c2b068fc378daa952ba7f163c4a11628f55a4df523b3ef60405160405180910390a4612ed881600084600161290c565b5050565b6000808273ffffffffffffffffffffffffffffffffffffffff163b119050919050565b606060006001612f0e84613616565b01905060008167ffffffffffffffff811115612f2d57612f2c613cef565b5b6040519080825280601f01601f191660200182016040528015612f5f5781602001600182028036833780820191505090505b509050600082602001820190505b600115612fc2578080600190039150507f3031323334353637383961626364656600000000000000000000000000000000600a86061a8153600a8581612fb657612fb56151a7565b5b04945060008503612f6d575b819350505050919050565b600073ffffffffffffffffffffffffffffffffffffffff168273ffffffffffffffffffffffffffffffffffffffff160361303c576040517f08c379a000000000000000000000000000000000000000000000000000000000815260040161303390615222565b60405180910390fd5b613045816128b9565b15613085576040517f08c379a000000000000000000000000000000000000000000000000000000000815260040161307c9061528e565b60405180910390fd5b6130936000838360016128fa565b61309c816128b9565b156130dc576040517f08c379a00000000000000000000000000000000000000000000000000000000081526004016130d39061528e565b60405180910390fd5b6001600360008473ffffffffffffffffffffffffffffffffffffffff1673ffffffffffffffffffffffffffffffffffffffff16815260200190815260200160002060008282540192505081905550816002600083815260200190815260200160002060006101000a81548173ffffffffffffffffffffffffffffffffffffffff021916908373ffffffffffffffffffffffffffffffffffffffff160217905550808273ffffffffffffffffffffffffffffffffffffffff16600073ffffffffffffffffffffffffffffffffffffffff167fddf252ad1be2c89b69c2b068fc378daa952ba7f163c4a11628f55a4df523b3ef60405160405180910390a46131e660008383600161290c565b5050565b600181111561330a57600073ffffffffffffffffffffffffffffffffffffffff168473ffffffffffffffffffffffffffffffffffffffff161461327e5780600360008673ffffffffffffffffffffffffffffffffffffffff1673ffffffffffffffffffffffffffffffffffffffff16815260200190815260200160002060008282546132769190614bec565b925050819055505b600073ffffffffffffffffffffffffffffffffffffffff168373ffffffffffffffffffffffffffffffffffffffff16146133095780600360008573ffffffffffffffffffffffffffffffffffffffff1673ffffffffffffffffffffffffffffffffffffffff168152602001908152602001600020600082825461330191906152ae565b925050819055505b5b50505050565b600980549050600a600083815260200190815260200160002081905550600981908060018154018082558091505060019003906000526020600020016000909190919091505550565b6000600161336684611267565b6133709190614bec565b9050600060086000848152602001908152602001600020549050818114613455576000600760008673ffffffffffffffffffffffffffffffffffffffff1673ffffffffffffffffffffffffffffffffffffffff168152602001908152602001600020600084815260200190815260200160002054905080600760008773ffffffffffffffffffffffffffffffffffffffff1673ffffffffffffffffffffffffffffffffffffffff168152602001908152602001600020600084815260200190815260200160002081905550816008600083815260200190815260200160002081905550505b6008600084815260200190815260200160002060009055600760008573ffffffffffffffffffffffffffffffffffffffff1673ffffffffffffffffffffffffffffffffffffffff16815260200190815260200160002060008381526020019081526020016000206000905550505050565b600060016009805490506134da9190614bec565b90506000600a600084815260200190815260200160002054905060006009838154811061350a57613509614611565b5b90600052602060002001549050806009838154811061352c5761352b614611565b5b906000526020600020018190555081600a600083815260200190815260200160002081905550600a600085815260200190815260200160002060009055600980548061357b5761357a6152e2565b5b6001900381819060005260206000200160009055905550505050565b60006135a283611267565b905081600760008573ffffffffffffffffffffffffffffffffffffffff1673ffffffffffffffffffffffffffffffffffffffff168152602001908152602001600020600083815260200190815260200160002081905550806008600084815260200190815260200160002081905550505050565b600080600090507a184f03e93ff9f4daa797ed6e38ed64bf6a1f0100000000000000008310613674577a184f03e93ff9f4daa797ed6e38ed64bf6a1f010000000000000000838161366a576136696151a7565b5b0492506040810190505b6d04ee2d6d415b85acef810000000083106136b1576d04ee2d6d415b85acef810000000083816136a7576136a66151a7565b5b0492506020810190505b662386f26fc1000083106136e057662386f26fc1000083816136d6576136d56151a7565b5b0492506010810190505b6305f5e1008310613709576305f5e10083816136ff576136fe6151a7565b5b0492506008810190505b612710831061372e576127108381613724576137236151a7565b5b0492506004810190505b606483106137515760648381613747576137466151a7565b5b0492506002810190505b600a8310613760576001810190505b80915050919050565b8280548282559060005260206000209081019282156137e2579160200282015b828111156137e15782518260006101000a81548173ffffffffffffffffffffffffffffffffffffffff021916908373ffffffffffffffffffffffffffffffffffffffff16021790555091602001919060010190613789565b5b5090506137ef919061386c565b5090565b604051806060016040528060008152602001600015158152602001600073ffffffffffffffffffffffffffffffffffffffff1681525090565b5080546138389061442a565b6000825580601f1061384a5750613869565b601f016020900490600052602060002090810190613868919061386c565b5b50565b5b8082111561388557600081600090555060010161386d565b5090565b6000604051905090565b600080fd5b600080fd5b60007fffffffff0000000000000000000000000000000000000000000000000000000082169050919050565b6138d28161389d565b81146138dd57600080fd5b50565b6000813590506138ef816138c9565b92915050565b60006020828403121561390b5761390a613893565b5b6000613919848285016138e0565b91505092915050565b60008115159050919050565b61393781613922565b82525050565b6000602082019050613952600083018461392e565b92915050565b600081519050919050565b600082825260208201905092915050565b60005b83811015613992578082015181840152602081019050613977565b60008484015250505050565b6000601f19601f8301169050919050565b60006139ba82613958565b6139c48185613963565b93506139d4818560208601613974565b6139dd8161399e565b840191505092915050565b60006020820190508181036000830152613a0281846139af565b905092915050565b6000819050919050565b613a1d81613a0a565b8114613a2857600080fd5b50565b600081359050613a3a81613a14565b92915050565b600060208284031215613a5657613a55613893565b5b6000613a6484828501613a2b565b91505092915050565b600073ffffffffffffffffffffffffffffffffffffffff82169050919050565b6000613a9882613a6d565b9050919050565b613aa881613a8d565b82525050565b6000602082019050613ac36000830184613a9f565b92915050565b613ad281613a8d565b8114613add57600080fd5b50565b600081359050613aef81613ac9565b92915050565b60008060408385031215613b0c57613b0b613893565b5b6000613b1a85828601613ae0565b9250506020613b2b85828601613a2b565b9150509250929050565b600080600060608486031215613b4e57613b4d613893565b5b6000613b5c86828701613ae0565b9350506020613b6d86828701613ae0565b9250506040613b7e86828701613a2b565b9150509250925092565b613b9181613a0a565b82525050565b6000602082019050613bac6000830184613b88565b92915050565b600080600060608486031215613bcb57613bca613893565b5b6000613bd986828701613a2b565b9350506020613bea86828701613ae0565b9250506040613bfb86828701613ae0565b9150509250925092565b600081519050919050565b600082825260208201905092915050565b6000819050602082019050919050565b613c3a81613a8d565b82525050565b6000613c4c8383613c31565b60208301905092915050565b6000602082019050919050565b6000613c7082613c05565b613c7a8185613c10565b9350613c8583613c21565b8060005b83811015613cb6578151613c9d8882613c40565b9750613ca883613c58565b925050600181019050613c89565b5085935050505092915050565b60006020820190508181036000830152613cdd8184613c65565b905092915050565b600080fd5b600080fd5b7f4e487b7100000000000000000000000000000000000000000000000000000000600052604160045260246000fd5b613d278261399e565b810181811067ffffffffffffffff82111715613d4657613d45613cef565b5b80604052505050565b6000613d59613889565b9050613d658282613d1e565b919050565b600067ffffffffffffffff821115613d8557613d84613cef565b5b613d8e8261399e565b9050602081019050919050565b82818337600083830152505050565b6000613dbd613db884613d6a565b613d4f565b905082815260208101848484011115613dd957613dd8613cea565b5b613de4848285613d9b565b509392505050565b600082601f830112613e0157613e00613ce5565b5b8135613e11848260208601613daa565b91505092915050565b60008060008060808587031215613e3457613e33613893565b5b6000613e4287828801613a2b565b9450506020613e5387828801613ae0565b9350506040613e6487828801613ae0565b925050606085013567ffffffffffffffff811115613e8557613e84613898565b5b613e9187828801613dec565b91505092959194509250565b600060208284031215613eb357613eb2613893565b5b6000613ec184828501613ae0565b91505092915050565b6000819050919050565b613edd81613eca565b82525050565b6000602082019050613ef86000830184613ed4565b92915050565b613f0781613922565b8114613f1257600080fd5b50565b600081359050613f2481613efe565b92915050565b60008060408385031215613f4157613f40613893565b5b6000613f4f85828601613ae0565b9250506020613f6085828601613f15565b9150509250929050565b600067ffffffffffffffff821115613f8557613f84613cef565b5b613f8e8261399e565b9050602081019050919050565b6000613fae613fa984613f6a565b613d4f565b905082815260208101848484011115613fca57613fc9613cea565b5b613fd5848285613d9b565b509392505050565b600082601f830112613ff257613ff1613ce5565b5b8135614002848260208601613f9b565b91505092915050565b6000806000806080858703121561402557614024613893565b5b600061403387828801613ae0565b945050602061404487828801613ae0565b935050604061405587828801613a2b565b925050606085013567ffffffffffffffff81111561407657614075613898565b5b61408287828801613fdd565b91505092959194509250565b600067ffffffffffffffff8211156140a9576140a8613cef565b5b602082029050602081019050919050565b600080fd5b60006140d26140cd8461408e565b613d4f565b905080838252602082019050602084028301858111156140f5576140f46140ba565b5b835b8181101561411e578061410a8882613ae0565b8452602084019350506020810190506140f7565b5050509392505050565b600082601f83011261413d5761413c613ce5565b5b813561414d8482602086016140bf565b91505092915050565b6000806040838503121561416d5761416c613893565b5b600061417b85828601613ae0565b925050602083013567ffffffffffffffff81111561419c5761419b613898565b5b6141a885828601614128565b9150509250929050565b6000806000606084860312156141cb576141ca613893565b5b60006141d986828701613ae0565b93505060206141ea86828701613a2b565b925050604084013567ffffffffffffffff81111561420b5761420a613898565b5b61421786828701613dec565b9150509250925092565b600067ffffffffffffffff82111561423c5761423b613cef565b5b602082029050602081019050919050565b600061426061425b84614221565b613d4f565b90508083825260208201905060208402830185811115614283576142826140ba565b5b835b818110156142ac57806142988882613a2b565b845260208401935050602081019050614285565b5050509392505050565b600082601f8301126142cb576142ca613ce5565b5b81356142db84826020860161424d565b91505092915050565b600080604083850312156142fb576142fa613893565b5b600061430985828601613a2b565b925050602083013567ffffffffffffffff81111561432a57614329613898565b5b614336858286016142b6565b9150509250929050565b61434981613a0a565b82525050565b61435881613922565b82525050565b6060820160008201516143746000850182614340565b506020820151614387602085018261434f565b50604082015161439a6040850182613c31565b50505050565b60006060820190506143b5600083018461435e565b92915050565b600080604083850312156143d2576143d1613893565b5b60006143e085828601613ae0565b92505060206143f185828601613ae0565b9150509250929050565b7f4e487b7100000000000000000000000000000000000000000000000000000000600052602260045260246000fd5b6000600282049050600182168061444257607f821691505b602082108103614455576144546143fb565b5b50919050565b7f4552433732313a20617070726f76616c20746f2063757272656e74206f776e6560008201527f7200000000000000000000000000000000000000000000000000000000000000602082015250565b60006144b7602183613963565b91506144c28261445b565b604082019050919050565b600060208201905081810360008301526144e6816144aa565b9050919050565b7f4552433732313a20617070726f76652063616c6c6572206973206e6f7420746f60008201527f6b656e206f776e6572206f7220617070726f76656420666f7220616c6c000000602082015250565b6000614549603d83613963565b9150614554826144ed565b604082019050919050565b600060208201905081810360008301526145788161453c565b9050919050565b7f4552433732313a2063616c6c6572206973206e6f7420746f6b656e206f776e6560008201527f72206f7220617070726f76656400000000000000000000000000000000000000602082015250565b60006145db602d83613963565b91506145e68261457f565b604082019050919050565b6000602082019050818103600083015261460a816145ce565b9050919050565b7f4e487b7100000000000000000000000000000000000000000000000000000000600052603260045260246000fd5b7f4e487b7100000000000000000000000000000000000000000000000000000000600052601160045260246000fd5b600061467a82613a0a565b91507fffffffffffffffffffffffffffffffffffffffffffffffffffffffffffffffff82036146ac576146ab614640565b5b600182019050919050565b7f455243373231456e756d657261626c653a206f776e657220696e646578206f7560008201527f74206f6620626f756e6473000000000000000000000000000000000000000000602082015250565b6000614713602b83613963565b915061471e826146b7565b604082019050919050565b6000602082019050818103600083015261474281614706565b9050919050565b7f455243373231456e756d657261626c653a20676c6f62616c20696e646578206f60008201527f7574206f6620626f756e64730000000000000000000000000000000000000000602082015250565b60006147a5602c83613963565b91506147b082614749565b604082019050919050565b600060208201905081810360008301526147d481614798565b9050919050565b60008190508160005260206000209050919050565b60006020601f8301049050919050565b600082821b905092915050565b60006008830261483d7fffffffffffffffffffffffffffffffffffffffffffffffffffffffffffffffff82614800565b6148478683614800565b95508019841693508086168417925050509392505050565b6000819050919050565b600061488461487f61487a84613a0a565b61485f565b613a0a565b9050919050565b6000819050919050565b61489e83614869565b6148b26148aa8261488b565b84845461480d565b825550505050565b600090565b6148c76148ba565b6148d2818484614895565b505050565b5b818110156148f6576148eb6000826148bf565b6001810190506148d8565b5050565b601f82111561493b5761490c816147db565b614915846147f0565b81016020851015614924578190505b614938614930856147f0565b8301826148d7565b50505b505050565b600082821c905092915050565b600061495e60001984600802614940565b1980831691505092915050565b6000614977838361494d565b9150826002028217905092915050565b61499082613958565b67ffffffffffffffff8111156149a9576149a8613cef565b5b6149b3825461442a565b6149be8282856148fa565b600060209050601f8311600181146149f157600084156149df578287015190505b6149e9858261496b565b865550614a51565b601f1984166149ff866147db565b60005b82811015614a2757848901518255600182019150602085019450602081019050614a02565b86831015614a445784890151614a40601f89168261494d565b8355505b6001600288020188555050505b505050505050565b7f4552433732313a20696e76616c696420746f6b656e2049440000000000000000600082015250565b6000614a8f601883613963565b9150614a9a82614a59565b602082019050919050565b60006020820190508181036000830152614abe81614a82565b9050919050565b7f4552433732313a2061646472657373207a65726f206973206e6f74206120766160008201527f6c6964206f776e65720000000000000000000000000000000000000000000000602082015250565b6000614b21602983613963565b9150614b2c82614ac5565b604082019050919050565b60006020820190508181036000830152614b5081614b14565b9050919050565b60008160601b9050919050565b6000614b6f82614b57565b9050919050565b6000614b8182614b64565b9050919050565b614b99614b9482613a8d565b614b76565b82525050565b6000819050919050565b614bba614bb582613a0a565b614b9f565b82525050565b6000614bcc8285614b88565b601482019150614bdc8284614ba9565b6020820191508190509392505050565b6000614bf782613a0a565b9150614c0283613a0a565b9250828203905081811115614c1a57614c19614640565b5b92915050565b7f4f776e61626c653a206e6577206f776e657220697320746865207a65726f206160008201527f6464726573730000000000000000000000000000000000000000000000000000602082015250565b6000614c7c602683613963565b9150614c8782614c20565b604082019050919050565b60006020820190508181036000830152614cab81614c6f565b9050919050565b7f4552433732313a207472616e736665722066726f6d20696e636f72726563742060008201527f6f776e6572000000000000000000000000000000000000000000000000000000602082015250565b6000614d0e602583613963565b9150614d1982614cb2565b604082019050919050565b60006020820190508181036000830152614d3d81614d01565b9050919050565b7f4552433732313a207472616e7366657220746f20746865207a65726f2061646460008201527f7265737300000000000000000000000000000000000000000000000000000000602082015250565b6000614da0602483613963565b9150614dab82614d44565b604082019050919050565b60006020820190508181036000830152614dcf81614d93565b9050919050565b7f4f776e61626c653a2063616c6c6572206973206e6f7420746865206f776e6572600082015250565b6000614e0c602083613963565b9150614e1782614dd6565b602082019050919050565b60006020820190508181036000830152614e3b81614dff565b9050919050565b7f4552433732313a20617070726f766520746f2063616c6c657200000000000000600082015250565b6000614e78601983613963565b9150614e8382614e42565b602082019050919050565b60006020820190508181036000830152614ea781614e6b565b9050919050565b7f4552433732313a207472616e7366657220746f206e6f6e20455243373231526560008201527f63656976657220696d706c656d656e7465720000000000000000000000000000602082015250565b6000614f0a603283613963565b9150614f1582614eae565b604082019050919050565b60006020820190508181036000830152614f3981614efd565b9050919050565b600081905092915050565b6000614f5682613958565b614f608185614f40565b9350614f70818560208601613974565b80840191505092915050565b6000614f888285614f4b565b9150614f948284614f4b565b91508190509392505050565b7f45524337323155524953746f726167653a2055524920736574206f66206e6f6e60008201527f6578697374656e7420746f6b656e000000000000000000000000000000000000602082015250565b6000614ffc602e83613963565b915061500782614fa0565b604082019050919050565b6000602082019050818103600083015261502b81614fef565b9050919050565b600081519050919050565b600082825260208201905092915050565b600061505982615032565b615063818561503d565b9350615073818560208601613974565b61507c8161399e565b840191505092915050565b600060808201905061509c6000830187613a9f565b6150a96020830186613a9f565b6150b66040830185613b88565b81810360608301526150c8818461504e565b905095945050505050565b6000815190506150e2816138c9565b92915050565b6000602082840312156150fe576150fd613893565b5b600061510c848285016150d3565b91505092915050565b7f455243373231456e756d657261626c653a20636f6e736563757469766520747260008201527f616e7366657273206e6f7420737570706f727465640000000000000000000000602082015250565b6000615171603583613963565b915061517c82615115565b604082019050919050565b600060208201905081810360008301526151a081615164565b9050919050565b7f4e487b7100000000000000000000000000000000000000000000000000000000600052601260045260246000fd5b7f4552433732313a206d696e7420746f20746865207a65726f2061646472657373600082015250565b600061520c602083613963565b9150615217826151d6565b602082019050919050565b6000602082019050818103600083015261523b816151ff565b9050919050565b7f4552433732313a20746f6b656e20616c7265616479206d696e74656400000000600082015250565b6000615278601c83613963565b915061528382615242565b602082019050919050565b600060208201905081810360008301526152a78161526b565b9050919050565b60006152b982613a0a565b91506152c483613a0a565b92508282019050808211156152dc576152db614640565b5b92915050565b7f4e487b7100000000000000000000000000000000000000000000000000000000600052603160045260246000fdfea2646970667358221220afe6b24489f7ffc82a3c7d26fdd84fb2589a1bdd7ed67b60ce5977e9811e8b4f64736f6c63430008110033",
  "immutableReferences": {},
  "source": "// SPDX-License-Identifier: MIT\r\npragma solidity >=0.4.22 <0.9.0;\r\n\r\nimport \"@openzeppelin/contracts/token/ERC721/ERC721.sol\";\r\nimport \"@openzeppelin/contracts/token/ERC721/extensions/ERC721URIStorage.sol\";\r\nimport \"@openzeppelin/contracts/token/ERC721/extensions/ERC721Burnable.sol\";\r\nimport \"@openzeppelin/contracts/access/Ownable.sol\";\r\nimport \"@openzeppelin/contracts/token/ERC721/extensions/ERC721Enumerable.sol\";\r\nimport \"../Utils.sol\";\r\n\r\ncontract LandToken is ERC721, ERC721URIStorage, ERC721Enumerable, ERC721Burnable, Ownable, Utils {\r\n\r\n    struct TokenOwnerStruct {\r\n        uint256 tokenId;\r\n        bool isShared;\r\n        address[] sharedOwners;\r\n    }\r\n    mapping(bytes32 => TokenOwnerStruct) TokenOwner;\r\n\r\n    struct TokenSharedOwnerStruct {\r\n        uint256 tokenId;\r\n        bool isSharing;\r\n        address originalOwner;\r\n    }\r\n    mapping(bytes32 => TokenSharedOwnerStruct) TokenSharedOwner;\r\n\r\n    mapping(uint256 => mapping(address => mapping(address => string))) documentMapping;\r\n\r\n    address private newOwner;\r\n    address private oldOwner;\r\n\r\n    constructor() ERC721(\"LandToken\", \"LTT\") {}\r\n\r\n    function _beforeTokenTransfer(address from, address to, uint256 tokenId, uint256 batchSize) internal override(ERC721, ERC721Enumerable) {\r\n        super._beforeTokenTransfer(from, to, tokenId, batchSize);\r\n    }\r\n\r\n    function supportsInterface(bytes4 interfaceId) public view override(ERC721, ERC721Enumerable) returns (bool) {\r\n        return super.supportsInterface(interfaceId);\r\n    }\r\n\r\n    function safeMint(address to, uint256 tokenId, string memory uri) public {\r\n         _safeMint(to, tokenId);  _setTokenURI(tokenId, uri);\r\n        \r\n        address[] memory emptyArray;\r\n        bytes32 ownerToken = hashTokenAddress(to,tokenId);\r\n        TokenOwner[ownerToken] = TokenOwnerStruct(tokenId,false,emptyArray);\r\n    }\r\n\r\n\r\n    function sharedTokenOwner(address sharedOwner, uint256 tokenId) public view returns(TokenSharedOwnerStruct memory) {\r\n        bytes32 ownerToken = hashTokenAddress(sharedOwner,tokenId);\r\n        return TokenSharedOwner[ownerToken];\r\n    }\r\n\r\n    function sharedOwnerList(address owner, uint256 tokenId) public view returns(address[] memory) {\r\n        bytes32 ownerToken = hashTokenAddress(owner,tokenId);\r\n        return TokenOwner[ownerToken].sharedOwners;\r\n    }\r\n\r\n    // The following functions are overrides required by Solidity.\r\n\r\n    function _burn(uint256 tokenId) internal override(ERC721, ERC721URIStorage) {\r\n        address owner = ownerOf(tokenId);\r\n        bytes32 ownerToken = hashTokenAddress(owner,tokenId);\r\n        address[] memory sharedOwners = TokenOwner[ownerToken].sharedOwners;\r\n\r\n        for(uint i=0; i<sharedOwners.length; i++) {\r\n            bytes32 sharedToken = hashTokenAddress(sharedOwners[i],tokenId);\r\n            TokenSharedOwner[sharedToken] = TokenSharedOwnerStruct(10000000000,false,address(0));\r\n        }\r\n\r\n        address[] memory emptyArray;\r\n        TokenOwner[ownerToken] = TokenOwnerStruct(10000000000,false,emptyArray);\r\n\r\n        super._burn(tokenId);\r\n    }\r\n\r\n    function tokenURI(uint256 tokenId) public view override(ERC721, ERC721URIStorage) returns (string memory) {\r\n        return super.tokenURI(tokenId);\r\n    }\r\n\r\n    function setSharedOwners(address owner, address sharedOwner, uint256 tokenId) public {\r\n        require(_isApprovedOrOwner(_msgSender(), tokenId), \"ERC721: caller is not token owner or approved\");\r\n        \r\n        bytes32 ownerToken = hashTokenAddress(owner,tokenId);\r\n\r\n        bytes32 sharedToken = hashTokenAddress(sharedOwner,tokenId);\r\n        TokenOwner[ownerToken].sharedOwners.push(sharedOwner);\r\n        TokenSharedOwner[sharedToken] = TokenSharedOwnerStruct(tokenId,true,owner);\r\n        \r\n    }\r\n\r\n    function deleteSharedOwners(address owner, address sharedOwner, uint256 tokenId) public {\r\n        require(_isApprovedOrOwner(_msgSender(), tokenId), \"ERC721: caller is not token owner or approved\");\r\n\r\n        bytes32 ownerToken = hashTokenAddress(owner,tokenId);\r\n        address[] memory sharedOwners = TokenOwner[ownerToken].sharedOwners;\r\n\r\n        bytes32 sharedToken = hashTokenAddress(sharedOwner, tokenId);\r\n        TokenSharedOwner[sharedToken] = TokenSharedOwnerStruct(10000000000,false,address(0));\r\n\r\n        address[] memory outputArray = new address[](sharedOwners.length-1);\r\n\r\n        for(uint i = 0; i < sharedOwners.length; i++) {\r\n            uint j = 0;\r\n            if (sharedOwners[i] != sharedOwner) {\r\n                outputArray[j] = sharedOwners[i];\r\n                j++;\r\n            }\r\n        }\r\n\r\n        TokenOwner[ownerToken].sharedOwners = outputArray;\r\n\r\n    }\r\n\r\n    function transferFrom(address from, address to, uint256 tokenId) public override(ERC721, IERC721) {\r\n        require(_isApprovedOrOwner(_msgSender(), tokenId), \"ERC721: caller is not token owner or approved\");\r\n        _transfer(from, to, tokenId);\r\n\r\n        bytes32 ownerToken = hashTokenAddress(from,tokenId);\r\n        address[] memory sharedOwners = TokenOwner[ownerToken].sharedOwners;\r\n\r\n        for(uint i=0; i<sharedOwners.length; i++) {\r\n            bytes32 sharedToken = hashTokenAddress(sharedOwners[i],tokenId);\r\n            TokenSharedOwner[sharedToken] = TokenSharedOwnerStruct(10000000000,false,address(0));\r\n        }\r\n\r\n        address[] memory emptyArray;\r\n        TokenOwner[ownerToken] = TokenOwnerStruct(10000000000,false,emptyArray);\r\n\r\n        bytes32 newOwnerToken = hashTokenAddress(to,tokenId);\r\n        TokenOwner[newOwnerToken] = TokenOwnerStruct(tokenId,false,emptyArray);\r\n    }\r\n\r\n    function setNewOwner(address user) public {\r\n        newOwner = user;\r\n    }\r\n\r\n    function transferAgreementDocument(uint256 tokenId, address _newOwner, address _oldOwner, string memory document) public {\r\n        require(_isApprovedOrOwner(_msgSender(), tokenId), \"ERC721: caller is not token owner or approved\");\r\n\r\n        oldOwner = ownerOf(tokenId);\r\n        documentMapping[tokenId][_newOwner][_oldOwner] = document;\r\n\r\n        transferFrom(_oldOwner, _newOwner, tokenId);\r\n    }\r\n\r\n    function retrieveTransferDocument(uint256 tokenId, address _newOwner, address _oldOwner) public view returns (string memory) {\r\n        return documentMapping[tokenId][_newOwner][_oldOwner];\r\n    }\r\n    \r\n}\r\n",
  "sourcePath": "C:\\Users\\hp\\Desktop\\University Stuff\\FYP\\blockestate-next\\contracts\\tokens\\LandToken.sol",
  "compiler": {
    "name": "solc",
    "version": "0.8.17+commit.8df45f5f.Emscripten.clang"
  },
  "schemaVersion": "3.4.10",
  "updatedAt": "2023-05-13T10:30:14.412Z",
  "networkType": "ethereum",
  "devdoc": {
    "kind": "dev",
    "methods": {
      "approve(address,uint256)": {
        "details": "See {IERC721-approve}."
      },
      "balanceOf(address)": {
        "details": "See {IERC721-balanceOf}."
      },
      "burn(uint256)": {
        "details": "Burns `tokenId`. See {ERC721-_burn}. Requirements: - The caller must own `tokenId` or be an approved operator."
      },
      "getApproved(uint256)": {
        "details": "See {IERC721-getApproved}."
      },
      "isApprovedForAll(address,address)": {
        "details": "See {IERC721-isApprovedForAll}."
      },
      "name()": {
        "details": "See {IERC721Metadata-name}."
      },
      "owner()": {
        "details": "Returns the address of the current owner."
      },
      "ownerOf(uint256)": {
        "details": "See {IERC721-ownerOf}."
      },
      "renounceOwnership()": {
        "details": "Leaves the contract without owner. It will not be possible to call `onlyOwner` functions anymore. Can only be called by the current owner. NOTE: Renouncing ownership will leave the contract without an owner, thereby removing any functionality that is only available to the owner."
      },
      "safeTransferFrom(address,address,uint256)": {
        "details": "See {IERC721-safeTransferFrom}."
      },
      "safeTransferFrom(address,address,uint256,bytes)": {
        "details": "See {IERC721-safeTransferFrom}."
      },
      "setApprovalForAll(address,bool)": {
        "details": "See {IERC721-setApprovalForAll}."
      },
      "symbol()": {
        "details": "See {IERC721Metadata-symbol}."
      },
      "tokenByIndex(uint256)": {
        "details": "See {IERC721Enumerable-tokenByIndex}."
      },
      "tokenOfOwnerByIndex(address,uint256)": {
        "details": "See {IERC721Enumerable-tokenOfOwnerByIndex}."
      },
      "totalSupply()": {
        "details": "See {IERC721Enumerable-totalSupply}."
      },
      "transferOwnership(address)": {
        "details": "Transfers ownership of the contract to a new account (`newOwner`). Can only be called by the current owner."
      }
    },
    "version": 1
  },
  "userdoc": {
    "kind": "user",
    "methods": {},
    "version": 1
  }
}