{
  "contractName": "UserController",
  "abi": [
    {
      "inputs": [
        {
          "internalType": "contract UserStorage",
          "name": "_UserStorageContract",
          "type": "address"
        }
      ],
      "stateMutability": "nonpayable",
      "type": "constructor"
    },
    {
      "inputs": [],
      "name": "UserStorageContract",
      "outputs": [
        {
          "internalType": "contract UserStorage",
          "name": "",
          "type": "address"
        }
      ],
      "stateMutability": "view",
      "type": "function",
      "constant": true
    },
    {
      "inputs": [],
      "name": "getContractAddress",
      "outputs": [
        {
          "internalType": "contract UserStorage",
          "name": "",
          "type": "address"
        }
      ],
      "stateMutability": "view",
      "type": "function",
      "constant": true
    },
    {
      "inputs": [
        {
          "internalType": "bytes32",
          "name": "_cnic",
          "type": "bytes32"
        }
      ],
      "name": "registerCnic",
      "outputs": [],
      "stateMutability": "nonpayable",
      "type": "function"
    },
    {
      "inputs": [],
      "name": "getCnicByAddress",
      "outputs": [
        {
          "internalType": "bytes32",
          "name": "",
          "type": "bytes32"
        }
      ],
      "stateMutability": "view",
      "type": "function",
      "constant": true
    },
    {
      "inputs": [
        {
          "internalType": "bytes32",
          "name": "_firstname",
          "type": "bytes32"
        },
        {
          "internalType": "bytes32",
          "name": "_lastname",
          "type": "bytes32"
        },
        {
          "internalType": "bytes32",
          "name": "_email",
          "type": "bytes32"
        },
        {
          "internalType": "bytes32",
          "name": "_contact",
          "type": "bytes32"
        }
      ],
      "name": "createUser",
      "outputs": [],
      "stateMutability": "nonpayable",
      "type": "function"
    },
    {
      "inputs": [],
      "name": "getUserProfileByAddress",
      "outputs": [
        {
          "components": [
            {
              "internalType": "uint256",
              "name": "id",
              "type": "uint256"
            },
            {
              "internalType": "bytes32",
              "name": "firstName",
              "type": "bytes32"
            },
            {
              "internalType": "bytes32",
              "name": "lastName",
              "type": "bytes32"
            },
            {
              "internalType": "bytes32",
              "name": "email",
              "type": "bytes32"
            },
            {
              "internalType": "bytes32",
              "name": "contact",
              "type": "bytes32"
            },
            {
              "internalType": "bool",
              "name": "exists",
              "type": "bool"
            }
          ],
          "internalType": "struct Profile",
          "name": "",
          "type": "tuple"
        }
      ],
      "stateMutability": "view",
      "type": "function",
      "constant": true
    }
  ],
  "bytecode": "0x608060405234801561001057600080fd5b50604051610a9f380380610a9f833981810160405281019061003291906100ed565b806000806101000a81548173ffffffffffffffffffffffffffffffffffffffff021916908373ffffffffffffffffffffffffffffffffffffffff1602179055505061011a565b600080fd5b600073ffffffffffffffffffffffffffffffffffffffff82169050919050565b60006100a88261007d565b9050919050565b60006100ba8261009d565b9050919050565b6100ca816100af565b81146100d557600080fd5b50565b6000815190506100e7816100c1565b92915050565b60006020828403121561010357610102610078565b5b6000610111848285016100d8565b91505092915050565b610976806101296000396000f3fe608060405234801561001057600080fd5b50600436106100625760003560e01c80630a99f2ea146100675780631134cccd1461008557806332a2c5d0146100a1578063340e5c2e146100bf5780635d398327146100dd578063888caad1146100fb575b600080fd5b61006f610117565b60405161007c91906104e2565b60405180910390f35b61009f600480360381019061009a9190610538565b6101be565b005b6100a9610257565b6040516100b6919061061e565b60405180910390f35b6100c7610280565b6040516100d4919061061e565b60405180910390f35b6100e56102a4565b6040516100f29190610648565b60405180910390f35b61011560048036038101906101109190610663565b610346565b005b61011f6103d6565b60008054906101000a900473ffffffffffffffffffffffffffffffffffffffff1673ffffffffffffffffffffffffffffffffffffffff1663f807ae91336040518263ffffffff1660e01b815260040161017891906106b1565b60c060405180830381865afa158015610195573d6000803e3d6000fd5b505050506040513d601f19601f820116820180604052508101906101b9919061086a565b905090565b60008054906101000a900473ffffffffffffffffffffffffffffffffffffffff1673ffffffffffffffffffffffffffffffffffffffff16638dc59f4b85858585336040518663ffffffff1660e01b815260040161021f959493929190610897565b600060405180830381600087803b15801561023957600080fd5b505af115801561024d573d6000803e3d6000fd5b5050505050505050565b60008060009054906101000a900473ffffffffffffffffffffffffffffffffffffffff16905090565b60008054906101000a900473ffffffffffffffffffffffffffffffffffffffff1681565b60008060009054906101000a900473ffffffffffffffffffffffffffffffffffffffff1673ffffffffffffffffffffffffffffffffffffffff1663ceb8d323336040518263ffffffff1660e01b815260040161030091906106b1565b602060405180830381865afa15801561031d573d6000803e3d6000fd5b505050506040513d601f19601f8201168201806040525081019061034191906108ea565b905090565b60008054906101000a900473ffffffffffffffffffffffffffffffffffffffff1673ffffffffffffffffffffffffffffffffffffffff1663c53f066f82336040518363ffffffff1660e01b81526004016103a1929190610917565b600060405180830381600087803b1580156103bb57600080fd5b505af11580156103cf573d6000803e3d6000fd5b5050505050565b6040518060c0016040528060008152602001600080191681526020016000801916815260200160008019168152602001600080191681526020016000151581525090565b6000819050919050565b61042d8161041a565b82525050565b6000819050919050565b61044681610433565b82525050565b60008115159050919050565b6104618161044c565b82525050565b60c08201600082015161047d6000850182610424565b506020820151610490602085018261043d565b5060408201516104a3604085018261043d565b5060608201516104b6606085018261043d565b5060808201516104c9608085018261043d565b5060a08201516104dc60a0850182610458565b50505050565b600060c0820190506104f76000830184610467565b92915050565b6000604051905090565b600080fd5b61051581610433565b811461052057600080fd5b50565b6000813590506105328161050c565b92915050565b6000806000806080858703121561055257610551610507565b5b600061056087828801610523565b945050602061057187828801610523565b935050604061058287828801610523565b925050606061059387828801610523565b91505092959194509250565b600073ffffffffffffffffffffffffffffffffffffffff82169050919050565b6000819050919050565b60006105e46105df6105da8461059f565b6105bf565b61059f565b9050919050565b60006105f6826105c9565b9050919050565b6000610608826105eb565b9050919050565b610618816105fd565b82525050565b6000602082019050610633600083018461060f565b92915050565b61064281610433565b82525050565b600060208201905061065d6000830184610639565b92915050565b60006020828403121561067957610678610507565b5b600061068784828501610523565b91505092915050565b600061069b8261059f565b9050919050565b6106ab81610690565b82525050565b60006020820190506106c660008301846106a2565b92915050565b600080fd5b6000601f19601f8301169050919050565b7f4e487b7100000000000000000000000000000000000000000000000000000000600052604160045260246000fd5b61071a826106d1565b810181811067ffffffffffffffff82111715610739576107386106e2565b5b80604052505050565b600061074c6104fd565b90506107588282610711565b919050565b6107668161041a565b811461077157600080fd5b50565b6000815190506107838161075d565b92915050565b6000815190506107988161050c565b92915050565b6107a78161044c565b81146107b257600080fd5b50565b6000815190506107c48161079e565b92915050565b600060c082840312156107e0576107df6106cc565b5b6107ea60c0610742565b905060006107fa84828501610774565b600083015250602061080e84828501610789565b602083015250604061082284828501610789565b604083015250606061083684828501610789565b606083015250608061084a84828501610789565b60808301525060a061085e848285016107b5565b60a08301525092915050565b600060c082840312156108805761087f610507565b5b600061088e848285016107ca565b91505092915050565b600060a0820190506108ac6000830188610639565b6108b96020830187610639565b6108c66040830186610639565b6108d36060830185610639565b6108e060808301846106a2565b9695505050505050565b600060208284031215610900576108ff610507565b5b600061090e84828501610789565b91505092915050565b600060408201905061092c6000830185610639565b61093960208301846106a2565b939250505056fea2646970667358221220624f1acc792461905022d479c7ca7346761d77efa01e534131acc9ef1e03a30764736f6c63430008110033",
  "immutableReferences": {},
  "source": "// SPDX-License-Identifier: MIT\r\npragma solidity >=0.4.22 <0.9.0;\r\n\r\nimport './UserStorage.sol';\r\nimport '../StructDeclaration.sol';\r\n\r\ncontract UserController {\r\n\r\n    UserStorage public UserStorageContract;\r\n\r\n    constructor(UserStorage _UserStorageContract) {\r\n        UserStorageContract = _UserStorageContract;\r\n    }\r\n\r\n    function getContractAddress() public view returns(UserStorage) {\r\n        return UserStorageContract;\r\n    }\r\n\r\n    function registerCnic(bytes32 _cnic) public {\r\n        UserStorageContract.registerCNIC(_cnic, msg.sender);\r\n    }\r\n\r\n    function getCnicByAddress() public view returns(bytes32) {\r\n        return UserStorageContract.getCnicByAddress(msg.sender);\r\n    }\r\n\r\n    function createUser(bytes32 _firstname, bytes32 _lastname, bytes32 _email, bytes32 _contact) public {\r\n        UserStorageContract.createUser(_firstname, _lastname, _email, _contact, msg.sender);\r\n    }\r\n\r\n    function getUserProfileByAddress() public view returns(Profile memory) {\r\n        return UserStorageContract.getUserProfileByAddress(msg.sender);\r\n    }\r\n\r\n}",
  "sourcePath": "C:\\Users\\hp\\Desktop\\University Stuff\\FYP\\blockestate-next\\contracts\\users\\UserController.sol",
  "compiler": {
    "name": "solc",
    "version": "0.8.17+commit.8df45f5f.Emscripten.clang"
  },
  "schemaVersion": "3.4.10",
  "updatedAt": "2023-02-02T16:46:52.200Z",
  "networkType": "ethereum",
  "devdoc": {
    "kind": "dev",
    "methods": {},
    "version": 1
  },
  "userdoc": {
    "kind": "user",
    "methods": {},
    "version": 1
  }
}