{
  "contractName": "UserStorage",
  "abi": [
    {
      "inputs": [],
      "stateMutability": "nonpayable",
      "type": "constructor"
    },
    {
      "inputs": [
        {
          "internalType": "address",
          "name": "_controllerAddress",
          "type": "address"
        }
      ],
      "name": "setControllerAddress",
      "outputs": [],
      "stateMutability": "nonpayable",
      "type": "function"
    },
    {
      "inputs": [
        {
          "internalType": "bytes32",
          "name": "_cnic",
          "type": "bytes32"
        },
        {
          "internalType": "address",
          "name": "_address",
          "type": "address"
        }
      ],
      "name": "registerCNIC",
      "outputs": [],
      "stateMutability": "nonpayable",
      "type": "function"
    },
    {
      "inputs": [
        {
          "internalType": "bytes32",
          "name": "_firstname",
          "type": "bytes32"
        },
        {
          "internalType": "bytes32",
          "name": "_lastname",
          "type": "bytes32"
        },
        {
          "internalType": "bytes32",
          "name": "_email",
          "type": "bytes32"
        },
        {
          "internalType": "bytes32",
          "name": "_contact",
          "type": "bytes32"
        },
        {
          "internalType": "address",
          "name": "_address",
          "type": "address"
        }
      ],
      "name": "createUser",
      "outputs": [],
      "stateMutability": "nonpayable",
      "type": "function"
    },
    {
      "inputs": [
        {
          "internalType": "address",
          "name": "_address",
          "type": "address"
        }
      ],
      "name": "getCnicByAddress",
      "outputs": [
        {
          "internalType": "bytes32",
          "name": "",
          "type": "bytes32"
        }
      ],
      "stateMutability": "view",
      "type": "function",
      "constant": true
    },
    {
      "inputs": [
        {
          "internalType": "address",
          "name": "_address",
          "type": "address"
        }
      ],
      "name": "getUserProfileByAddress",
      "outputs": [
        {
          "components": [
            {
              "internalType": "uint256",
              "name": "id",
              "type": "uint256"
            },
            {
              "internalType": "bytes32",
              "name": "firstName",
              "type": "bytes32"
            },
            {
              "internalType": "bytes32",
              "name": "lastName",
              "type": "bytes32"
            },
            {
              "internalType": "bytes32",
              "name": "email",
              "type": "bytes32"
            },
            {
              "internalType": "bytes32",
              "name": "contact",
              "type": "bytes32"
            },
            {
              "internalType": "bool",
              "name": "exists",
              "type": "bool"
            }
          ],
          "internalType": "struct Profile",
          "name": "",
          "type": "tuple"
        }
      ],
      "stateMutability": "view",
      "type": "function",
      "constant": true
    },
    {
      "inputs": [],
      "name": "getCnicList",
      "outputs": [
        {
          "internalType": "bytes32[]",
          "name": "",
          "type": "bytes32[]"
        }
      ],
      "stateMutability": "view",
      "type": "function",
      "constant": true
    },
    {
      "inputs": [
        {
          "internalType": "bytes32",
          "name": "_newCnic",
          "type": "bytes32"
        },
        {
          "internalType": "address",
          "name": "_address",
          "type": "address"
        }
      ],
      "name": "updateCNIC",
      "outputs": [],
      "stateMutability": "nonpayable",
      "type": "function"
    }
  ],
  "bytecode": "0x60806040526000600455600060055534801561001a57600080fd5b50336000806101000a81548173ffffffffffffffffffffffffffffffffffffffff021916908373ffffffffffffffffffffffffffffffffffffffff160217905550610ec58061006a6000396000f3fe608060405234801561001057600080fd5b506004361061007d5760003560e01c8063c53f066f1161005b578063c53f066f146100d8578063ceb8d323146100f4578063f3d3d44814610124578063f807ae91146101405761007d565b80631ae1b7791461008257806338c8662d1461009e5780638dc59f4b146100bc575b600080fd5b61009c60048036038101906100979190610a44565b610170565b005b6100a6610361565b6040516100b39190610b42565b60405180910390f35b6100d660048036038101906100d19190610b64565b610413565b005b6100f260048036038101906100ed9190610a44565b610565565b005b61010e60048036038101906101099190610bdf565b6106df565b60405161011b9190610c1b565b60405180910390f35b61013e60048036038101906101399190610bdf565b610782565b005b61015a60048036038101906101559190610bdf565b610854565b6040516101679190610ce5565b60405180910390f35b600160009054906101000a900473ffffffffffffffffffffffffffffffffffffffff1673ffffffffffffffffffffffffffffffffffffffff163373ffffffffffffffffffffffffffffffffffffffff16146101ca57600080fd5b6000600260008373ffffffffffffffffffffffffffffffffffffffff1673ffffffffffffffffffffffffffffffffffffffff16815260200190815260200160002054905082600260008473ffffffffffffffffffffffffffffffffffffffff1673ffffffffffffffffffffffffffffffffffffffff16815260200190815260200160002081905550600115156003600083815260200190815260200160002060050160009054906101000a900460ff1615150361035c57600360008281526020019081526020016000206003600085815260200190815260200160002060008201548160000155600182015481600101556002820154816002015560038201548160030155600482015481600401556005820160009054906101000a900460ff168160050160006101000a81548160ff0219169083151502179055509050506003600082815260200190815260200160002060008082016000905560018201600090556002820160009055600382016000905560048201600090556005820160006101000a81549060ff021916905550505b505050565b6060600160009054906101000a900473ffffffffffffffffffffffffffffffffffffffff1673ffffffffffffffffffffffffffffffffffffffff163373ffffffffffffffffffffffffffffffffffffffff16146103bd57600080fd5b600680548060200260200160405190810160405280929190818152602001828054801561040957602002820191906000526020600020905b8154815260200190600101908083116103f5575b5050505050905090565b600160009054906101000a900473ffffffffffffffffffffffffffffffffffffffff1673ffffffffffffffffffffffffffffffffffffffff163373ffffffffffffffffffffffffffffffffffffffff161461046d57600080fd5b6004600081548092919061048090610d2f565b91905055506040518060c0016040528060045481526020018681526020018581526020018481526020018381526020016001151581525060036000600260008573ffffffffffffffffffffffffffffffffffffffff1673ffffffffffffffffffffffffffffffffffffffff168152602001908152602001600020548152602001908152602001600020600082015181600001556020820151816001015560408201518160020155606082015181600301556080820151816004015560a08201518160050160006101000a81548160ff0219169083151502179055509050505050505050565b816000805b6006805490508110156105b8576006818154811061058b5761058a610d77565b5b906000526020600020015483036105a557600191506105b8565b80806105b090610d2f565b91505061056a565b5080156105fa576040517f08c379a00000000000000000000000000000000000000000000000000000000081526004016105f190610e03565b60405180910390fd5b600160009054906101000a900473ffffffffffffffffffffffffffffffffffffffff1673ffffffffffffffffffffffffffffffffffffffff163373ffffffffffffffffffffffffffffffffffffffff161461065457600080fd5b83600260008573ffffffffffffffffffffffffffffffffffffffff1673ffffffffffffffffffffffffffffffffffffffff168152602001908152602001600020819055506006849080600181540180825580915050600190039060005260206000200160009091909190915055600560008154809291906106d490610d2f565b919050555050505050565b6000600160009054906101000a900473ffffffffffffffffffffffffffffffffffffffff1673ffffffffffffffffffffffffffffffffffffffff163373ffffffffffffffffffffffffffffffffffffffff161461073b57600080fd5b600260008373ffffffffffffffffffffffffffffffffffffffff1673ffffffffffffffffffffffffffffffffffffffff168152602001908152602001600020549050919050565b60008054906101000a900473ffffffffffffffffffffffffffffffffffffffff1673ffffffffffffffffffffffffffffffffffffffff163373ffffffffffffffffffffffffffffffffffffffff1614610810576040517f08c379a000000000000000000000000000000000000000000000000000000000815260040161080790610e6f565b60405180910390fd5b80600160006101000a81548173ffffffffffffffffffffffffffffffffffffffff021916908373ffffffffffffffffffffffffffffffffffffffff16021790555050565b61085c610967565b600160009054906101000a900473ffffffffffffffffffffffffffffffffffffffff1673ffffffffffffffffffffffffffffffffffffffff163373ffffffffffffffffffffffffffffffffffffffff16146108b657600080fd5b60036000600260008573ffffffffffffffffffffffffffffffffffffffff1673ffffffffffffffffffffffffffffffffffffffff1681526020019081526020016000205481526020019081526020016000206040518060c001604052908160008201548152602001600182015481526020016002820154815260200160038201548152602001600482015481526020016005820160009054906101000a900460ff1615151515815250509050919050565b6040518060c0016040528060008152602001600080191681526020016000801916815260200160008019168152602001600080191681526020016000151581525090565b600080fd5b6000819050919050565b6109c3816109b0565b81146109ce57600080fd5b50565b6000813590506109e0816109ba565b92915050565b600073ffffffffffffffffffffffffffffffffffffffff82169050919050565b6000610a11826109e6565b9050919050565b610a2181610a06565b8114610a2c57600080fd5b50565b600081359050610a3e81610a18565b92915050565b60008060408385031215610a5b57610a5a6109ab565b5b6000610a69858286016109d1565b9250506020610a7a85828601610a2f565b9150509250929050565b600081519050919050565b600082825260208201905092915050565b6000819050602082019050919050565b610ab9816109b0565b82525050565b6000610acb8383610ab0565b60208301905092915050565b6000602082019050919050565b6000610aef82610a84565b610af98185610a8f565b9350610b0483610aa0565b8060005b83811015610b35578151610b1c8882610abf565b9750610b2783610ad7565b925050600181019050610b08565b5085935050505092915050565b60006020820190508181036000830152610b5c8184610ae4565b905092915050565b600080600080600060a08688031215610b8057610b7f6109ab565b5b6000610b8e888289016109d1565b9550506020610b9f888289016109d1565b9450506040610bb0888289016109d1565b9350506060610bc1888289016109d1565b9250506080610bd288828901610a2f565b9150509295509295909350565b600060208284031215610bf557610bf46109ab565b5b6000610c0384828501610a2f565b91505092915050565b610c15816109b0565b82525050565b6000602082019050610c306000830184610c0c565b92915050565b6000819050919050565b610c4981610c36565b82525050565b60008115159050919050565b610c6481610c4f565b82525050565b60c082016000820151610c806000850182610c40565b506020820151610c936020850182610ab0565b506040820151610ca66040850182610ab0565b506060820151610cb96060850182610ab0565b506080820151610ccc6080850182610ab0565b5060a0820151610cdf60a0850182610c5b565b50505050565b600060c082019050610cfa6000830184610c6a565b92915050565b7f4e487b7100000000000000000000000000000000000000000000000000000000600052601160045260246000fd5b6000610d3a82610c36565b91507fffffffffffffffffffffffffffffffffffffffffffffffffffffffffffffffff8203610d6c57610d6b610d00565b5b600182019050919050565b7f4e487b7100000000000000000000000000000000000000000000000000000000600052603260045260246000fd5b600082825260208201905092915050565b7f434e494320616c72656164792065786973747300000000000000000000000000600082015250565b6000610ded601383610da6565b9150610df882610db7565b602082019050919050565b60006020820190508181036000830152610e1c81610de0565b9050919050565b7f436f6e7472616374206973206e6f742063616c6c6564206279206f776e657200600082015250565b6000610e59601f83610da6565b9150610e6482610e23565b602082019050919050565b60006020820190508181036000830152610e8881610e4c565b905091905056fea26469706673582212201ce0b338dfa8b499fb8d16306df714af810bd96538d0ec1da12e197de2ad0a5b64736f6c63430008110033",
  "immutableReferences": {},
  "source": "// SPDX-License-Identifier: MIT\r\npragma solidity >=0.4.22 <0.9.0;\r\n\r\nimport '../StructDeclaration.sol';\r\n\r\ncontract UserStorage {\r\n\r\n    address private ownerAddress; address private controllerAddress;\r\n\r\n    constructor() {\r\n        ownerAddress = msg.sender;\r\n    }\r\n\r\n    modifier isOwner() {\r\n        require(msg.sender == ownerAddress, \"Contract is not called by owner\");\r\n        _;\r\n    }\r\n\r\n    modifier isController() {\r\n        require(msg.sender == controllerAddress);\r\n        _;\r\n    }\r\n\r\n    function setControllerAddress(address _controllerAddress) public isOwner {\r\n        controllerAddress = _controllerAddress;\r\n    }\r\n\r\n    mapping(address => bytes32) internal userCnic;\r\n\r\n    mapping(bytes32 => Profile) internal profiles;\r\n\r\n    uint internal latestUserId = 0; uint internal latestCnic = 0;\r\n\r\n    bytes32[] internal cnicList;\r\n\r\n    modifier checkCNIC(bytes32 _cnic) {\r\n        bool isExist = false;\r\n        for(uint i=0; i<cnicList.length; i++) {\r\n            if(_cnic == cnicList[i]) {\r\n                isExist = true;\r\n                break;\r\n            }\r\n        }\r\n        require(!isExist, \"CNIC already exists\");\r\n        _;\r\n    }\r\n\r\n    function registerCNIC(bytes32 _cnic, address _address) public checkCNIC(_cnic) isController {\r\n        userCnic[_address] = _cnic;\r\n        cnicList.push(_cnic);\r\n        latestCnic++;\r\n    }\r\n\r\n    function createUser(bytes32 _firstname, bytes32 _lastname, bytes32 _email, bytes32 _contact, address _address) public isController {\r\n        latestUserId++;\r\n        profiles[userCnic[_address]] = Profile(latestUserId, _firstname, _lastname, _email, _contact, true);\r\n    }\r\n\r\n    function getCnicByAddress(address _address) public view isController returns(bytes32) {\r\n        return userCnic[_address];\r\n    }\r\n\r\n    function getUserProfileByAddress(address _address) public view isController returns(Profile memory) {\r\n        return profiles[userCnic[_address]];\r\n    }\r\n\r\n    function getCnicList() public view isController returns(bytes32[] memory) {\r\n        return cnicList;\r\n    }\r\n\r\n    function updateCNIC(bytes32 _newCnic, address _address) public isController {\r\n        bytes32 oldCnic = userCnic[_address];\r\n        userCnic[_address] = _newCnic;\r\n        if(profiles[oldCnic].exists == true) {\r\n            profiles[_newCnic] = profiles[oldCnic];\r\n            delete profiles[oldCnic];\r\n        }\r\n    }\r\n\r\n}\r\n\r\n\r\n//const instance = await UserStorage.deployed()\r\n//const address = await web3.eth.getAccounts()\r\n//instance.registerCNIC(web3.utils.asciiToHex('9040301451661'), address[0])\r\n//instance.getCnicByAddress(address[0])\r\n//instance.createUser(web3.utils.asciiToHex('Talal'), web3.utils.asciiToHex('Farrukh'), web3.utils.asciiToHex('tf@gmail.com'), web3.utils.asciiToHex('03035550307'), address[0])\r\n//instance.getUserProfileByAddress(address[0])\r\n//instance.getCnicList()\r\n",
  "sourcePath": "C:\\Users\\hp\\Desktop\\University Stuff\\FYP\\blockestate-next\\contracts\\users\\UserStorage.sol",
  "compiler": {
    "name": "solc",
    "version": "0.8.17+commit.8df45f5f.Emscripten.clang"
  },
  "schemaVersion": "3.4.10",
  "updatedAt": "2022-11-24T09:25:34.239Z",
  "networkType": "ethereum",
  "devdoc": {
    "kind": "dev",
    "methods": {},
    "version": 1
  },
  "userdoc": {
    "kind": "user",
    "methods": {},
    "version": 1
  }
}