{
  "contractName": "Utils",
  "abi": [
    {
      "inputs": [
        {
          "internalType": "address",
          "name": "checkAddress",
          "type": "address"
        },
        {
          "internalType": "address[]",
          "name": "arrayAddress",
          "type": "address[]"
        }
      ],
      "name": "indexOfAddress",
      "outputs": [
        {
          "internalType": "bool",
          "name": "",
          "type": "bool"
        }
      ],
      "stateMutability": "pure",
      "type": "function"
    },
    {
      "inputs": [
        {
          "internalType": "uint256",
          "name": "checkTokenId",
          "type": "uint256"
        },
        {
          "internalType": "uint256[]",
          "name": "arrayTokenId",
          "type": "uint256[]"
        }
      ],
      "name": "indexOfTokenId",
      "outputs": [
        {
          "internalType": "bool",
          "name": "",
          "type": "bool"
        }
      ],
      "stateMutability": "pure",
      "type": "function"
    },
    {
      "inputs": [
        {
          "internalType": "address",
          "name": "_address",
          "type": "address"
        },
        {
          "internalType": "uint256",
          "name": "_tokenId",
          "type": "uint256"
        }
      ],
      "name": "hashTokenAddress",
      "outputs": [
        {
          "internalType": "bytes32",
          "name": "",
          "type": "bytes32"
        }
      ],
      "stateMutability": "pure",
      "type": "function"
    }
  ],
  "bytecode": "0x608060405234801561001057600080fd5b50610782806100206000396000f3fe608060405234801561001057600080fd5b50600436106100415760003560e01c8063a12ca11d14610046578063bda6b69114610076578063dfcd3082146100a6575b600080fd5b610060600480360381019061005b9190610293565b6100d6565b60405161006d91906102ec565b60405180910390f35b610090600480360381019061008b9190610460565b610109565b60405161009d91906104d7565b60405180910390f35b6100c060048036038101906100bb91906105b5565b610190565b6040516100cd91906104d7565b60405180910390f35b600082826040516020016100eb92919061067a565b60405160208183030381529060405280519060200120905092915050565b6000806000905060005b83518110156101855783818151811061012f5761012e6106a6565b5b602002602001015173ffffffffffffffffffffffffffffffffffffffff168573ffffffffffffffffffffffffffffffffffffffff16036101725760019150610185565b808061017d90610704565b915050610113565b508091505092915050565b6000806000905060005b83518110156101e0578381815181106101b6576101b56106a6565b5b602002602001015185036101cd57600191506101e0565b80806101d890610704565b91505061019a565b508091505092915050565b6000604051905090565b600080fd5b600080fd5b600073ffffffffffffffffffffffffffffffffffffffff82169050919050565b600061022a826101ff565b9050919050565b61023a8161021f565b811461024557600080fd5b50565b60008135905061025781610231565b92915050565b6000819050919050565b6102708161025d565b811461027b57600080fd5b50565b60008135905061028d81610267565b92915050565b600080604083850312156102aa576102a96101f5565b5b60006102b885828601610248565b92505060206102c98582860161027e565b9150509250929050565b6000819050919050565b6102e6816102d3565b82525050565b600060208201905061030160008301846102dd565b92915050565b600080fd5b6000601f19601f8301169050919050565b7f4e487b7100000000000000000000000000000000000000000000000000000000600052604160045260246000fd5b6103558261030c565b810181811067ffffffffffffffff821117156103745761037361031d565b5b80604052505050565b60006103876101eb565b9050610393828261034c565b919050565b600067ffffffffffffffff8211156103b3576103b261031d565b5b602082029050602081019050919050565b600080fd5b60006103dc6103d784610398565b61037d565b905080838252602082019050602084028301858111156103ff576103fe6103c4565b5b835b8181101561042857806104148882610248565b845260208401935050602081019050610401565b5050509392505050565b600082601f83011261044757610446610307565b5b81356104578482602086016103c9565b91505092915050565b60008060408385031215610477576104766101f5565b5b600061048585828601610248565b925050602083013567ffffffffffffffff8111156104a6576104a56101fa565b5b6104b285828601610432565b9150509250929050565b60008115159050919050565b6104d1816104bc565b82525050565b60006020820190506104ec60008301846104c8565b92915050565b600067ffffffffffffffff82111561050d5761050c61031d565b5b602082029050602081019050919050565b600061053161052c846104f2565b61037d565b90508083825260208201905060208402830185811115610554576105536103c4565b5b835b8181101561057d5780610569888261027e565b845260208401935050602081019050610556565b5050509392505050565b600082601f83011261059c5761059b610307565b5b81356105ac84826020860161051e565b91505092915050565b600080604083850312156105cc576105cb6101f5565b5b60006105da8582860161027e565b925050602083013567ffffffffffffffff8111156105fb576105fa6101fa565b5b61060785828601610587565b9150509250929050565b60008160601b9050919050565b600061062982610611565b9050919050565b600061063b8261061e565b9050919050565b61065361064e8261021f565b610630565b82525050565b6000819050919050565b61067461066f8261025d565b610659565b82525050565b60006106868285610642565b6014820191506106968284610663565b6020820191508190509392505050565b7f4e487b7100000000000000000000000000000000000000000000000000000000600052603260045260246000fd5b7f4e487b7100000000000000000000000000000000000000000000000000000000600052601160045260246000fd5b600061070f8261025d565b91507fffffffffffffffffffffffffffffffffffffffffffffffffffffffffffffffff8203610741576107406106d5565b5b60018201905091905056fea2646970667358221220f32cba297047acf7bcce09a28157614efdb4862213da3daace6b67499f9d5a6264736f6c63430008110033",
  "immutableReferences": {},
  "source": "// SPDX-License-Identifier: MIT\r\npragma solidity >=0.4.22 <0.9.0;\r\n\r\ncontract Utils {\r\n\r\n    function indexOfAddress(address checkAddress, address[] memory arrayAddress) public pure returns(bool) {\r\n        bool x = false;\r\n\r\n        for(uint i=0; i<arrayAddress.length; i++) {\r\n            if(checkAddress == arrayAddress[i]) {\r\n                x = true;\r\n                break;\r\n            }\r\n        }\r\n        return x;\r\n    }\r\n\r\n    function indexOfTokenId(uint256 checkTokenId, uint256[] memory arrayTokenId) public pure returns(bool) {\r\n        bool x = false;\r\n\r\n        for(uint i=0; i<arrayTokenId.length; i++) {\r\n            if(checkTokenId == arrayTokenId[i]) {\r\n                x = true;\r\n                break;\r\n            }\r\n        }\r\n        return x;\r\n    }\r\n\r\n    function hashTokenAddress(address _address, uint256 _tokenId) public pure returns(bytes32) {\r\n        return keccak256(abi.encodePacked(_address, _tokenId));\r\n    }\r\n\r\n}",
  "sourcePath": "C:\\Users\\hp\\Desktop\\University Stuff\\FYP\\blockestate-next\\contracts\\Utils.sol",
  "compiler": {
    "name": "solc",
    "version": "0.8.17+commit.8df45f5f.Emscripten.clang"
  },
  "schemaVersion": "3.4.10",
  "updatedAt": "2023-02-02T16:46:46.987Z",
  "devdoc": {
    "kind": "dev",
    "methods": {},
    "version": 1
  },
  "userdoc": {
    "kind": "user",
    "methods": {},
    "version": 1
  }
}